:020000040800F2
:1000000088080020DD010008271300081D120008E1
:1000100025130008E9020008D513000800000000BD
:100020000000000000000000000000002B1300088A
:100030003903000800000000291300082D130008F0
:10004000F7010008F7010008F7010008F7010008B0
:10005000F7010008F7010008F7010008F7010008A0
:10006000F7010008F7010008F7010008F701000890
:10007000F7010008F7010008F7010008F701000880
:10008000F7010008F7010008F7010008F701000870
:10009000ED020008F7010008F7010008F701000869
:1000A000F7010008F7010008F7010008F701000850
:1000B000F7010008F7010008F7010008F701000840
:1000C000F7010008F7010008F7010008F701000830
:1000D000F7010008F7010008F7010008F701000820
:1000E000F7010008F7010008F7010008F701000810
:1000F000F7010008F7010008F7010008F701000800
:10010000F7010008F7010008F7010008F7010008EF
:10011000F7010008F7010008F7010008F7010008DF
:10012000F7010008F7010008F7010008F7010008CF
:10013000F70100080000000000000000F7010008BF
:10014000F7010008F7010008F7010008F7010008AF
:10015000F7010008F7010008F7010008F70100089F
:10016000F7010008F7010008F7010008F70100088F
:10017000F7010008F7010008F7010008000000007F
:1001800000000000F701000800000000000000006F
:10019000F70100080000000000000000F70100085F
:1001A000000000000000000000000000F70100084F
:1001B000F7010008F7010008F7010008F70100083F
:1001C000F7010008DFF810D000F07CF80048004785
:1001D00071140008AFF300808808002006488047AB
:1001E00006480047FEE7FEE7FEE7FEE7FEE7FEE71C
:1001F000FEE7FEE7FEE7FEE7B9130008C5010008C9
:100200002DE9F05F0546002092469B46884606464B
:10021000814640241BE0284641464746224600F0DE
:1002200041F853465A46C01A914110D31146184618
:10023000224600F028F82D1A67EB01084F462246A7
:100240000120002100F01FF817EB00094E41201E8D
:10025000A4F10104DFDC484631462A464346BDE8A6
:10026000F09FD2B201E000F8012B491EFBD270478B
:100270000022F6E710B513460A4604461946FFF772
:10028000F0FF204610BD202A04DB203A00FA02F1DC
:10029000002070479140C2F1200320FA03F3194374
:1002A00090407047202A04DB203A21FA02F0002116
:1002B000704721FA02F3D040C2F120029140084376
:1002C00019467047064C074D06E0E06840F0010310
:1002D00094E8070098471034AC42F6D3FFF776FF56
:1002E000C4140008E4140008FEE70000014800F010
:1002F0002CB900003400002070B50E4C154606469F
:10030000216000216160A160C4E90313012321463B
:1003100000F026F860B102232A462146304600F05C
:100320001FF828B104232A462146304600F018F869
:10033000002070BD1C0000207047704790F82020FE
:10034000012A07D0022A05D0416A41F48021416286
:1003500001207047006842690A43426100207047EB
:10036000F0B590F820500468A468012D05D0022D46
:1003700003D0416A41F480215DE014F0406F01D167
:10038000E50055D5C4F30164022C03D9416A41F458
:10039000000150E00125A5401D608D684FF4C07339
:1003A0009DB1CE6835434E6845EAC605066803EB45
:1003B0000417F5514FF4C275076805EB04150E6973
:1003C0007E51097D012905D009E00E88CD6845EAF6
:1003D0004655EBE701684E5946F480764E51117947
:1003E000D579567941EA056195792D0445EA0625C6
:1003F00029434FF4C676056806EB0416A951117817
:10040000D57841EA0561957852782D0445EA0222B3
:1004100011434FF4C475026805EB0415515100688F
:1004200003EB0411425842F0010242500020F0BD9B
:10043000416A41F4001141620120F0BD10B590F80D
:100440002020012A07D0022A05D0416A41F48021E8
:100450004162012010BD3B48D0F8002242F0010269
:10046000C0F80022D0F8002222F47C52C0F800220A
:10047000D0F800224B6A42EA0322C0F800220A7D2B
:1004800002F01F0301229A40D0F81C329343C0F8B7
:100490001C32CB69B3B9D0F80C329343C0F80C329C
:1004A0008C894B6864F31F434C6900EBC404C4F8A7
:1004B00040320C890B6864F31F434C6900EBC404A1
:1004C000C4F84432CB69012B16D1D0F80C32134357
:1004D000C0F80C320C884B6864F31F434C6900EB86
:1004E000C404C4F840320C89CB6864F31F434C69E0
:1004F00000EBC404C4F844328B69002BD0F80432FA
:100500000ED01343C0F804320B69002BD0F814321C
:1005100008D01343C0F81432096A012904D008E056
:100520009343EFE79343F5E7D0F81C121143C0F86B
:100530001C12D0F8001221F00101C0F800120020B6
:1005400010BD00000064004070472DE9F05F0546D3
:10055000006800244669D0F804908768D0F80CB091
:10056000D0F810A0D0F81880F10748D0F90714D0BF
:1005700001218160B80703D5284600F020FA0CE07D
:10058000780702D54FF4006407E0380702D54FF42E
:10059000805402E0284600F011FAF80516D52968C3
:1005A0004FF480708860B80503D5284600F009FA3A
:1005B0000CE0780502D544F4005407E0380502D574
:1005C00044F4804402E0284600F0FAF9F80316D516
:1005D00029684FF480308860B80303D5284600F0BE
:1005E000F2F90CE0780302D544F4004407E0380344
:1005F00002D544F4803402E0284600F0E3F93007E5
:1006000007D55FEACB6004D52968102044F4007454
:10061000C86070074FF0080707D55FEA0B7004D574
:100620002868C760284600F097F9B00706D5286803
:10063000C068800702D0284600F08FF9700607D501
:100640005FEACA6004D52968102044F48064086118
:10065000B00607D55FEA0A7004D528680761284606
:1006600000F07CF9F00606D528680069800702D002
:10067000284600F074F9B00308D55FEAC96005D5D3
:10068000296810204860284600F06AF9F00307D571
:100690005FEA097004D528684760284600F094F99D
:1006A000300446D55FEA497040D5F00504D55FEACD
:1006B000C87001D044F00104B00504D55FEA887029
:1006C00001D544F00204700504D55FEA487001D5F5
:1006D00044F00404300529D518F0700F26D008F036
:1006E0007000402815D006DC102809D020280AD038
:1006F000302816D10AE050280ED0602811D10EE023
:1007000044F008040DE044F010040AE044F0200432
:1007100007E044F0400404E044F0800401E044F4C5
:1007200080742868816921F0700181612968042042
:100730004860002C05D0686A204368622846FFF7AD
:1007400003FFBDE8F09F70B5040003D094F82000CB
:1007500010B104E0012070BD204600F081F820684F
:10076000016821F00201016000F01CFA054605262F
:1007700004E000F017FA401B0A2811D820684068EE
:100780008007F6D42068016841F00101016000F0A3
:1007900009FA05460BE000F005FA401B0A2806D9C5
:1007A000606A40F40030606284F82060D2E720681C
:1007B0004068C007EFD0207E0128206801683DD046
:1007C00021F080010160607E01282068016838D036
:1007D00021F040010160A07E01282068016833D02B
:1007E00021F020010160E07E0128206801682ED000
:1007F00041F010010160207F01282068016829D0A4
:1008000021F008010160607F01282068016824D080
:1008100021F004010160D4E902010843D4E9041283
:10082000114308436168491E08432168C8610020DC
:100830006062012084F82000002070BD41F080013A
:10084000C0E741F04001C5E741F02001CAE721F0CF
:100850001001CFE741F00801D4E741F00401D9E7E6
:100860002DE9F04387B0044614216846FFF700FDE8
:10087000354B3648DFF8CC801968D4F800C0334ACD
:10088000022503260927DFF8C89010300024491CF0
:10089000C44528D11960012907D1016841F00071D0
:1008A0000160006800F000700590106840F00200E0
:1008B0001060106802AB00F0020005904FF4407029
:1008C000CDE9000583E8D0006946484600F090F87D
:1008D00000221146142000F0D3F9142000F0C2F9D0
:1008E00007B0BDE8F083DFF86C80C445F8D1D0F8DC
:1008F00000C04CF0806CC0F800C0D0F800C00129E6
:100900000CF0806CCDF814C0196007D1016841F07B
:1009100000710160006800F000700590106840F000
:1009200002001060106802AB00F0020005904FF466
:100930004050CDE9000583E8D0006946484600F004
:1009400057F8CDE70064004008000020303802402E
:1009500000040240006800407047704770477047CD
:100960007047000070B5044690F82000012804D0BC
:10097000606A40F40020606218E0022084F82000E1
:100980002068016821F00101016000F00BF90546C3
:100990000EE000BF00F006F9401B0A2808D9606A83
:1009A00040F400306062052084F82000012070BD12
:1009B00020684068C007EDD1606270BD7047704725
:1009C00070477047704770477047000070B5044625
:1009D00000F0E8F80546601C02D0044800780444A2
:1009E00000F0E0F8401BA042FAD370BD0C000020DC
:1009F0002DE9F84F00224FF0010803254FF00F0EAC
:100A00000B6808FA02F42340A3426ED14E68012E0F
:100A100005D0022E03D0112E01D0122E12D18668DD
:100A20004FEA420C05FA0CF7BE43CF6807FA0CF701
:100A3000374387604668A6430C79C4F3001494409A
:100A400034434460C668570005FA07FC8C6826EA00
:100A50000C06BC403443C4604C68022C01D0122CFC
:100A600013D1D40800EB8404A346D4F82090540793
:100A70004FEAD46A0EFA0AF629EA06090E6906FA5E
:100A80000AF646EA0906CBF8206006680C7926EAE1
:100A90000C0604F00304BC40344304604C68E400DA
:100AA00060D5334C266846F480462660246822F0E0
:100AB000030604F4804400942E4C3444A446D4F835
:100AC00008489607370F0EFA07F6B4432A4EB0428D
:100AD00001D100261FE0294EB04201D101261AE0C3
:100AE000274EB04202D1022615E03BE0254EB0422F
:100AF00001D103260FE0244EB04201D104260AE0C2
:100B0000224EB04201D1052605E0214EB04201D16E
:100B1000062600E00726BE402643CCF808681D4E96
:100B200034684F689C43FF0300D51C433460194E62
:100B3000361D34684F689C43BF0300D51C433460A6
:100B4000144E083634684F689C43FF0200D51C439E
:100B50003460104E0C3634684F689C43BF0200D599
:100B60001C433460521C102AFFF44AAFBDE8F88FD2
:100B700044380240003001400000024000040240BE
:100B800000080240000C0240001002400014024025
:100B900000180240003C01400AB18161704709041D
:100BA000FBE7000001488068704700000C0000204F
:100BB0000248816802781144816070470C0000206F
:100BC0000B4810B5016841F400710160016841F4FF
:100BD00080610160016841F480710160032000F0D0
:100BE0006FF8002000F006F800F024F8002010BD97
:100BF000003C024070B50D4D04464FF47A712878E0
:100C0000B1FBF0F00A490968B1FBF0F000F0F2FA2C
:100C100048B9102C07D200222146501E00F030F8AF
:100C200000206C6070BD012070BD00000C00002031
:100C3000180000200A4808B5016841F480410160AD
:100C4000006800F4804000900548001F016841F0F2
:100C500080510160006800F08050009008BD0000E5
:100C600044380240002809DB00F01F0201219140B6
:100C70004009800000F1E020C0F80011704700003A
:100C8000F0B40E4B1B680C46C3F30223C3F10705F7
:100C9000042D00D90425191D072901D2002300E0E5
:100CA000DB1E012606FA05F1491E214099409E40AF
:100CB000761E16403143F0BC00F08DBB0CED00E019
:100CC000064900F0070208684FF6FF03184040EAA3
:100CD0000220034A10430860704700000CED00E05A
:100CE0000000FA052DE9F0470E46050065D0DFF853
:100CF0001481D8F80000F7B200F00F00B04207D21C
:100D000088F80070D8F8000000F00F00B04254D10D
:100D100028683D4C810712D5400703D5206840F470
:100D2000E05020602878000703D5206840F4604038
:100D300020602068A96820F0F0000843206028782F
:100D4000C0072DD0304968680839012812D0022820
:100D500013D0032811D00968890700292DDA2168EA
:100D600021F0030101432160FFF71CFF814641F29E
:100D7000883A0EE009688903EFE709688901ECE722
:100D8000FFF710FFA0EB0901514502D90320BDE890
:100D9000F0872068696800F00C00B0EB810FEFD19C
:100DA000D8F80010404601F00F01B14207D9077092
:100DB000006800F00F00B04201D00120E7E728787A
:100DC000400705D52068E96820F4E050084320601A
:100DD0002878000706D52068296920F4604040EA99
:100DE000C100206000F018F82168084AC1F303111F
:100DF000515CC8400649086006480068FFF7FAFEE3
:100E00000020C4E7003C024008380240B414000847
:100E10001800002010000020224810B5006810F0D3
:100E20000C02214815D02149042A11D01D4C241F41
:100E3000082A0FD00C2A0CD12268236802F03F0246
:100E40005B0221D52068C0F38810A0FB010120E0DF
:100E5000084610BD2268236802F03F025B0205D5F8
:100E60002068C0F38810A0FB010104E02168C1F3F1
:100E70008811A1FB00010023FFF7C2F92168C1F32B
:100E80000141491C49000AE02168C1F38811A1FB16
:100E900000010023FFF7B4F92168C1F30271B0FB30
:100EA000F1F010BD083802400024F400001BB70028
:100EB0002DE9F84F0546DFF828B30078ABF10407B9
:100EC000C007A7F1040451D0DBF800105846C1F365
:100ED000810101290FD00168C1F38101022902D1EA
:100EE0003968490207D40068C0F38100032809D19A
:100EF0003868400206D52068800337D56868002826
:100F000072D033E06868B0F5803F10D0B0F5A02F04
:100F1000206810D020F480302060206820F48020E9
:100F200020606868A8B1FFF73DFE06460DE0206826
:100F300040F48030F4E740F480202060F7E700BF01
:100F4000FFF730FE801B642878D820688003F7D52F
:100F50000CE0FFF727FE064605E000BFFFF722FE84
:100F6000801B6428F0D820688003F7D42878DFF845
:100F7000749280074FF0000A46D5DBF800105846FF
:100F800011F00C0F0FD00168C1F38101022902D1C9
:100F90003968490207D50068C0F38100032809D1E8
:100FA0003868400206D42068800715D5E868012813
:100FB0001AD111E0E868C0B10120C9F80000FFF7BC
:100FC000F1FD064605E000BFFFF7ECFD801B02289F
:100FD000BAD820688007F7D52068296920F0F80082
:100FE00040EAC10020600FE0F7E0C9F800A0FFF779
:100FF000D9FD064605E000BFFFF7D4FD801B02289F
:101000001CD820688007F7D42878000727D5DFF898
:10101000D0817548696908F16C0881B101210160CE
:10102000FFF7C0FD064604E0FFF7BCFD801B022869
:1010300004D8D8F800008007F6D510E089E0C0F8A1
:1010400000A0FFF7AFFD064605E000BFFFF7AAFDD1
:10105000801B02287DD8D8F800008007F6D42878B5
:10106000400769D55E484FF0000838300068C0007E
:101070000BD45B483830016841F080510160006852
:101080004FF0010800F080500090584E3068C005C5
:1010900011D4306840F480703060FFF783FD009019
:1010A00006E000BFFFF77EFD0099401A022850D8E5
:1010B0003068C005F6D54A4EA868683601280FD0BA
:1010C0000528306810D020F001003060306820F032
:1010D00004003060A868B8B1FFF764FD00900FE02D
:1010E000306840F00100F4E740F004003060F7E7BA
:1010F000FFF758FD0099411A41F28830814264D8C7
:1011000030688007F4D50EE0FFF74CFD009007E053
:10111000FFF748FD0099411A41F28830814254D8C6
:1011200030688007F4D4B8F1000F05D02C4838306F
:10113000016821F080510160A869A8B3DBF80010B4
:10114000C1F38101022948D00228C9F860A005D066
:1011500000E03AE0FFF726FD054639E0FFF722FD03
:10116000064604E0FFF71EFD801B02282DD82068EC
:101170008001F7D4F5E907010843E9681C4A4908EA
:1011800002EB0141AA6841EA82110843297C40EA46
:101190000160297D40EA017038600120C9F86000D3
:1011A000FFF700FD054606E015E000BFFFF7FAFC7B
:1011B000401B022809D820688001F7D50BE000BF4A
:1011C000FFF7F0FC401B022802D90320BDE8F88F8E
:1011D00020688001F4D40020F8E70120F6E7000041
:1011E0000838024000004742800E4742007000402D
:1011F0000000FFFF10B5401EB0F1807F01D3012039
:1012000010BD4FF0E02460610F21601700F0E3F89B
:101210000020A06107202061002010BDFEE7000033
:101220000F4810B50D4901600221416000214FF4C3
:1012300060228160C0E903124FF4800242610176AE
:1012400041768176C17601774177FFF77CFA0028F5
:1012500003D0BDE81040FFF770B810BD0064004037
:10126000340000200F4810B50D4901600221416093
:1012700000214FF460228160C0E903124FF4800224
:101280004261017641768176C17601774177FFF739
:101290005AFA002803D0BDE81040FFF74EB810BD41
:1012A000006800405C00002030B587B0142168461B
:1012B000FEF7DEFF19480024016841F0800101605B
:1012C000016801F080010591016841F004010160AD
:1012D000016801F004010591016841F0020101601B
:1012E000016801F002010591016841F0010101600E
:1012F00000680B4D00F001000590002201212846F6
:10130000FFF74AFC01210091CDE901146946284606
:101310000394FFF76DFB07B030BD0000303802408A
:1013200000080240FEE7704770477047FFF740BC77
:1013300030B593B034216846FEF79AFF14210DA80A
:10134000FEF796FF1A480025016841F080510160C0
:10135000006800F0805012901648016841F4404146
:1013600001600068022400F44040129001200090C7
:10137000000401908001CDE9064006200890A820D5
:10138000CDE909040720CDE90B046846FFF790FD7D
:101390000DA90F2081E831004FF4A0501090E00219
:1013A000119005210DA8FFF79DFC13B030BD000082
:1013B00040380240007000400548016841F4700167
:1013C000016003494FF000608039086070470000F9
:1013D00088ED00E0FEE70907090E002804DB00F1B4
:1013E000E02080F80014704700F00F0000F1E020CA
:1013F00080F8141D704702E008C8121F08C1002AB7
:10140000FAD170477047002001E001C1121F002A85
:10141000FBD1704700B58BB000200121CDE906015A
:101420000891009001900290039005900490694605
:101430000E48FFF703F80D48FFF794FA02210B4816
:10144000FEF77CFF0E200990059008486946283079
:10145000FEF7F4FF05482830FFF784FA034802211D
:101460002830FEF76BFF0BB000BD000034000020F9
:10147000FFF7A6FBFFF75CFFFFF716FFFFF7D0FEB5
:10148000FFF7F0FEFFF7C6FF0823074A01210748D0
:10149000FEF732FF0823044A02210548FEF72CFF1D
:1014A0006420FFF793FAEFE70000002034000020EB
:1014B0005C000020000000000000000001020304A6
:1014C00006070809E4140008000000201C000000C2
:1014D000F6130008001500081C0000206C0800002E
:1014E00006140008000102030405060700000000BE
:1014F0000100000010000000000000000024F400C3
:04000005080001C529
:00000001FF
