:020000040800F2
:10000000C06500209D0200086F25000861230008DC
:100010006D25000847060008413B0008000000006D
:10002000000000000000000000000000DD010008EA
:10003000DD060008000000003902000867290008FA
:10004000B7020008B7020008B7020008B7020008AC
:10005000B7020008B7020008B7020008B70200089C
:10006000DF060008E5060008B7020008B70200082E
:10007000B7020008B7020008490600085506000844
:10008000B7020008B7020008B7020008B70200086C
:10009000B7020008B7020008B7020008B70200085C
:1000A000B7020008B7020008B7020008B70200084C
:1000B000B7020008B7020008B7020008B70200083C
:1000C000B7020008B7020008B7020008B70200082C
:1000D000B7020008B7020008B7020008B70200081C
:1000E000B7020008B7020008B7020008B70200080C
:1000F000B7020008B7020008B7020008B7020008FC
:10010000B7020008B7020008B7020008B7020008EB
:10011000B7020008B7020008B7020008B7020008DB
:10012000B7020008B7020008B7020008B7020008CB
:10013000B70200080000000000000000B70200083D
:10014000B7020008B7020008B702000871250008CE
:10015000B7020008B7020008B7020008B70200089B
:10016000B7020008B7020008B7020008B70200088B
:10017000B7020008B7020008B7020008000000003C
:1001800000000000B70200080000000000000000AE
:10019000B70200080000000000000000B7020008DD
:1001A000000000000000000000000000B70200088E
:1001B000B7020008B7020008B7020008B70200083B
:1001C000B7020008DFF810D000F0F6F8004800474A
:1001D0005D3E0008AFF30080C06500202C4B19681D
:1001E0000868B0E8F04F80F30988BFF36F8F4FF0D5
:1001F000000080F311887047000000000848006884
:10020000006880F308884FF0000080F3148862B61D
:1002100061B6BFF34F8FBFF36F8F00DF00BF00BF2A
:1002200008ED00E0DFF80C00016841F470010160A6
:10023000704700BF88ED00E0EFF30980BFF36F8FD8
:10024000134B1A681EF0100F08BF20ED108A20E92A
:10025000F04F106009B44FF0500080F31188BFF3E5
:100260004F8FBFF36F8F04F08BFA4FF0000080F3D5
:10027000118809BC19680868B0E8F04F1EF0100F2B
:1002800008BFB0EC108A80F30988BFF36F8F704706
:1002900054000020EFF305807047000006488047B7
:1002A00006480047FEE7FEE7FEE7FEE7FEE7FEE75B
:1002B000FEE7FEE7FEE7FEE71D2A0008C50100088D
:1002C0002DE9F05F0546002092469B46884606468B
:1002D000814640241BE0284641464746224600F01E
:1002E0005AF853465A46C01A914110D3114618463F
:1002F000224600F041F82D1A67EB01084F462246CE
:100300000120002100F038F817EB00094E41201EB3
:10031000A4F10104DFDC484631462A464346BDE8E5
:10032000F09F40EA01039B0703D009E008C9121FB0
:1003300008C0042AFAD203E011F8013B00F8013B9F
:10034000521EF9D27047D2B201E000F8012B491ECB
:10035000FBD270470022F6E710B513460A46044662
:100360001946FFF7F0FF204610BD421C10F8011B94
:100370000029FBD1801A7047202A04DB203A00FABA
:1003800002F1002070479140C2F1200320FA03F3EC
:10039000194390407047202A04DB203A21FA02F0EA
:1003A0000021704721FA02F3D040C2F120029140AF
:1003B0000843194670470000064C074D06E0E06808
:1003C00040F0010394E8070098471034AC42F6D39C
:1003D000FFF7FCFE444C0008644C00080122022197
:1003E000014800F0C4BB00000004024000220221CA
:1003F000014800F0BCBB0000000402407047000050
:1004000001221146014800F0B2BB00000004024086
:1004100000220121014800F0AABB000000040240B4
:10042000704730B504464FF47A7502E0284600F074
:1004300004F8641EA4B2F9D230BD70B54FF0E024C8
:1004400000226569A8214843A169A3698B42FCD0B9
:1004500002D2A1EB030102E0A5EB030631440A44FA
:1004600019468242F1D370BD10B5FFF7C7FFFFF701
:10047000D7FF03F085FB044603F00AFC204310BDC0
:100480002DE9FC410746002016460D4600900190DC
:10049000FFF7ACFF922000F0BDF80622694612205B
:1004A00000F09AF8FFF79AFF9DF801009DF8001000
:1004B000000200B2084300EE100A464CB8EEC00A33
:1004C000D4ED000A20EE200A85ED000A9DF8030015
:1004D0009DF80210000200B2084300EE100AD4EDAD
:1004E000000AB8EEC00A20EE200A85ED010A9DF848
:1004F00005009DF80410000200B2084300EE100A47
:10050000B8EEC00A20EE200A85ED020AFFF780FF50
:1005100008226946002000F05FF8FFF771FF9DF8A0
:1005200000000F2830D19DF803009DF80210000252
:1005300000B2084300EE100AD4ED010AB8EEC00A7A
:1005400020EE200A87ED000A9DF805009DF80410B2
:10055000000200B2084300EE100AD4ED010AB8EE22
:10056000C00A20EE200A87ED010A9DF807009DF8D9
:100570000610000200B2084300EE100AB8EEC00AEE
:1005800020EE200A87ED020AFFF730FFA22000F0DC
:1005900041F802226946222000F01EF8FFF71EFFF4
:1005A0009DF800009DF80110C00040EA5110B0F520
:1005B000806F01DBA0F5006000EE100AB4EE001AB7
:1005C000F8EEC00AB3EE070A00EE810A86ED000AD3
:1005D000BDE8FC810000002070B514460D4640F0D7
:1005E000800000F017F806E0552000F013F8641EB4
:1005F00005F8010BE4B2002CF6D170BD10B50C4625
:1006000040F0800000F006F8552000F003F820705C
:1006100010BD000001B582B04FF47A700090012344
:1006200001AA02A9024801F04FFC9DF804000EBD8A
:100630006C03002010B50C46FFF7ECFF2046BDE828
:100640001040FFF7E7BFFEE7014800F04FB8000099
:10065000C4030020014800F049B800002404002031
:1006600001681823CAB2103AB2FBF3F2054B6FF3DC
:100670000901032A9B5CC36500D9091D81650846F1
:10068000704700001C4C000810B5014600208B6923
:100690008A6A4FF0C07453B1B3F5005F15D072B1E0
:1006A000012A0CD0022A0AD0032A09D104E01AB187
:1006B000012A06D0022A03D1C96AC90100D5012046
:1006C00010BDC96AA142FAD010BD002AF7D0012A94
:1006D000F2D0022AF3D0032AF3D010BD70470420D1
:1006E00000F05EB9082000F05BB970472DE9F843CF
:1006F00004464FF00009CDF8009063484FF41651BE
:10070000A56D0068B0FBF1F72E6894F85C10082026
:1007100000FA01F131420FD021680A6852070BD567
:100720000A6822F004020A6094F85C108840A8600D
:10073000606D40F00100606594F85C104FF00108B6
:1007400008FA01F0304208D021684969090604D549
:10075000A860606D40F00200606594F85C100420B1
:100760008840304208D021680968890704D5A8600C
:10077000606D40F00400606594F85C1010208840C3
:10078000304218D021680968090714D5A86020688C
:100790000168490304D50068000308D5A16C07E08F
:1007A0000168C90503D4016821F008010160216CCA
:1007B00009B12046884794F85C10202088403042D8
:1007C00031D021680968C9062DD5A86094F8350094
:1007D00005282068016806D0490347D50068000352
:1007E0001DD4616C1CE021F0160101602068416994
:1007F00021F080014161206C08B9A06C20B1206813
:10080000016821F00801016094F85C103F208840E5
:10081000A86084F8349084F83580216D1FE0E16B86
:1008200009B120468847606D00282BD0606DC00755
:1008300014D0052084F835002068016821F00101FA
:1008400001600098401C0090B84203D820680068FE
:10085000C007F6D184F8349084F83580E16C002923
:1008600010D001B02046BDE8F04308470168C90533
:10087000D5D4016821F01001016084F8349084F827
:100880003580CCE7BDE8F883500000202DE9F04129
:10089000044600F071F906465CB1002584F8345036
:1008A000022084F835002068016821F00101016010
:1008B0000DE00120BDE8F08100F05EF9801B052805
:1008C00005D920206065032084F83500F2E7206810
:1008D0000068C007F0D12268116820480140D4E9BF
:1008E00001031843D4E903363343184363691843BB
:1008F000A3691843E3691843236A18430843616AEC
:10090000042903D1D4E90B1319430843106020686C
:100910004069666A20F0070130460E43012704282B
:100920000CD1A06A0643E06A40B12046FFF7ACFE56
:1009300020B14020606584F83570BAE720684661D0
:100940002046FFF78DFE94F85C203F2191408160A6
:10095000656584F835700020ACE700003F8010F03A
:1009600010B5042816D10C4C2078002812D004F0C1
:100970005FF801280ED0211DA06803F069FE6068B1
:10098000002807D005494FF080500860BFF34F8F13
:10099000BFF36F8F10BD00002C00002004ED00E0BD
:1009A000044910B50A68024202D00860FFF7D8FF78
:1009B00010BD0000143C01402DE9F84F00224FF01B
:1009C000010803254FF00F0E0B6808FA02F42340CC
:1009D000A3426ED14E68012E05D0022E03D0112EF7
:1009E00001D0122E12D186684FEA420C05FA0CF79C
:1009F000BE43CF6807FA0CF7374387604668A643C3
:100A00000C79C4F30014944034434460C668570022
:100A100005FA07FC8C6826EA0C06BC403443C46027
:100A20004C68022C01D0122C13D1D40800EB8404A2
:100A3000A346D4F8209054074FEAD46A0EFA0AF677
:100A400029EA06090E6906FA0AF646EA0906CBF80B
:100A5000206006680C7926EA0C0604F00304BC400A
:100A6000344304604C68E40060D5334C266846F497
:100A700080462660246822F0030604F48044009433
:100A80002E4C3444A446D4F808489607370F0EFA83
:100A900007F6B4432A4EB04201D100261FE0294E8A
:100AA000B04201D101261AE0274EB04202D10226FF
:100AB00015E03BE0254EB04201D103260FE0244E65
:100AC000B04201D104260AE0224EB04201D10526EF
:100AD00005E0214EB04201D1062600E00726BE40C7
:100AE0002643CCF808681D4E34684F689C43FF03CA
:100AF00000D51C433460194E361D34684F689C4342
:100B0000BF0300D51C433460144E083634684F6868
:100B10009C43FF0200D51C433460104E0C363468F1
:100B20004F689C43BF0200D51C433460521C102AFE
:100B3000FFF44AAFBDE8F88F44380240003001406E
:100B4000000002400004024000080240000C024085
:100B5000001002400014024000180240003C014016
:100B6000426931EA020200D10904816170470AB189
:100B7000816170470904FBE7014880687047000005
:100B80004400002002488168027811448160704767
:100B9000440000200B4810B5016841F40071016069
:100BA000016841F480610160016841F48071016075
:100BB000032000F06FF8002000F006F800F024F8A1
:100BC000002010BD003C024070B50D4D04464FF4AE
:100BD0007A712878B1FBF0F00A490968B1FBF0F0AE
:100BE00001F063FA48B9102C07D200222146501EAA
:100BF00000F030F800206C6070BD012070BD000076
:100C000044000020500000200A4808B5016841F463
:100C100080410160006800F4804000900548001F9A
:100C2000016841F080510160006800F08050009040
:100C300008BD000044380240002809DB00F01F0214
:100C4000012191404009800000F1E020C0F800112E
:100C500070470000F0B40E4B1B680C46C3F3022330
:100C6000C3F10705042D00D90425191D072901D258
:100C7000002300E0DB1E012606FA05F1491E214093
:100C800099409E40761E16403143F0BC02F059BF99
:100C90000CED00E0064900F0070208684FF6FF037C
:100CA000184040EA0220034A1043086070470000E1
:100CB0000CED00E00000FA0570B5164D0446A1B138
:100CC000012911D12068D0F8001E41F00101C0F8BF
:100CD000001ED4F8040402F002FA206A002803D0AF
:100CE000286840F00600286070BD206A28B101F035
:100CF00047FE286820F0060028602068D0F8001E13
:100D000021F00101C0F8001ED4F80404BDE87040D1
:100D100002F08AB910ED00E0D0F8040402F024B922
:100D2000C1EBC10200EB8202D0F80404926C02F025
:100D30008FB8C1EBC10200EB8202D0F80404D2F8F4
:100D4000082202F0DAB8D0F8040402F00FB970B546
:100D5000044601F00F006268904201D9012070BD85
:100D60000B0601F00F01C1EBC10104EB81014FF053
:100D700001024FF0000503D581F83D203C3103E02E
:100D800081F8FD5101F5FE718D70087094F8BC0377
:100D9000012808D084F8BC23206802F091FC84F874
:100DA000BC53002070BD022070BD2DE9F041044607
:100DB0000F0601F00F00C0EBC00104EB81014FF002
:100DC00001064FF0000503D581F83D603C3103E09A
:100DD00081F8FD5101F5FE7108708A60CB704A7888
:100DE00002B1C880022B00D10D7194F8BC03012818
:100DF00009D084F8BC63206802F05CFB284684F8C4
:100E0000BC53BDE8F0810220FBE770B50C4601F051
:100E10000F05C5EBC50100EB8101C1F81032C1F827
:100E200008220023C1F8143281F8FD3181F8FC5109
:100E3000036901F5FE71012B00D10A612207027CD2
:100E4000006803D002F094FC002070BD02F080FB2B
:100E5000FAE770B504460D4601F00F00616888425C
:100E600001D9012070BD29064FF000064FF00102A4
:100E700007D5C0EBC00104EB810181F83D203C3176
:100E800007E0C5EBC50104EB810181F8FD6101F5C7
:100E9000FE718A70087094F8BC03012807D084F8AA
:100EA000BC23206802F038FC280702D007E00220AB
:100EB00070BD217C04F57172206802F0D5FB84F8C6
:100EC000BC63002070BD70B50C4601F00F05C5EB8A
:100ED000C50100EB81010B658A6400234B6501238A
:100EE00081F83D3001F83C5F0369012B00D10A61B4
:100EF0002207027C006803D002F03AFC002070BD9B
:100F000002F026FBFAE700002DE9FC5F05680446C5
:100F1000284602F040FD00287ED1206802F067FDDF
:100F2000002879D0206802F062FD800704D520688F
:100F3000416901F002014161206802F058FDC106DB
:100F400004F57170009034D52068816921F010019A
:100F500081612F6A07F00F00C0EBC00004EB800630
:100F6000C7F3434006F5FE76022802D0062811D0CA
:100F70001AE047F6F070074216D0C7F30A12174678
:100F80002846F16802F037FDF0683844F060B06937
:100F9000384408E008222846009902F02CFDB16987
:100FA000C7F30A100844B0612068816941F010015C
:100FB0008161206802F01BFD00034FF001094FF032
:100FC000080B5BD50026206802F0F0FC0746DFF82E
:100FD000A4A351E0F8074DD0F1B2206802F0FFFC65
:100FE0008046C00707D005EB4611C1F8089B314683
:100FF000204601F0C3FA5FEA087022D505EB4611DE
:10100000C1F808BB2068026C00EB46100192D0F8D2
:10101000081B524507D900E0A9E1090403D54FF4A4
:101020000041C0F8081B204600F0E0F90198504547
:1010300007D92069012804D120680121009A02F013
:1010400013FB5FEAC86004D505EB46111020C1F818
:10105000080B5FEA886004D505EB46112020C1F833
:10106000080B5FEA884005D505EB46114FF40050A8
:10107000C1F8080B7F08761C002FABD1206802F066
:10108000B6FC40034FF0000A5CD5206802F087FCF4
:101090000746002654E0F80750D0F1B2206802F06D
:1010A0008CFC8046C00723D006F00F0209FA02F03C
:1010B000D5F834288243C5F8342805EB4610C0F82B
:1010C0000899206901280FD1C6EBC60004EB800007
:1010D000D0E911211144816436B9206D20B920680E
:1010E0000121009A02F0C0FAF1B22046FFF718FE83
:1010F0005FEA087003D505EB4611C1F808B95FEA4D
:10110000C86004D505EB46111020C1F808095FEA54
:10111000486004D505EB46114020C1F808095FEA94
:10112000887004D505EB46110220C1F808095FEA72
:10113000086003D53146204601F086FA7F08761C08
:10114000002FA8D1206802F052FC002811DAD5F84F
:10115000040820F00100C5F8040894F8F4030128FD
:1011600039D0204600F026F92068416901F000419D
:101170004161206802F03BFC00050BD5D5F808085A
:10118000C00702D0204600F039F92068416901F417
:1011900000614161206802F02AFC00010AD5206844
:1011A000416901F00061416194F8F403D0B1204637
:1011B00000F024F9206802F01AFCC00476D5D5F8B6
:1011C000040820F00100C5F804081021206802F08E
:1011D000C3FB002135E084F8F4A300212046FFF78B
:1011E0006BFDC1E784F8F4932068406D0121C0F3E2
:1011F0008300C4F8F8032046FFF75EFDDAE700BF7E
:1012000005EB41104FF67F32C0F80829D0F80039BD
:1012100023F40013C0F80039D0F8003943F000631C
:10122000C0F80039C0F8082BD0F8002B22F40012C7
:10123000C0F8002BD0F8002B42F00062C0F8002B61
:10124000491C60688842DBD8D5F81C0840F00110C2
:10125000C5F81C08206B60B1D5F8840840F00B007D
:10126000C5F88408D5F8440840F00B00C5F84408D8
:101270000CE0D5F8141842F22B000143C5F81418FD
:10128000D5F8100840F00B00C5F81008D5F8000894
:1012900020F4FE60C5F80008217C2068009A02F066
:1012A000E3F92068416901F480514161206802F04E
:1012B0009EFB800415D5206802F03CF9206802F0FE
:1012C0005DFBE06000F064FB0146227B206802F0D9
:1012D000B1FB204600F058F82068416901F4005144
:1012E0004161206802F083FB000707D5204600F02B
:1012F00065F82068416901F008014161206802F049
:1013000076FBC00208D50021204600F035F82068A1
:10131000416901F480114161206802F068FB80029C
:1013200008D50021204600F02BF82068416901F41F
:1013300000114161206802F05AFB400007D52046A9
:10134000FFF7EAFC2068416901F0804141612068B3
:1013500002F04DFB40070AD520684568680702D5B2
:101360002046FFF7F0FC2068416829434160BDE852
:10137000FC9F00000A30544FD0F8040401F012BE64
:10138000D0F8040401F010BE70B50446C068012511
:1013900070B1022801D0FFF7A8F92946D4F8040457
:1013A00001F058FED4F80404BDE8704001F013BE0B
:1013B0000025F2E7D0F8040401F036BED0F80404AA
:1013C00001F03CBE10B5044690F8BC0301280BD0D8
:1013D000012084F8BC0384F83810206802F019FB5F
:1013E000002084F8BC0310BD022010BDD0F80424F6
:1013F00000F57171104601F039BE000010B50446C9
:10140000D0F8040401F06BFE2068D0F8001E41F013
:101410000101C0F8001E206A002804D002480168BB
:1014200041F00601016010BD10ED00E02DE9F84F1C
:10143000044600260078F84D3746C00708D02868D3
:10144000A16B20F0C06008432860A06B00B90126A2
:101450002078800708D52868E16B20F0C050084349
:101460002860E06B00B90126207840070ED5286877
:10147000216B20F4401008432860206BB0F5801FDA
:1014800001D010B102E0012600E00127207800071A
:101490000ED52868616B20F4400008432860606B1B
:1014A000B0F5800F01D010B102E0012600E0012765
:1014B00020784FF0000A80064FF0010B63D5D64824
:1014C0004C38016841F0805101600068DFF84C93AE
:1014D00000F080500090D9F8001041F48071C9F8F4
:1014E0000010FFF749FB804606E000BFFFF744FB12
:1014F000A0EB080002286FD8D9F80000C005F5D588
:10150000DFF81483A8F11C08D8F8000010F440702C
:1015100024D0B4F8401001F4407181421ED0D8F8B4
:101520000010BF4A21F44071C2F800B0C2F800A018
:10153000C8F80010D8F80000C0070FD0FFF71CFB58
:10154000814607E0FFF718FBA0EB090141F2883064
:101550008142D0D8D8F800008007F3D5216CAE487E
:10156000C1F301228438032A37D0016821F4F8112D
:10157000C0F80010D8F80010B4F84020C2F30B02F5
:101580001143C8F800102078C00604D5A54894F887
:101590005810C0F8E01120780106A34805D501686D
:1015A000E26C21F44001114301602178490605D520
:1015B0000168A26C21F08061114301602188C90596
:1015C00014D50168626D21F0006111430160616D05
:1015D000B1F1006F09D009E01DE10268934B22F4DC
:1015E000F81219400A430260C4E7012721888905DF
:1015F00005D50168626C21F080511143016021889A
:10160000DFF82C92490509D50168226D21F00051BF
:1016100011430160206DB0F1005F04D01EB9206855
:10162000B0F5006F7ED18349C1F868A0FFF7A4FA36
:10163000794E80468C3E05E0FFF79EFAA0EB08004D
:10164000022886D830680001F6D421687A48CA0793
:1016500001D0A26B1AB1890717D5E16BA9B901684E
:101660000268C1F30141491CD4E9013C43EA8C13EF
:1016700021F0004CC2F3036209EB0C4141EA026124
:101680000B43217D43EA0171016021684A0703D5BC
:10169000226BB2F5801F05D0090721D5616BB1F52A
:1016A000800F1DD101680268C1F30141491CD4E9D2
:1016B000013C43EA8C1321F0004C09EB0C4194F8F7
:1016C00010C0C2F3027241EA0C610B4343EA02719B
:1016D00001602968A26A21F01F01521E114329608E
:1016E000218849051AD5216DB1F1005F16D1016835
:1016F0000268C1F30141491CD4E9013C43EA8C135F
:10170000D4F80CC0C2F302724FEA5C0809EB084C33
:101710004CEA41610B4343EA0271016021880905EB
:1017200011D500E01FE0D4E9011241EA8211E2681C
:10173000530809EB0342237C42EA03621143227DF2
:1017400041EA027101603B49C1F868B0FFF714FA41
:10175000804605E0FFF710FAA0EB0800022874D8D5
:1017600030680001F6D5EFB3DFF8C880C8F870A084
:10177000FFF702FA304E0746843E04E0FFF7FCF91B
:10178000C01B022861D83068C0438000F6D52168AC
:101790002A484A0701D5226B1AB109071DD5616B8A
:1017A000D9B90168D4E90623C1F30141491C42EAD1
:1017B000831221F0004309EB034194F8243041EAFD
:1017C00003610A4302602968E26A6FF0FF0321F4B3
:1017D000F85103EB0222114329602188C90514D571
:1017E000616D00E038E0B1F1006F0ED10168D4E91D
:1017F000062342EA8312236AC1F303615C0809EB02
:10180000044343EA01610A430260C8F870B0FFF77D
:10181000B3F904461CE018E08C3802400070004028
:10182000400E47420010474294380240FFFCFF0F31
:101830000000FFFF00004742843802408838024021
:10184000FFF79AF9001B022802D90320BDE8F88FA0
:101850003068C0438000F3D40020F7E72DE9F0475B
:101860000E46050065D0DFF81481D8F80000F7B205
:1018700000F00F00B04207D288F80070D8F80000DE
:1018800000F00F00B04254D128683D4C810712D5BA
:10189000400703D5206840F4E05020602878000716
:1018A00003D5206840F4604020602068A96820F0DB
:1018B000F000084320602878C0072DD030496868C0
:1018C0000839012812D0022813D0032811D0096842
:1018D000890700292DDA216821F0030101432160E5
:1018E000FFF74AF9814641F2883A0EE00968890318
:1018F000EFE709688901ECE7FFF73EF9A0EB090182
:10190000514502D90320BDE8F0872068696800F0DE
:101910000C00B0EB810FEFD1D8F80010404601F079
:101920000F01B14207D90770006800F00F00B04204
:1019300001D00120E7E72878400705D52068E9684D
:1019400020F4E050084320602878000706D520687E
:10195000296920F4604040EAC100206000F01EF8D0
:101960002168084AC1F30311515CC8400649086068
:1019700006480068FFF728F90020C4E7003C024051
:1019800008380240244C0008500000204800002085
:10199000014800687047000050000020224810B540
:1019A000006810F00C02214815D02149042A11D0FA
:1019B0001D4C241F082A0FD00C2A0CD12268236842
:1019C00002F03F025B0221D52068C0F38810A0FB23
:1019D000010120E0084610BD2268236802F03F02A2
:1019E0005B0205D52068C0F38810A0FB010104E06C
:1019F0002168C1F38811A1FB00010023FEF760FC00
:101A00002168C1F30141491C49000AE02168C1F382
:101A10008811A1FB00010023FEF752FC2168C1F3ED
:101A20000271B0FBF1F010BD083802400024F40050
:101A3000001BB7002DE9F84F0546DFF828B3007802
:101A4000ABF10407C007A7F1040451D0DBF8001084
:101A50005846C1F3810101290FD00168C1F381010A
:101A6000022902D13968490207D40068C0F3810015
:101A7000032809D13868400206D52068800337D58D
:101A80006868002872D033E06868B0F5803F10D0F5
:101A9000B0F5A02F206810D020F48030206020689E
:101AA00020F4802020606868A8B1FFF765F806463A
:101AB0000DE0206840F48030F4E740F4802020609E
:101AC000F7E700BFFFF758F8801B642878D8206834
:101AD0008003F7D50CE0FFF74FF8064605E000BF9E
:101AE000FFF74AF8801B6428F0D820688003F7D4F9
:101AF0002878DFF8749280074FF0000A46D5DBF8AB
:101B00000010584611F00C0F0FD00168C1F381018D
:101B1000022902D13968490207D50068C0F3810063
:101B2000032809D13868400206D42068800715D5FB
:101B3000E86801281AD111E0E868C0B10120C9F8AD
:101B40000000FFF719F8064605E000BFFFF714F89C
:101B5000801B0228BAD820688007F7D52068296939
:101B600020F0F80040EAC10020600FE0F7E0C9F87B
:101B700000A0FFF701F8064605E000BFFEF7FCFFF6
:101B8000801B02281CD820688007F7D4287800071B
:101B900027D5DFF8D0817548696908F16C0881B1F3
:101BA00001210160FEF7E8FF064604E0FEF7E4FFCE
:101BB000801B022804D8D8F800008007F6D510E072
:101BC00089E0C0F800A0FEF7D7FF064605E000BF99
:101BD000FEF7D2FF801B02287DD8D8F800008007CE
:101BE000F6D42878400769D55E484FF000083830B1
:101BF0000068C0000BD45B483830016841F0805168
:101C0000016000684FF0010800F080500090584ECD
:101C10003068C00511D4306840F480703060FEF741
:101C2000ABFF009006E000BFFEF7A6FF0099401A48
:101C3000022850D83068C005F6D54A4EA8686836E4
:101C400001280FD00528306810D020F00100306046
:101C5000306820F004003060A868B8B1FEF78CFF4F
:101C600000900FE0306840F00100F4E740F004001D
:101C70003060F7E7FEF780FF0099411A41F28830A3
:101C8000814264D830688007F4D50EE0FEF774FF17
:101C9000009007E0FEF770FF0099411A41F288308A
:101CA000814254D830688007F4D4B8F1000F05D0D1
:101CB0002C483830016821F080510160A869A8B330
:101CC000DBF80010C1F38101022948D00228C9F8CD
:101CD00060A005D000E03AE0FEF74EFF054639E08F
:101CE000FEF74AFF064604E0FEF746FF801B022887
:101CF0002DD820688001F7D4F5E907010843E96889
:101D00001C4A490802EB0141AA6841EA82110843D2
:101D1000297C40EA0160297D40EA01703860012099
:101D2000C9F86000FEF728FF054606E015E000BF91
:101D3000FEF722FF401B022809D820688001F7D552
:101D40000BE000BFFEF718FF401B022802D903205A
:101D5000BDE8F88F20688001F4D40020F8E7012066
:101D6000F6E700000838024000004742800E474274
:101D7000007000400000FFFF70B5040005D0002592
:101D8000A56294F8510010B106E0012070BD84F8FE
:101D90005050204600F030F8022084F851002068AE
:101DA000016821F040010160D4E901010843D4E950
:101DB00003121143084361690843218B01F4007148
:101DC0000843E1690843216A0843A16A084321687E
:101DD0000860A069042101EA1040616A0843216893
:101DE00048602068C16921F40061C1616565012016
:101DF00084F85100002070BDF0B587B0064614216C
:101E00006846FEF7A7FA2B493068884250D12A4825
:101E10000024016841F480410160006800F48040C2
:101E2000059025481038016841F002010160006802
:101E3000694600F0020005904FF4444000900220F3
:101E4000CDE9010403200390052004901B48FEF710
:101E5000B3FD1C4D1A48C5E900040715AC60C5E97F
:101E600003476C614FF44030AC61C5E90740284638
:101E70006C62FEF70BFD08B1FEF737FCF564AE634C
:101E8000104D0F4860351830E5E80204402091C538
:101E9000C00245F81449AC61C5E9074009486C62C5
:101EA0006030FEF7F3FC08B1FEF71FFCB564AE63CB
:101EB00007B0F0BD00380040403802400004024046
:101EC00058600240C40300202DE9F84F044690F802
:101ED000500000270A9E1D4692468B464FF001098E
:101EE00001280ED0012084F85000FEF745FE804600
:101EF00094F85100616801280CD0B1F5827F07D1B8
:101F000002E00220BDE8F88FA16809B9042801D0D9
:101F10000227C2E0BBF1000F27D0BAF1000F24D096
:101F20001DB394F85100042802D0052084F8510014
:101F300000206065C4F838A0E587A587C4F830B0F4
:101F4000E586A5862064606420680168490603D49C
:101F5000016841F040010160E068B0F5006F606821
:101F600005D0E8B3012D46D07FE0012795E008B108
:101F7000012D39D1206B21680088C860206B801C3E
:101F80002063E08E401EE0862EE02068816889078D
:101F90000FD5E18E69B1B9F1010F0AD1216B098822
:101FA000C160206B801C2063E08E401EE0864FF0F5
:101FB000000920688168C9070CD0E18F51B1C06861
:101FC000A16B0880A06B801CA063E08F401EE0879F
:101FD0004FF00109FEF7D0FDA0EB0800B04200E091
:101FE00009E001D3701C50D1E08E0028CDD1E08FE4
:101FF0000028CAD13FE0206B216800780873206B6D
:10200000401C2063E08E401EE0862EE02068816840
:1020100089070FD5E18E69B1B9F1010F0AD1216BA2
:1020200009780173206B401C2063E08E401EE0861F
:102030004FF0000920688168C9070CD0E18F51B1C9
:10204000C068A16B0870A06B401CA063E08F401EAD
:10205000E0874FF00109FEF78FFDA0EB0800B042CA
:1020600002D3701C01D010E07EB1E08E0028CDD1EB
:10207000E08F0028CAD142463146204600F0F8FBE6
:1020800028B101272020606507E0032705E0A0684C
:1020900018B92068C16880680090012084F8510058
:1020A000002084F8500038462CE710B5401EB0F1EF
:1020B000807F01D3012010BD4FF0E02460610F212B
:1020C000601701F03EFD0020A06107202061002084
:1020D00010BD000070B590F83C20012A32D00124D8
:1020E00080F83C40022280F83D2003685A689D68D1
:1020F00022F070060A6832435A60134B02689A4213
:1021000014D0B2F1804F11D0104B9A420ED0104B28
:102110009A420BD00F4B9A4208D00F4B9A4205D0EF
:102120000E4B9A4202D00E4B9A4204D1496825F0D8
:1021300080031943916080F83D40002180F83C10F5
:10214000084670BD022070BD000001400004004040
:1021500000080040000C0040000401400040014025
:1021600000180040022180F83D1001688A6802F0E2
:102170000702062A03D00A6842F001020A60012120
:1021800080F83D100020704710B586B00446142139
:102190006846FEF7DFF81149206888421BD11048D5
:1021A0000021026842F002020260006800F00200B2
:1021B0000590202000900220CDE9020101900490BA
:1021C00069460848FEF7F8FB0748FFF7CBFF0421F4
:1021D000054800F0A3F806B010BD00000004004060
:1021E00030380240000402408404002070B50446E8
:1021F00090F83C000D4601280DD0012684F83C6083
:10220000022084F83D0042B1042A18D0082A2AD0BE
:102210000C2A4DD139E0022070BD206800F07EFC10
:102220002068816941F0080181612068816921F09D
:1022300004018161206881692A69114311E02068E5
:1022400000F09CFC2068816941F400618161206894
:10225000816921F480618161206881692A6941EA8C
:102260000221816124E0206800F0BEFC2068C16981
:1022700041F00801C1612068C16921F00401C16118
:102280002068C1692A69114311E0206800F0E0FC70
:102290002068C16941F40061C1612068C16921F40D
:1022A0008061C1612068C1692A6941EA0221C16176
:1022B00084F83D60002084F83C0070BD10B5040037
:1022C00003D094F83D0010B107E0012010BD0020BC
:1022D00084F83C00204600F00DF8022084F83D0010
:1022E000211D206800F0A8FB012084F83D0000209B
:1022F00010BD000008B500680649884208D10648AC
:10230000016841F002010160006800F002000090E5
:1023100008BD0000000400404038024010B50446EB
:102320000068012200F0ECFB0B492068884202D0D3
:102330000A49884203D1416C41F40041416420685C
:10234000816801F00701062903D0016841F001010D
:102350000160002010BD00000000014000040140A9
:10236000FEE700000D4808B5016841F40011016066
:102370000068002200F40010009011460E20FEF7C5
:1023800069FC0E20FEF758FC002211460F20FEF7D4
:1023900061FCBDE808400F20FEF74EBC303802401B
:1023A00010B58EB01C220B496846FDF7BAFF0949EB
:1023B0001C221C3107A8FDF7B4FF0021684601F07C
:1023C00070FD054C0021206007A801F06AFD6060E7
:1023D0000EB010BDE44B00083C0000202DE9F04198
:1023E00086B014216846FDF7B5FF2E480026016827
:1023F00041F080010160016801F0800105910168F0
:1024000041F004010160016801F0040105910168D7
:1024100041F002010160016801F0020105910168CB
:1024200041F00101016000681F4F00F001000590BC
:10243000002201213846FEF79AFBDFF87080002267
:1024400003214046FEF793FB0124032503950094E6
:10245000CDE9014669463846FEF7AEFA0C200090F9
:102460001348CDE9010469463846FEF7A5FACDE9DF
:102470000054CDE9026569464046FEF79DFA002208
:1024800005210820FEF7E6FB0820FEF7D5FB002219
:1024900005210920FEF7DEFB0920FEF7CDFB06B083
:1024A000BDE8F081303802400008024000040240DC
:1024B00000002110104810B50E4901604FF48271E0
:1024C0004160002102228160C0E9031201224261C1
:1024D000520282613022C0E90721416281620A21F1
:1024E000C162FFF749FC002803D0BDE81040FEF7A9
:1024F000FCB810BD003800406C03002010B58AB055
:10250000002407941C2168460894FDF723FF164811
:102510001449C0E9001441F28731C0E90241046165
:102520008461FFF7CBFE08B1FEF7DFF88020CDE92C
:10253000074007A90C48FFF7CDFD08B1FEF7D5F815
:102540006020CDE900040294042269460648049400
:10255000FFF74CFE08B1FEF7C8F80348FFF714FE7A
:102560000AB010BD0004004084040020FEE770475C
:102570000148FEF7C9BC0000C40400202DE9F04169
:1025800003680D4604461E6C03EB4511D1F8080B99
:10259000D4F810E04FF400474FF0200C04F57172AE
:1025A000BEF1010F09D0DFF898E0764539D1020479
:1025B00032D500BFC1F8087B3FE0224B5FEA007EC6
:1025C00004D59E4239D90004F4D436E05FEA806E27
:1025D00002D5C1F808CB30E010F0280F2DD19E4273
:1025E00001D90004E6D4C5EBC50004EB8000D1F8A6
:1025F000101BD0F80432C1F31201591AC0F814129A
:10260000D0F808121944C0F8081295B9D4F810028D
:1026100078B9012120680AE080060AD5C1F808CB04
:1026200007E035B9D4F8100218B90021184601F0B6
:102630001BF8E9B22046FEF77CFB0020BDE8F081E4
:102640000A31544F0A30544F2DE9F84F0E46C1EB72
:10265000C60100EB810481460568D4E914103C34BE
:10266000884202D90120BDE8F88F081AA16881428A
:1026700000D20846C01C870805EB46181BE000BFC7
:10268000A0EB010AA068504500D282460AF103007F
:10269000870899F8100000901FFA8AF3F2B22846D2
:1026A000E16801F03BFAE16801EB0A00E060A16932
:1026B00001EB0A00A061D8F8180980B2B84205D32E
:1026C000D4E90501814201D20028D9D1D4E905011C
:1026D000884208D806F00F0101208840D5F8341848
:1026E0008143C5F834180020BDE70000A0B1D0ED4B
:1026F000101AC0ED111A90ED0F1A80ED101AC0EDEE
:10270000060A80ED070A30EEC00A80ED0F0A017854
:1027100029B101293BD078E09FED3D0A7047D0ED0B
:10272000010A60EE801AC0ED091AD0ED0A0A90ED98
:10273000022A42EE000A30EE410AC0ED0A0A90ED8C
:102740000D2A80ED0E2A90ED0C2A80ED0D2A80EDE9
:102750000C0A90ED031A21EE001A80ED0B1A90ED91
:10276000050AF4EEC00AF1EE10FA09DCB1EE400AF7
:10277000F4EEC00AF1EE10FA02D390ED0A0A01E07D
:1027800080ED0A0A31EE800A30EE010A2BE070EE8D
:10279000410A90ED012A20EE822A80ED092AD0ED2F
:1027A000020A60EE800AC0ED0A0AD0ED0D2A72EE30
:1027B000200AC0ED0E2AD0ED0C2AC0ED0D2AF0EE55
:1027C000002A01EE620A30EE210A80ED0C0A90ED3B
:1027D000031A21EE000A80ED0B0A30EE800AD0EDDC
:1027E000080A30EE200A80ED080AD0ED040AB4EEA3
:1027F000E00AF1EE10FA06DCF1EE600AB4EEE00A4F
:10280000F1EE10FA01D2C0ED080A90ED080A704707
:1028100000000000002828D0002A26D0017092ED88
:10282000001A80ED011A92ED011A80ED021A92ED64
:10283000021A80ED031A80ED040A9FED0C0AC0ED28
:10284000050A80ED0E0A80ED0D0A80ED0C0A80ED80
:10285000080A80ED0B0A80ED0A0A80ED090A80ED76
:10286000110A80ED100A80ED0F0A70470000000089
:1028700038B504461248134B0068B0FBF3F04FF430
:102880007A73584300906068B0F5827F0DD10B4693
:10289000009200228021204600F016F870B1606D91
:1028A00040F020006065032038BD009830B1401E24
:1028B000009020688068C0430006F6D5002038BD2F
:1028C0005000002000366E012DE9F0411D461746EC
:1028D0000E460446DDF8188008E0681C06D0FEF7B6
:1028E0004BF9A0EB0800A8420BD255B120688068D4
:1028F00036EA000030D00020B842EED10020BDE81A
:10290000F0812068416821F0E00141606068B0F525
:10291000827F0BD1A068B0F5004F02D0B0F5806F78
:1029200004D12068016821F040010160A06AB0F57F
:10293000005F09D12068016821F40051016020681E
:10294000016841F400510160012084F85100002029
:1029500084F850000320D2E70120CDE701784078C9
:1029600041EA0020704710B5FEF70CF902F060F85C
:10297000012803D0BDE8104001F0AABF10BD00003F
:1029800030B5ABB0342117A8FDF7E4FC142124A81E
:10299000FDF7E0FC5C216846FDF7DCFC1D480025E6
:1029A000016841F080510160006800F0805029907A
:1029B0001948016841F4404101600068022400F4B4
:1029C0004040299001201790000418908001CDE923
:1029D0001D4006201F90A820CDE920040720CDE946
:1029E000220417A8FFF726F824A90F2081E8310058
:1029F0004FF4A0502790E0022890052124A8FEF76C
:102A00002DFFE001009015956846FEF70FFD2BB0F5
:102A100030BD0000403802400070004005480168A9
:102A200041F47001016003494FF000608039086093
:102A30007047000088ED00E0F0B50268254C264D97
:102A4000264E274F274B4FF0804CA04209D06045BF
:102A500007D0A84205D0B04203D0B84201D0984276
:102A600004D122F0700E4A6842EA0E02A0421BD046
:102A7000604519D0A84217D0B04215D0B84213D043
:102A8000984211D0184DA8420ED0184DA8420BD034
:102A9000174DA84208D0174DA84205D0164DA842A0
:102AA00002D0164DA84203D122F44075CA682A43C9
:102AB0004D6922F080022A4302608A68C2620A6875
:102AC0008262A04201D0984201D1096901630121CB
:102AD0004161F0BD000001400004004000080040DA
:102AE000000C00400004014000400140004401404F
:102AF0000048014000180040001C00400020004039
:102B000010B501F01F030121046A99408C4304624F
:102B1000016A9A401143016210BD0000F0B5026ADB
:102B200022F001020262036A42688469124E24F0B4
:102B300073050C682C4323F002058B682B430D4D65
:102B4000A84201D0B04205D123F00807CB683B432F
:102B500023F00403A84201D0B04205D14D6922F40C
:102B6000407215438A692A4342608461496841631F
:102B70000362F0BD0000014000040140F0B5026AAC
:102B800022F010020262026A436884690D6824F42C
:102B9000E64444EA05248D6822F0200242EA051248
:102BA0000F4D104EA84201D0B04206D1CF6822F09E
:102BB000800242EA071222F04002A84201D0B0424D
:102BC00007D14D6923F4406343EA85038D6943EAE5
:102BD000850343608461496881630262F0BD00003F
:102BE0000000014000040140F0B5026A22F4807246
:102BF0000262026A4368C46922F4007224F0730519
:102C00000C68124E2C438D6842EA05220E4DA842F4
:102C100001D0B04206D1CF6822F4006242EA072216
:102C200022F48062A84201D0B04207D14D6923F45A
:102C3000405343EA05138D6943EA05134360C461B9
:102C40004968C1630262F0BD000001400004014018
:102C500030B5026A22F480520262046A4268C36993
:102C60000D6823F4E64343EA05238D6824F40054F9
:102C700044EA0534084DA84202D0084DA84204D1C8
:102C80004D6922F4804242EA85124260C36149687C
:102C90000164046230BD00000000014000040140F6
:102CA00010B5D0F8B8220AB152689047002010BD84
:102CB000134610B50A46002100F084F9002010BD2B
:102CC000134610B50A46002100F012FA002010BD8C
:102CD00010B50446802100F0F9F92046BDE8104007
:102CE000002100F0F3B910B505210023C0F89412BB
:102CF0001A46194600F066F9002010BD10B50223EF
:102D00008261C0F89432C26113460A46002100F085
:102D1000EFF9002010BD10B504210023C0F8941273
:102D20001A46194600F0E4F9002010BDF8B5044633
:102D30000020ADF8000048880D46010A062947D05A
:102D400006DC01290FD0022912D0032962D11DE02F
:102D5000072946D00F295DD1D4F8B402C26920E01A
:102D6000694690473BE0D4F8B412207C0A68F7E744
:102D7000207C02260028D4F8B80205D0C16A684633
:102D800088470146467036E0816AF8E7C0B20628F7
:102D900040D2DFE800F003090D111519D4F8B40290
:102DA0004268B2B3207CDBE7D4F8B4028268F8E76B
:102DB000D4F8B402C268F4E7D4F8B4020269F0E7C8
:102DC000D4F8B4024269ECE7D4F8B4028269E8E7C7
:102DD000207CF0B9D4F8B802416B684688470146B8
:102DE00009E0207CA8B9D4F8B802016B684688478E
:102DF000014607204870EA888AB1BDF8000040B15A
:102E0000824200D90246ADF800202046FFF776FF47
:102E1000F8BDFFE729462046FFF75AFFF8E72046AE
:102E2000FFF779FFF4E701004FF0000004D001291B
:102E300001D0022901D0032070470120704710B54E
:102E4000D0F8C402FDF783FFBDE81040FFF7EBBFE9
:102E500070B51646044649B1D4F8B80242691AB1B1
:102E600094F89C02032842D0032070BDD4F8941239
:102E7000002504F11400022932D1D0E902318B423D
:102E800006D95A1A826031462046FFF719FF0FE033
:102E9000994214D14068884211D3D4F898128842DC
:102EA0000DD2002211462046FFF70AFFC4F89852BF
:102EB00000231A461946204600F084F810E0D4F8A2
:102EC000B802C16829B194F89C02032801D12046B8
:102ED00088478021204600F0F9F82046FFF703FFDD
:102EE00094F8A002012806D184F8A05203E02046FD
:102EF00090470028B9D1002070BD10B51346044694
:102F000049B1D4F8B80282691AB194F89C02032836
:102F100024D0032010BDD4F8941204F5AA7003291C
:102F200020D1D0E9021291420AD98A1A8260C0687F
:102F3000824200D3024619462046FFF7B9FE11E04F
:102F4000D4F8B802016929B194F89C02032801D190
:102F5000204688472046FFF7DEFE03E020469047E4
:102F60000028D7D1002010BD0020704710B50121E6
:102F700080F89C12D0F8B82212B1526801799047BB
:102F8000002010BD0A0601F07F01D0F8C402C1EB99
:102F9000C10100EB810002D590F83E00704790F827
:102FA000FE017047002070470020704710B51C4696
:102FB0001346D0F8C4022246FDF7F7FEBDE81040E4
:102FC000FFF731BF10B5D0F8C402FDF71EFFBDE812
:102FD0001040FFF728BF70B50125044680F89C52C9
:102FE0000020C4F894026060C4F8A402D4F8BC02C3
:102FF00028B1D4F8B8020021426820469047002248
:10300000402311462046FFF7D1FF4026A4F8645123
:103010003346002280212046C4F86061FFF7C6FFD6
:10302000A5840020266270BD90F89C12042903D16B
:1030300090F89D1280F89C120020704710B590F80F
:103040009C12032904D1D0F8B812C96901B188478C
:10305000002010BD01740020704710B5D0F8C402E4
:10306000FEF7B0F9BDE81040FFF7DDBE70B50446CD
:1030700000F2AA20054600F044F80120C4F89402AA
:10308000B4F8B002C4F8980294F8AA0210F01F0134
:103090000AD001290ED0022912D000F0800120466A
:1030A000BDE8704000F012B829462046BDE87040E7
:1030B00000F0A6B829462046BDE8704000F0D0B91F
:1030C00029462046BDE8704000F024B910B5D0F87C
:1030D000C402FDF7BEFEBDE81040FFF7A4BE90F8A5
:1030E0009C1280F89D12042180F89C1200207047E9
:1030F00010B5D0F8C402FDF7E6FEBDE81040FFF7BA
:1031000092BE70B5054611F8010B287008786870FA
:103110004C1C2046FFF722FC6880A41C2046FFF7C9
:103120001DFCA880A01CFFF719FCE88070BD0246BA
:103130000320D2F8B832002B02D01B681046184783
:10314000704700002DE9F0410F462C4E897800258C
:1031500004463170012906D939462046FFF7B8FDEB
:103160000320BDE8F08194F89C0202280CD00328CB
:103170001DD039462046FFF7ABFD31782046FFF7DA
:103180008FFD03252846ECE799B320466160FFF7E1
:10319000CEFF050004D039462046FFF799FDF1E740
:1031A0002046FFF7B8FD032084F89C02EAE74FF0C1
:1031B0000208C1B1606888421BD0C1B22046FFF747
:1031C0006FFD317820466160FFF7B1FF050010D038
:1031D00039462046FFF77CFD21792046FFF760FD48
:1031E00084F89C82CEE784F89C8220466160FFF7D9
:1031F00057FD2046FFF78FFDC4E70000B400002014
:103200002DE9F0410A78002512F0600208D0202A4A
:1032100001D0402A71D1D0F8B8229268904731E0AD
:103220004B78002201260A2B67D2DFE803F0415ECB
:103230006658660805662D29FFF778FD5FE00446AD
:103240008888D8B9C888C8B94888802816D200F0BC
:103250007F0794F89C02032810D084F89E723946A8
:103260002046FFF7FAFE2046FFF755FD1FB102206A
:1032700084F89C0243E084F89C6240E020463CE0F5
:10328000FFF760FF05463AE0CB88012B35D190F877
:103290009C32012B04D0022B02D0032B2DD104E051
:1032A0008260012200F1080116E00122011D13E0F5
:1032B00090F89C22012A03D0022A01D0032A1CD1B3
:1032C000CA88022A19D1C660D0F8A41209B1032114
:1032D000C160022200F10C01FFF710FD0FE04988E8
:1032E00001290CD1C0F8A46211E090F89C32012BA6
:1032F00008D0022B06D0032B04D0FFF7E9FC2846A8
:10330000BDE8F08149880129F9D1C0F8A422FFF76E
:1033100002FDF4E72DE9F0410D4604462878002728
:10332000097910F060000BD0202801D0402873D11B
:10333000D4F8B802294682682046904707468CE0B8
:103340006878D8B3012822D0032865D194F89C026C
:10335000022802D003287CD10BE0002979D08029F3
:1033600077D02046FFF7B2FE80212046FFF7AEFE61
:1033700073E0688838B931B1802904D0E88810B981
:103380002046FFF7A3FE2046FFF7C5FC65E094F852
:103390009C020228E1D003285BD16888D8BB48068C
:1033A00002D02046FFF74BFD2046FFF7B4FCD4F8CF
:1033B000B80229468268204690474EE0FFE794F81D
:1033C0009C020026022802D0032842D111E009B154
:1033D00080293ED1080601F07F0000EB800004EB5D
:1033E000800101D5143101E001F5AA7102220E60BD
:1033F0002BE0080601F00F0000EB800004EB8000DA
:103400000BD5808C40B101F07F0000EB800004EB15
:10341000800514350CE020E01BE0B0F86401C0B179
:1034200001F07F0000EB800004EB800505F5AA7534
:1034300041B1802906D02046FFF7A4FD10B101203C
:10344000286000E02E60022229462046FFF756FC45
:1034500003E029462046FFF73BFC3846BDE8F081F3
:1034600070B50646087800240D4610F0600003D0C1
:10347000202801D0402817D196F89C02012803D0BB
:10348000022801D003280FD1287901280CD8D6F8BA
:10349000B8028268304690470446E888204306D147
:1034A0003046FFF738FC02E03046FFF711FC2046BB
:1034B00070BD000070B50A78012302F00F054E7848
:1034C000AB401B4CD0F81C58012E17D045EA0343E3
:1034D000C0F81C3800EB4210D0F8002B12040BD4BB
:1034E000D0F8002B0B89C978C3F30A031A4344EAC6
:1034F00081410A43C0F8002B002070BD9BB21D43E0
:10350000C0F81C5800EB4210D0F800391B04F3D46B
:10351000D0F800390D89C978C5F30A0589042B4311
:1035200041EA82510B432343C0F80039E4E700002D
:1035300000800010D0F800196FF30A01C0F80019DC
:10354000D0F8041841F48071C0F8041800207047C6
:1035500070B50D784E78434CEBB200EB4313012E5F
:103560001FD0D3F8100B6FF31200C3F8100BD3F871
:10357000100B2040C3F8100B486908B188684861F7
:10358000D3F8100B40F40020C3F8100BD3F8100B45
:103590008C68C4F312042043C3F8100B012A55D0E1
:1035A00058E04E69002ED3F8106932D06FF312063E
:1035B000C3F81069D3F810692640C3F810694E6942
:1035C0008C68A64200D94C61D3F8104944F4002419
:1035D000C3F81049D3F810494E69C6F312063443B4
:1035E000C3F81049012A22D000EB4512D2F8003965
:1035F00043F00443C2F800394A6932B3D0F83428A2
:10360000097801F00F03012199400A43C0F83428DA
:1036100026E02640C3F81069D3F8104944F400248A
:10362000C3F81049D3F810496FF31204D8E70969B9
:1036300019B100EB4512C2F8141900EB4510D0F88F
:10364000001941F00441C0F8001909E0C86808B148
:10365000C3F8140BD3F8000B40F00440C3F8000B80
:10366000002070BDFFFF07E010B5036C134CA342B0
:1036700003D9D0F8003B002B1EDB0023C0F8103B21
:10368000D0F8103B43F40023C0F8103BD0F8103BB7
:1036900043F01803C0F8103BD0F8103B43F0C04390
:1036A000C0F8103B012907D1C0F8142BD0F8001B3B
:1036B00041F08021C0F8001B002010BD0A30544F9B
:1036C0004A780B78012A00EB43100BD0D0F8002B7E
:1036D00022F40012C0F8002BC978032914D0022963
:1036E00012D017E0D0F8002922F40012C0F8002907
:1036F000C978032901D002290CD1D0F8001941F072
:103700008051C0F8001905E0D0F8001B41F080514D
:10371000C0F8001B002070470A784B78D1B200EB4C
:103720004110012B12D0D0F8001B002906DB2AB172
:10373000D0F8001B21F08041C0F8001BD0F8001B1E
:1037400041F40011C0F8001B00207047D0F80019A8
:10375000002906DB2AB1D0F8001921F08041C0F819
:103760000019D0F8001941F40011C0F80019EBE776
:10377000F8B50C784F78774DE3B26FF0604600EB08
:103780004313012F26D0D3F8104B6FF31204C3F864
:10379000104BD3F8104B2C40C3F8104B4C69002C45
:1037A00074D08D682C44641EB4FBF5F4D3F8105B20
:1037B000A4B206EAC4463543C3F8105BD3F8105BE5
:1037C0008E686643C6F312042543C3F8105B012AD2
:1037D00071D0A6E04F691FB3D3F810796FF31207C9
:1037E000C3F81079D3F810792F40C3F810794F69D6
:1037F0008D682F447F1EB7FBF5F506EAC545D3F863
:1038000010693543C3F81059D3F810594E69C6F3FF
:1038100012063543C3F81059CD78012D10D01BE0A6
:10382000D3F810692E40C3F81069D3F8105945F445
:103830000025C3F81059D3F810596FF3120509E0A9
:10384000D3F8105925F0C045C3F81059D3F81059D2
:1038500045F00055C3F81059012A18D000EB441365
:10386000D3F8004944F00444C3F80049CC78012C53
:103870002FD04A6962B3D0F83428097801F00F03D9
:10388000012199400A43C0F8342860E036E00A6913
:103890001AB100EB4413C3F81429C97801290FD1D8
:1038A000D0F80818C90500EB4411D1F8002903D459
:1038B00042F0005202E030E042F08052C1F80029AC
:1038C00000EB4410D0F8001941F00441C0F8001991
:1038D0003DE0D0F80848E405D3F8004902D444F0AC
:1038E000005401E044F08054C3F8004900928A8AF1
:1038F00093B20A78C96800F011F928E0D3F8104BA8
:103900008D68C5F312052C43C3F8104BD3F8104B48
:1039100044F40024C3F8104B59E7CA680AB1C3F84D
:10392000142BC97801290CD1D0F80808C005D3F8A8
:10393000000B02D440F0005001E040F08050C3F88A
:10394000000BD3F8000B40F00440C3F8000B00203C
:10395000F8BD0000FFFF07E00022202343EA8111A9
:1039600001610549521C8A4201D90320704703694D
:103970009B06F7D400207047400D0300D0F80808DC
:1039800010F0060004D0022803D0062801D00F2032
:10399000704702207047406900F001007047D0F87E
:1039A0001818D0F81C08084080B27047D0F81818D2
:1039B000D0F81C080840000C704710B5D0F810383B
:1039C000D0F8342801F00F0400EB4110E24002F07F
:1039D0000102D0F8080943EAC212104010BD00EB02
:1039E0004111D1F8081BD0F814080840704741690C
:1039F000806908407047D21C10B59308002200F57A
:103A0000805002E00468521C10C19A42FAD3084662
:103A100010BDD0F8002822F4FE62C0F80028D0F8CB
:103A200000284FF4FE6303EA01110A43C0F800289E
:103A300000207047022A3ED1264A274B0A449A4268
:103A400001D20F2138E0254A254B0A449A4201D27F
:103A50000E2131E0234A244B0A449A4201D20D211F
:103A60002AE0224A224B0A449A4201D20C2123E046
:103A7000204A214B0A449A4201D20B211CE01F4AE2
:103A80001F4B0A449A4201D20A2115E01D4A1E4BDF
:103A90000A449A420FD31D4A1D4B0A449A4201D24E
:103AA000082109E01B4A11441B4A914201D2072117
:103AB00002E0062100E00921C26822F47052C260CF
:103AC000C2684FF4705303EA81210A43C2600020A8
:103AD00070470000405327FF00350C00401E1BFFBD
:103AE00040420F0000DC0BFF804F1200808CF9FE7B
:103AF00020D6130060B6E5FE60E3160000D3CEFECC
:103B000040771B00C05BB3FEC091210000CA91FE4C
:103B100020753800E05459FEE09C410010B5029C2D
:103B200064B9DB1C9C0800EB0230002300F58050D8
:103B300002E004C902605B1CA342FAD3002010BD5E
:103B4000FEE70907090E002804DB00F1E02080F8F9
:103B50000014704700F00F0000F1E02080F8141D01
:103B6000704702E008C8121F08C1002AFAD1704746
:103B70007047002001E001C1121F002AFBD17047ED
:103B80002DE9F0410024FCF731FC8020FCF742FDD8
:103B90005520FCF73FFD5520FCF73CFDFCF71EFCD3
:103BA0009620FCF74AFCFCF721FC8020FCF732FD54
:103BB0005520FCF72FFD5520FCF72CFDFCF70EFCE3
:103BC0009620FCF73AFCFCF711FCB6217E20FCF7AE
:103BD00031FDFCF703FC5020FCF723FCFCF706FC4E
:103BE0008020FCF717FD5520FCF714FD5520FCF74D
:103BF00011FDFCF7F3FB9620FCF71FFCFCF7F6FB2E
:103C00008020FCF707FD5520FCF704FD5520FCF74C
:103C100001FD0546FCF7E2FB9620FCF70EFC1E2D8D
:103C200002D0FF20BDE8F081184D00BFFCF7DEFB9D
:103C300004EB44067719A85D7978FCF7FBFCFCF7E8
:103C4000CDFB9620FCF7F9FBFCF7D0FBA85D40F01C
:103C50008000FCF7DFFC5520FCF7DCFC5520FCF76E
:103C6000D9FC0646FCF7BAFB9620FCF7E6FB787811
:103C7000B04204D004EB440028448078D2E7641CAE
:103C8000E4B2062CD2D30020CCE7000008000020CC
:103C9000F8B500248DF80040FCF7BAFB6946002017
:103CA000FCF7ACFCFCF7ACFB9620FCF7C6FBFCF782
:103CB000AFFB69460020FCF7A1FCFCF7A1FB9620B6
:103CC000FCF7BBFBFCF7A4FBB6211420FCF7B2FC0D
:103CD000FCF796FB5020FCF7A4FBFCF799FB694628
:103CE0000020FCF78BFCFCF78BFB9620FCF7A5FB78
:103CF000FCF78EFB69460020FCF780FCFCF780FB9C
:103D00009620FCF79AFB9DF800000F2801D0FF20B9
:103D1000F8BD154DFCF77CFB04EB44067719A85D54
:103D20007978FCF787FCFCF76BFB9620FCF785FBAA
:103D3000FCF76EFBA85D6946FCF760FCFCF760FBD6
:103D40009620FCF77AFB78789DF80010884204D022
:103D500004EB440028448078F8BD641CE4B2062CCF
:103D6000D8D30020F8BD00001A00002001490860E7
:103D700070470000380400402DED028B4FF4FA70BC
:103D800000F083F89FED260A264A0021F0EE400A53
:103D90002548FEF73FFD00BFFCF766FB0028FBD17E
:103DA00022490820C8610846FDF7E6FF08B1FCF784
:103DB0009CFC002000F0A0F800F0F8FD1C4DA8606D
:103DC00001202870DFED1B8A9FED1B8A164C861E92
:103DD0003146012000F0F4FA0128F9D11249144AC1
:103DE0000C390C32A1F10C00FCF74AFBF0EE680A2A
:103DF00095ED030A0C48FEF779FC94ED080AB5EE40
:103E0000C00AF1EE10FA01D284ED088A94ED080A96
:103E1000BCEEC00A10EE100A80B2FFF7A7FFD7E78A
:103E200000001644D84B0008D00000206C0300208E
:103E30002C00002000002042000000004FF4FA7027
:103E400000F023F8044C642000F01FF80121204604
:103E5000FCF786FEF7E7000000080240FCF79AFE38
:103E6000FEF78EFDFEF7BAFAFEF77CFAFEF722FBAC
:103E7000FEF744FBFEF794FA00F00EF8FEE7014669
:103E80000020842900D0C81C704710B500B901205B
:103E900000F0B8FB002010BD10B500F033FC00208E
:103EA00010BD7FB50D4604464169B0F9080081B1E7
:103EB000A16971B1FFF7E3FFD4E905128DE80700AE
:103EC000D4E900102B46226900F045FD039004B0B0
:103ED00070BDFFF7D4FF03A9CDE90001208A2B466E
:103EE00082B2D4E9001000F009FD012801D00020C1
:103EF000EDE70398EBE7000008B90648006808B151
:103F000034307047502080F31188BFF34F8FBFF3D8
:103F10006F8FFEE7540000202DE9F041184C0F464A
:103F2000054666692068001D00F07EFA38B92068F1
:103F300090F82C1001208840A1698143A161681C80
:103F400007D137B12168BDE8F0410E48091D00F0E6
:103F5000AFBA20683544B5424560216805D2A068F3
:103F6000BDE8F041091D00F08BBA6068091D00F042
:103F700087FA206B854200D22563BDE8F0810000FE
:103F800054000020A80900202DE9F041054600F06A
:103F90009BFA2E4C2069401C206120682C4F10B1E8
:103FA000E06940B32DE025602069012829D1002671
:103FB00006EB860007EB800000F054FA761C072E13
:103FC000F6D323488C3000F04DFA2148A03000F0A1
:103FD00049FA1F48B43000F045FA1D48C83000F0D7
:103FE00041FA1B48DC3000F03DFA19488C30606023
:103FF0001430A06005E02068E96AC06A884200D8F1
:104000002560E06A401CE062E96A0120A2698840FC
:104010001043A06101EB810007EB8000291D00F037
:1040200047FA00F071FAE06900280CD02068E96ACC
:10403000C06A884207D207494FF080500860BFF33A
:104040004F8FBFF36F8FBDE8F08100005400002058
:10405000CC08002004ED00E010B5044690F85100B3
:1040600058B101280CD002280FD0502080F31188BD
:10407000BFF34F8FBFF36F8FFEE7206B00F058FA4E
:104080002046BDE8104000F053BA10BD10484FF470
:104090007051420706D0C01D0D4920F00700411A9B
:1040A000C1F570510B4A00230144C2E900030839ED
:1040B000103A21F0070111604B600B600B1AC0E948
:1040C000001393604FF000405360D06070470000D1
:1040D000BC090020A0000020144E154CA6F1C80712
:1040E0004FF08058DFF84C9012E000BF00F0ECF980
:1040F000F068C568281D00F097F92069401E20610E
:10410000E068401EE06000F0FFF92846FFF7A4FFDA
:10411000E0680028EAD138680128F9D9C9F8008098
:10412000BFF34F8FBFF36F8FF2E7000094090020B9
:104130005400002004ED00E02DE9F0479A46DDE947
:10414000098481466FF00303206B03EB8202104465
:10415000089E20F00707780707D0502080F31188C9
:10416000BFF34F8FBFF36F8FFEE7002561B10020D3
:1041700023180A5C83F834200A5C12B1401C102812
:10418000F6D384F8435001E084F83450072E00D36E
:104190000626E662C4E91165201D00F06EF904F1FF
:1041A000180000F06AF92461C6F107006462A0619A
:1041B000E56484F8505052464946384600F0EAF823
:1041C0002060B8F1000F01D0C8F80040BDE8F087CA
:1041D00030B5114900E011460A688242FBD34B68B2
:1041E0005C18844203D1406818444860084643681C
:1041F0001C18944209D1084C103C2468A24209D0F2
:1042000052681A4442600A6812680260814200D013
:10421000086030BD0460F9E7A0000020064841684E
:10422000096829B14168C968C9684968016370476C
:104230004FF0FF31FAE7000054000020F0B50268AB
:1042400000232AB3426800F1080552684260AA427E
:1042500001D1546844604268D6684268526842603E
:10426000AA4201D1546844604268D4680022A71869
:1042700011F802C097F83470BC4503D127B1521C25
:10428000102AF4D323B901E02346FBE7B442E4D17A
:104290001846F0BD08484068401C4FF0500080F3BD
:1042A000118804D0BFF34F8FBFF36F8FFEE7BFF3CA
:1042B0004F8FBFF36F8FFEE7A80000202DE9F0417C
:1042C0000546002700F054FA314E306808B9FFF770
:1042D000DDFEF06805424BD1C5B3083568070ED046
:1042E00005F00700C0F108000544680707D050201A
:1042F00080F31188BFF34F8FBFF36F8FFEE72DB3AD
:104300007068854234D82248103001460C6801E0BC
:1043100020460C466168A94202D221680029F7D1E3
:1043200031688C4224D007682168016060680837D2
:10433000411B10290FD96019420708D0502080F383
:104340001188BFF34F8FBFF36F8FFEE710E041601E
:104350006560FFF73DFF61687068401A7060B26881
:10436000904200D2B060F06801430020C4E900012F
:1043700000F0D0FB780707D0502080F31188BFF3FE
:104380004F8FBFF36F8FFEE73846BDE8F081000026
:104390009000002010B5031F4FF080741C601B1F9D
:1043A00021F001011960191F044B0B6014390A60D8
:1043B000091F6FF0020244380A6010BD95420008E0
:1043C00070B50C46064600F07FF8154D2868C06CA5
:1043D00080B92968012081F850005CB10121204694
:1043E000FFF79AFD0F494FF080500860BFF34F8FE1
:1043F000BFF36F8F00F088F800F066F82868C46C8F
:10440000002034B116B12968C86402E02A68611E30
:10441000D164296881F8500000F076F8204670BD1C
:104420005400002004ED00E0D0E9013201699A60F7
:10443000D0E901235A604A68824201D182684A6009
:10444000002202610868401E08600868704700008A
:10445000034B036003F15400086080201060704734
:104460001801002000F108014FF0FF32C0E90112ED
:10447000C160016100210160704700210161704746
:1044800030B50B685A1C02D000F1080202E0026944
:1044900004E02246546825689D42FAD953684B606F
:1044A00099608A60516008610168491C016030BDF3
:1044B00042684A6093688B609368596091600861B4
:1044C0000168491C01607047502080F31188BFF3D8
:1044D0004F8FBFF36F8F0A494868401C486001281E
:1044E0000CD10848006810F0FF0F07D0502080F36F
:1044F0001188BFF34F8FBFF36F8FFEE77047000047
:10450000A800002004ED00E00849486828B1401EDA
:10451000486001D180F311887047502080F31188E2
:10452000BFF34F8FBFF36F8FFEE70000A80000209E
:1045300070B5002827D0144DA0F108046168E86820
:10454000014207D1502080F31188BFF34F8FBFF392
:104550006F8FFEE722683AB1502080F31188BFF3D5
:104560004F8FBFF36F8FFEE78143616000F000F96A
:1045700060686968084468602046FFF729FEBDE866
:10458000704000F0C7BA70BD900000204FF0E020EE
:1045900000210161816105494FF47A720968B1FB1C
:1045A000F2F1491E4161072101617047500000206E
:1045B00010B5FBF76FFE114910280ED300F1E02073
:1045C00090F8F0030A78904207D2502080F31188C7
:1045D000BFF34F8FBFF36F8FFEE70948006889680C
:1045E00000F4E060884207D9502080F31188BFF3BF
:1045F0004F8FBFF36F8FFEE710BD0000A8000020B3
:104600000CED00E010B5020014D00F48806B38B1FB
:10461000502080F31188BFF34F8FBFF36F8FFEE7F9
:1046200000F0A6F800211046FFF776FC00F072FAC1
:10463000002807D105494FF080500860BFF34F8F25
:10464000BFF36F8F10BD00005400002004ED00E0A8
:104650002DE9F0418846040015D0FFF7A9FF50204E
:10466000EFF3118680F31188BFF34F8FBFF36F8F85
:1046700094F85000022184F85010E16C491CE16468
:10468000012808D025E0502080F31188BFF34F8F18
:10469000BFF36F8FFEE7A06A38B1502080F3118816
:1046A000BFF34F8FBFF36F8FFEE7144DA86B012749
:1046B00098B104F118011248FFF7FAFEE06A296880
:1046C000C96A884205D9B8F1000F01D0C8F8007056
:1046D0006F6286F31188BDE8F081201DFFF7A4FE0C
:1046E000E16AAA6907FA01F01043A86101EB8100B1
:1046F0000349B43901EB8000211DDDE7540000209F
:104700008009002010B586B00024039405AA04A9EE
:1047100003A80494FFF79CFEDDE903010094CDE9B2
:10472000011000230EA11048059A00F014F90F495A
:104730000028486311D0502080F31188BFF34F8FB9
:10474000BFF36F8F4FF0FF3008630120C8614C61E9
:1047500006B0BDE8104000F041B806B010BD000042
:1047600049444C4500000000D94000085400002096
:104770000248816B491C816370470000540000208F
:104780001448816B11B101214162704700214162DF
:104790008169B1FA81F1C1F11F0101EB81020E497A
:1047A00051F822306BB101EB820101F108034A6834
:1047B00052684A609A4201D152684A60D1680160E9
:1047C0007047502080F31188BFF34F8FBFF36F8F76
:1047D000FEE7000054000020CC0800201CB537483C
:1047E0000168374A914207D1502080F31188BFF306
:1047F0004F8FBFF36F8FFEE700683149491E884233
:1048000007D1502080F31188BFF34F8FBFF36F8F14
:10481000FEE72C4908780190FF20087008788DF891
:1048200000009DF800009DF8002000F0F00090428C
:1048300007D0502080F31188BFF34F8FBFF36F8FE5
:10484000FEE79DF80000204B00F050001870072094
:10485000986005E09DF8002052008DF80020401E71
:104860009DF800201206F5D49860032807D0502048
:1048700080F31188BFF34F8FBFF36F8FFEE74FF4C4
:1048800040709860019808700C482030016841F42D
:1048900070010160016841F070410160FFF776FE30
:1048A00000205860FBF7BEFC0848016841F0404119
:1048B0000160FBF7A3FC00201CBD000000ED00E040
:1048C00071C20F4100E400E0A800002034EF00E0D6
:1048D00010B5502080F31188BFF34F8FBFF36F8F57
:1048E00000F0B4F818B104494FF08050086000207F
:1048F00080F3118810BD000004ED00E02DE9FF5F9A
:104900008346DDE90E87994616468A469000FFF7F2
:10491000D5FC05001CD05420FFF7D0FC040014D0B7
:104920000020256384F85100CDE90240CDE90087DD
:104930004B46324651465846FFF7FEFB2046FFF7EE
:1049400023FB012004B0BDE8F09F2846FFF7F0FDEF
:104950004FF0FF30F6E7F0B585B0DDE90B640A9D56
:10496000A6B1DCB1542700972663022684F8516073
:10497000002604AFCDE90246CDE90057FFF7DCFB86
:104980002046FFF701FB049805B0F0BD502080F3EE
:104990001188BFF34F8FBFF36F8FFEE7502080F376
:1049A0001188BFF34F8FBFF36F8FFEE72DE9F04102
:1049B00007460725FBF7D9FC102807D3502080F3C2
:1049C0001188BFF34F8FBFF36F8FFEE7FFF7D0FE65
:1049D000154E6D1E05EB850006EB80003946FFF78E
:1049E0002DFC04001BD1002DF3D1104D3946686811
:1049F000FFF724FC040012D13946A868FFF71EFC1B
:104A000004000CD108483946DC30FFF717FC0400DD
:104A100005D105483946C830FFF710FC044600F0C0
:104A200079F82046BDE8F081CC0800205400002031
:104A30000548C16919B1806B18B100207047012089
:104A40007047022070470000540000202DE9F0411B
:104A50002E4C0027A06B40B1206A401C2062606A87
:104A600000B101273846BDE8F0816669761C6661B1
:104A700013D16068006838B1502080F31188BFF30B
:104A80004F8FBFF36F8FFEE76068A1686160A06021
:104A9000A06A401CA062FFF7C1FB206BDFF87080AA
:104AA000864209D36068006880B16068C068C568E4
:104AB000686886420DD220632068C06A00EB8001DE
:104AC00058F821000128CAD90127C8E74FF0FF3064
:104AD000F1E7281DFFF7A8FCA86A18B105F1180036
:104AE000FFF7A2FCE86A0121A26981401143A1619C
:104AF00000EB800108EB8100291DFFF7D9FCE86A73
:104B00002168C96A8842CDD30127CBE75400002031
:104B1000CC0800202DE9F0472C4D00242746A86B37
:104B200038B1FFF7D1FCA86B401EA863A86B40B159
:104B300046E0502080F31188BFF34F8FBFF36F8F93
:104B4000FEE72969224E0120D1B3A6F1B4098046BF
:104B50003068E8B1F068C46804F11800FFF764FC3D
:104B6000201DFFF761FCE06AAA6908FA00F1114311
:104B7000A96100EB800109EB8100211DFFF798FC82
:104B8000E06A2968C96A8842E2D3C5F82480DFE771
:104B90000CB1FFF743FB2C6A44B14646FFF756FFC2
:104BA00000B16E62641EF9D100202862686A38B1D3
:104BB0000849012738070860BFF34F8FBFF36F8F95
:104BC000FFF7A2FC3846BDE8F08700005400002043
:104BD0008009002004ED00E0000048440AD7A33C0F
:104BE0000000A040384C0008793D0008000000009B
:104BF00000000000000200000000000000000000B3
:104C0000344C00083D3E0008000000000000000099
:104C10000002000000000000000000000006101666
:104C2000000610160000000000000000010203044E
:104C3000060708094C45440054454D505F494D5501
:104C400000000000644C000800000020B8000000D4
:104C5000623B00081C4D0008B800002008650000F9
:104C6000723B0008E7416B3A58A08B3A7D04017C07
:104C7000000240AB034100055308065804070F002B
:104C80000810820911000A15800B16000C18010D7E
:104C90000000000000000000000000000000000014
:104CA00000000000000000000100000010000000F3
:104CB000000000000024F4000000000000000000DC
:104CC00000000000000000000000000000000000E4
:104CD00000000000000000000000000000000000D4
:104CE00000000000000000000000000000000000C4
:104CF00000000000000000000000000000000000B4
:104D000000000000000000000000000000000000A3
:0C4D1000AAAAAAAA0000000000000000EF
:04000005080001C529
:00000001FF
