:020000040800F2
:10000000500D0020DD010008931F0008B119000801
:10001000911F0008C1080008B92A0008000000006C
:10002000000000000000000000000000A5270008FC
:10003000C308000800000000B5260008A727000834
:10004000F7010008F7010008F7010008F7010008B0
:10005000F7010008F7010008F7010008F7010008A0
:10006000F7010008F7010008F7010008F701000890
:10007000F7010008F7010008F7010008F701000880
:10008000F7010008F7010008F7010008F701000870
:10009000F7010008F7010008F7010008F701000860
:1000A000F7010008F7010008F7010008F701000850
:1000B000F7010008F7010008F7010008F701000840
:1000C000F7010008F7010008F7010008F701000830
:1000D000F7010008F7010008F7010008F701000820
:1000E000F7010008F7010008F7010008F701000810
:1000F000F7010008F7010008F7010008F701000800
:10010000F7010008F7010008F7010008F7010008EF
:10011000F7010008F7010008F7010008F7010008DF
:10012000F7010008F7010008F7010008F7010008CF
:10013000F70100080000000000000000F7010008BF
:10014000F7010008F7010008F7010008F7010008AF
:10015000F7010008F7010008F7010008F70100089F
:10016000F7010008F7010008F7010008F70100088F
:10017000F7010008F7010008F7010008000000007F
:1001800000000000F701000800000000000000006F
:10019000F70100080000000000000000F70100085F
:1001A000000000000000000000000000F70100084F
:1001B000F7010008F7010008F7010008F70100083F
:1001C000F7010008DFF810D000F064FA004800479B
:1001D00061340008AFF30080500D002006488047CE
:1001E00006480047FEE7FEE7FEE7FEE7FEE7FEE71C
:1001F000FEE7FEE7FEE7FEE735280008C501000838
:100200002DE9F05F0546002092469B46884606464B
:10021000814640241BE0284641464746224600F0DE
:1002200070F853465A46C01A914110D311461846E9
:10023000224600F057F82D1A67EB01084F46224678
:100240000120002100F04EF817EB00094E41201E5E
:10025000A4F10104DFDC484631462A464346BDE8A6
:10026000F09F40EA01039B0703D009E008C9121F71
:1002700008C0042AFAD203E011F8013B00F8013B60
:10028000521EF9D27047D2B201E000F8012B491E8C
:10029000FBD270470022F6E710B513460A46044623
:1002A0001946FFF7F0FF204610BD421C10F8011B55
:1002B0000029FBD1801A704730B50B46014600205B
:1002C0002022012409E021FA02F59D4205D303FA18
:1002D00002F5491B04FA02F52844151EA2F1010299
:1002E000F1DC30BD202A04DB203A00FA02F10020C4
:1002F00070479140C2F1200320FA03F31943904064
:100300007047202A04DB203A21FA02F000217047CE
:1003100021FA02F3D040C2F120029140084319466D
:1003200070472DE9FE4F804681EA0300C00F0C465E
:10033000009021F0004123F00045B8EB0200A941F4
:1003400005D24046214690461C460B46024623F005
:100350000040104347D0270DC7F30A00C3F30A51EA
:100360000290401A019040286BDAC3F3130040F466
:10037000801B0098924620B10023D2EB030A63EB66
:100380000B0B01985946C0F140025046FFF7AAFFF7
:1003900006460D4650465946019A00F08DF910EB7D
:1003A00008006141002487EA115284EAE7731A4386
:1003B00040D0009A62B3019A012A4FEA075215DC35
:1003C000001B61EB02014FF0004202EA0752CDE947
:1003D0000042001C41F5801132462B4600F08DF999
:1003E00003B0BDE8F08F40462146F9E7001B61EB02
:1003F0000201001C41F5801300185B412018A2F592
:10040000001747EB030140EAD570B6196D4111E0C2
:100410006D084FEA360645EAC0754FEA0752001BE1
:1004200061EB0201001C41F5801149084FEA3000E0
:100430000019514132462B4603B0BDE8F04F00F0A1
:100440004DB90098012240000023D0EB020263EB7B
:10045000E073009821464FEAE074B8EB000061EBCE
:100460000401E9E783F000435BE781F0004158E7CE
:100470002DE9FE4F81EA030404F0004421F000411D
:1004800000944FF0000B23F0004350EA01045ED0CB
:1004900052EA03045BD0C3F30A54C1F30A552C4457
:1004A000A4F2F3340194A0FB0254C1F3130141F40C
:1004B0008011C3F3130343F4801301FB024400FBD8
:1004C000034E840A970A44EA815447EA8357A4FBFF
:1004D000076802958D0A05FB07854FEA932C04FBFC
:1004E0000C542705029D4FEA065847EA1637B5EB2C
:1004F00008056EEB070C870E920E47EA811742EA59
:100500008312A7FB0201B6EB0B0164EB00042B0D79
:1005100043EA0C335E1844EB1C50DA465146E7FBC5
:100520000201C5F313044FEA0B3343EA14534FEAB5
:100530000432019C43EA0603A4F10C040294009CDB
:10054000CDE900B400F0D9F803B0BDE8F08F002089
:100550000146F9E72DE9F04D81EA030404F0004B70
:1005600021F0004514464FF0000A23F0004150EA04
:10057000050220D054EA01021DD0C5F30A570246F5
:10058000C5F31303C1F31300C1F30A5640F48015F9
:1005900043F48013A7EB0608101BD64608F2FD387B
:1005A00073EB050002D308F1010801E092185B41EA
:1005B000B8F1000F03DA00200146BDE8F08D0020FD
:1005C0004FF48011064684460EE0171B73EB0507B7
:1005D00005D3121B63EB050306434CEA010C4908E3
:1005E0004FEA300092185B4150EA0107EDD152EA20
:1005F000030012D082EA040083EA0501084305D013
:10060000101BAB4106D20122002306E000224FF06E
:10061000004302E06FF0010253101AEB06004CEBAE
:10062000085110EB0A0041EB0B01BDE8F04D00F062
:1006300055B8C1F30A52C1F3130140F2FF3341F43C
:1006400080119A4202DA00200146704740F233439B
:100650009A42A2F2334202DC5242FFF752BEFFF747
:1006600041BE000030B5041E71F1000404DB4FF000
:100670000044404264EB0101141E73F1000405DBE9
:100680001C464FF00043524263EB0403994208BFFB
:10069000904230BD064C074D06E0E06840F0010393
:1006A00094E8070098471034AC42F6D3FFF78EFD6C
:1006B000745D0108945D0108202A06DBCB17203AFF
:1006C00041FA02F043EAE07306E041FA02F3D04057
:1006D000C2F12002914008431946704710B5141E1C
:1006E00073F1000408DA401C41F1000192185B41EB
:1006F0001A4301D120F0010010BD2DE9F04D9246C2
:100700009B4611B1B1FA81F202E0B0FA80F22032D8
:100710009046FFF7E7FD04460F4640EA0A0041EA2B
:100720000B0153465A46084313D0114653EA0100C1
:1007300019D0C8F140025046FFF7E3FD05460E46CA
:10074000504659464246FFF7CDFD084305D00120EB
:1007500004E020463946BDE8F08D0020054346EA16
:10076000E0762C4337430A986305E40AA0EB0800BF
:100770000022FD0A44EA47540A3002D5002001460F
:10078000E9E7010510196941DDE9084500196941EA
:10079000BDE8F04DA2E70000464910B54A6822F4D2
:1007A00040324A604A6843681A434A6001684A68AE
:1007B00022F480724A6001684A68036942EA0322AF
:1007C0004A6001684A6822F040724A6001684A68DB
:1007D00083681A434A6001688A6822F400628A606A
:1007E00001688A68C3681A438A60816A6FF0706220
:1007F000D14201688A6822F070628A6001688A6862
:100800000CD0836A1A438A6001688A6822F04052D9
:100810008A6001688A68C36A1A4301E022F0405284
:100820008A6001688A6822F002028A6001688A6828
:10083000037E42EA43028A6090F820100029016892
:100840004A680FD042F400624A6001684A6822F4A4
:1008500060424A6001684A68174C436A04EB4333BC
:100860001A4301E022F400624A600168CA6A22F475
:100870007002CA620168CA6A838B104C04EB03538E
:100880001A43CA6201688A6822F400728A600168A9
:100890008A6890F8303042EA43228A6001688A68A8
:1008A00022F480628A6001688A68406942EA802096
:1008B000886010BD0023014000E0FFFF0000F0FF52
:1008C000FEE770477047000078B50024009490F868
:1008D0003C20012A19D0012280F83C200A68072315
:1008E0000568092A13D9EE680A3A02EB42029340DE
:1008F0009E43EE600B788A680A3B03EB43039A4001
:100900000368DD682A43DA6010E0022078BD2E69B2
:1009100002EB420293409E432E610B788A6803EB00
:1009200043039A4003681D692A431A614A681F23DA
:10093000072A13D205686E6B521E02EB82029340A7
:100940009E436E630A8893B20A79521E02EB8202BA
:1009500093400268556B2B43536327E005680D2ACB
:1009600012D22E6BD21F02EB820293409E432E6363
:100970000B790A88DB1F92B203EB83039A4003686A
:100980001D6B2A431A6311E0EE6A0D3A02EB8202F4
:1009900093409E43EE620B790A880D3B92B203EBC3
:1009A00083039A400368DD6A2A43DA621B4B0568B9
:1009B000194A9D420AD10D68122D07D1556825F4B8
:1009C00000055560556845F48005556005689D42F1
:1009D0001DD1134D0B68AB4201D0112B17D15368B9
:1009E00023F480035360536843F4000353600968A1
:1009F000A9420CD10B490C4A0968B1FBF2F101EB99
:100A00008101490000E0491E00910029FBD180F8D6
:100A10003C40002078BD0000002301400020014040
:100A2000120000101C00002040420F000068C06C43
:100A3000704770B504004FF0000503D0206C00260D
:100A400010B107E0012070BD204600F01DF866647B
:100A500084F83C60206CC00610D4206C20F48850D0
:100A600040F0020020642046FFF796FE6664206C8A
:100A700020F0020040F00100206400E0012584F82D
:100A80003C60284670BD000010B586B004461421B5
:100A90006846FFF7FFFB1149206888421CD11048C7
:100AA0000021026842F400720260006800F40070E5
:100AB00005900B481438026842F001020260006899
:100AC00000F001000590022000900320CDE9010113
:100AD0006946044800F0E2F806B010BD002101406C
:100AE00044380240000002402DE9F041044600680D
:100AF0000D4681684FF0000749050BD58068C00599
:100B000008D5206C40F02000206484F83C7001205F
:100B1000BDE8F08100F09CF906460FE0681C0DD09E
:100B200025B100F095F9801BA84207D9206C40F050
:100B30000400206484F83C700320E9E72068006822
:100B40008007EBD521686FF012000860206C40F43C
:100B5000007020642068816811F0405F13D1217E0D
:100B600089B9C16A11F4700F02D0806840050AD4B7
:100B7000206C20F480702064206CC00403D4206CAE
:100B800040F0010020640020C2E7000018B50021F9
:100B9000009190F83C20012A07D0012280F83C20E7
:100BA00002689368DB0702D011E0022018BD936849
:100BB00043F0010393602A4A2A4B1268B2FBF3F216
:100BC00002EB420200E0521E0092002AFBD10268B2
:100BD0009368DB0741D0036C40F20164A34343F404
:100BE0008073036453685B0505D5036C23F40053DD
:100BF00043F480530364036CDB0404D5436C23F09B
:100C00000603436400E0416480F83C1016496FF02D
:100C10002203136049680068CA06144906D0884256
:100C20001BD1816811F0405F13D016E08842F8D0E4
:100C30000F4A904203D1D1F80423D206F1D00D4AD5
:100C400090420AD1D1F8041301F01F011029E8D312
:100C500003E0816841F080418160002018BD000000
:100C60001C00002040420F000023014000200140F2
:100C7000002101400022014070B5044600F0E8F870
:100C80000546601C02D004480078044400F0E0F8F7
:100C9000401BA042FAD370BD100000202DE9F84F90
:100CA00000224FF0010803254FF00F0E0B6808FAE1
:100CB00002F42340A3426ED14E68012E05D0022ECD
:100CC00003D0112E01D0122E12D186684FEA420CA9
:100CD00005FA0CF7BE43CF6807FA0CF73743876075
:100CE0004668A6430C79C4F300149440344344602E
:100CF000C668570005FA07FC8C6826EA0C06BC405B
:100D00003443C4604C68022C01D0122C13D1D40897
:100D100000EB8404A346D4F8209054074FEAD46A29
:100D20000EFA0AF629EA06090E6906FA0AF646EAF2
:100D30000906CBF8206006680C7926EA0C0604F058
:100D40000304BC40344304604C68E40060D5334C79
:100D5000266846F480462660246822F0030604F4E0
:100D6000804400942E4C3444A446D4F80848960796
:100D7000370F0EFA07F6B4432A4EB04201D10026CF
:100D80001FE0294EB04201D101261AE0274EB042A1
:100D900002D1022615E03BE0254EB04201D10326E8
:100DA0000FE0244EB04201D104260AE0224EB042A8
:100DB00001D1052605E0214EB04201D1062600E012
:100DC0000726BE402643CCF808681D4E34684F689D
:100DD0009C43FF0300D51C433460194E361D346814
:100DE0004F689C43BF0300D51C433460144E083643
:100DF00034684F689C43FF0200D51C433460104E9A
:100E00000C3634684F689C43BF0200D51C433460E5
:100E1000521C102AFFF44AAFBDE8F88F4438024054
:100E2000003001400000024000040240000802407F
:100E3000000C024000100240001402400018024062
:100E4000003C01400AB1816170470904FBE70000E2
:100E50000148806870470000100000200248816847
:100E60000278114481607047100000200B4810B5D3
:100E7000016841F400710160016841F48061016022
:100E8000016841F480710160032000F061F80020E6
:100E900000F006F800F024F8002010BD003C0240ED
:100EA00070B50D4D04464FF47A712878B1FBF0F01F
:100EB0000A490968B1FBF0F000F010FC48B9102CA9
:100EC00007D200222146501E00F022F800206C605C
:100ED00070BD012070BD0000100000201C0000202B
:100EE0000A4808B5016841F480410160006800F4D7
:100EF000804000900548001F016841F0805101606A
:100F0000006800F08050009008BD000044380240A6
:100F1000F0B40E4B1B680C46C3F30223C3F1070564
:100F2000042D00D90425191D072901D2002300E052
:100F3000DB1E012606FA05F1491E214099409E401C
:100F4000761E16403143F0BC01F0CCBD0CED00E044
:100F5000064900F0070208684FF6FF03184040EA10
:100F60000220034A10430860704700000CED00E0C7
:100F70000000FA052DE9F0470E46050065D0DFF8C0
:100F80001481D8F80000F7B200F00F00B04207D289
:100F900088F80070D8F8000000F00F00B04254D17B
:100FA00028683D4C810712D5400703D5206840F4DE
:100FB000E05020602878000703D5206840F46040A6
:100FC00020602068A96820F0F0000843206028789D
:100FD000C0072DD0304968680839012812D002288E
:100FE00013D0032811D00968890700292DDA216858
:100FF00021F0030101432160FFF72AFF814641F2FE
:10100000883A0EE009688903EFE709688901ECE78F
:10101000FFF71EFFA0EB0901514502D90320BDE8EF
:10102000F0872068696800F00C00B0EB810FEFD109
:10103000D8F80010404601F00F01B14207D90770FF
:10104000006800F00F00B04201D00120E7E72878E7
:10105000400705D52068E96820F4E0500843206087
:101060002878000706D52068296920F4604040EA06
:10107000C100206000F018F82168084AC1F303118C
:10108000515CC8400649086006480068FFF708FF41
:101090000020C4E7003C024008380240B42C01089C
:1010A0001C00002014000020224810B5006810F039
:1010B0000C02214815D02149042A11D01D4C241FAF
:1010C000082A0FD00C2A0CD12268236802F03F02B4
:1010D0005B0221D52068C0F38810A0FB010120E04D
:1010E000084610BD2268236802F03F025B0205D566
:1010F0002068C0F38810A0FB010104E02168C1F35F
:101100008811A1FB00010023FFF77AF82168C1F3E1
:101110000141491C49000AE02168C1F38811A1FB83
:1011200000010023FFF76CF82168C1F30271B0FBE6
:10113000F1F010BD083802400024F400001BB70095
:101140002DE9F84F0546DFF828B30078ABF1040726
:10115000C007A7F1040451D0DBF800105846C1F3D2
:10116000810101290FD00168C1F38101022902D157
:101170003968490207D40068C0F38100032809D107
:101180003868400206D52068800337D56868002893
:1011900072D033E06868B0F5803F10D0B0F5A02F72
:1011A000206810D020F480302060206820F4802057
:1011B00020606868A8B1FFF74BFE06460DE0206886
:1011C00040F48030F4E740F480202060F7E700BF6F
:1011D000FFF73EFE801B642878D820688003F7D58F
:1011E0000CE0FFF735FE064605E000BFFFF730FED6
:1011F000801B6428F0D820688003F7D42878DFF8B3
:10120000749280074FF0000A46D5DBF8001058466C
:1012100011F00C0F0FD00168C1F38101022902D136
:101220003968490207D50068C0F38100032809D155
:101230003868400206D42068800715D5E868012880
:101240001AD111E0E868C0B10120C9F80000FFF729
:10125000FFFD064605E000BFFFF7FAFD801B0228F0
:10126000BAD820688007F7D52068296920F0F800EF
:1012700040EAC10020600FE0F7E0C9F800A0FFF7E6
:10128000E7FD064605E000BFFFF7E2FD801B0228F0
:101290001CD820688007F7D42878000727D5DFF806
:1012A000D0817548696908F16C0881B1012101603C
:1012B000FFF7CEFD064604E0FFF7CAFD801B0228BB
:1012C00004D8D8F800008007F6D510E089E0C0F80F
:1012D00000A0FFF7BDFD064605E000BFFFF7B8FD23
:1012E000801B02287DD8D8F800008007F6D4287823
:1012F000400769D55E484FF0000838300068C000EC
:101300000BD45B483830016841F0805101600068BF
:101310004FF0010800F080500090584E3068C00532
:1013200011D4306840F480703060FFF791FD009078
:1013300006E000BFFFF78CFD0099401A022850D844
:101340003068C005F6D54A4EA868683601280FD027
:101350000528306810D020F001003060306820F09F
:1013600004003060A868B8B1FFF772FD00900FE08C
:10137000306840F00100F4E740F004003060F7E727
:10138000FFF766FD0099411A41F28830814264D826
:1013900030688007F4D50EE0FFF75AFD009007E0B3
:1013A000FFF756FD0099411A41F28830814254D826
:1013B00030688007F4D4B8F1000F05D02C483830DD
:1013C000016821F080510160A869A8B3DBF8001022
:1013D000C1F38101022948D00228C9F860A005D0D4
:1013E00000E03AE0FFF734FD054639E0FFF730FD55
:1013F000064604E0FFF72CFD801B02282DD820684C
:101400008001F7D4F5E907010843E9681C4A490857
:1014100002EB0141AA6841EA82110843297C40EAB3
:101420000160297D40EA017038600120C9F8600040
:10143000FFF70EFD054606E015E000BFFFF708FDCB
:10144000401B022809D820688001F7D50BE000BFB7
:10145000FFF7FEFC401B022802D90320BDE8F88FED
:1014600020688001F4D40020F8E70120F6E70000AE
:101470000838024000004742800E4742007000409A
:101480000000FFFF70B5040005D00025A56294F8A8
:10149000510010B106E0012070BD84F85050204684
:1014A00000F030F8022084F851002068016821F033
:1014B00040010160D4E901010843D4E9031211435A
:1014C000084361690843218B01F400710843E16915
:1014D0000843216A0843A16A084321680860A0699B
:1014E000042101EA1040616A0843216848602068CD
:1014F000C16921F40061C1616565012084F8510072
:10150000002070BD30B587B0044614216846FEF750
:10151000C1FE18492068884229D117480024016873
:1015200041F480510160006800F480500590124839
:101530001438016841F00101016000680F4D00F0AE
:1015400001000590B020009002200190012002903F
:1015500003900520049069462846FFF79FFB402032
:10156000CDE90004694628460294FFF797FB07B0CF
:1015700030BD00000030014044380240000002400D
:101580002DE9F84F044690F8500000271D461646F6
:10159000894601280DD04FF0010B84F850B0FFF7B9
:1015A00057FC804694F85100BA46012804D002271F
:1015B0008EE00220BDE8F88FB9F1000F7DD0002E3B
:1015C0007BD0032084F85100C4F854A0C4F83090B4
:1015D000A686E686C4F838A0A4F83CA0A4F83EA0ED
:1015E000C4F844A0C4F840A0A068B0F5004F04D1EE
:1015F0002068016841F48041016020680168490663
:1016000003D4016841F040010160E068B0F5006F6B
:10161000606803D030B3012E24D040E008B1012E21
:101620001CD1206B21680088C86006E020688168B2
:10163000890709D5216B0988C160206B801C206354
:10164000E08E401EE08609E0FFF702FCA0EB0800F8
:10165000A84202D3681C01D031E07DB3E08E00289F
:10166000E4D11FE0206B21680078087306E0206851
:101670008168890709D5216B09780173206B401CAB
:101680002063E08E401EE08609E0FFF7E1FBA0EB5F
:101690000800A84202D3681C01D010E075B1E08EAA
:1016A0000028E4D142462946204601F005F808B159
:1016B00020206065A06820B107E008E0FFE703276D
:1016C00006E02068C16880680090606D00B1012765
:1016D00084F851B084F850A038466BE710B5401E2E
:1016E000B0F1807F01D3012010BD4FF0E024606194
:1016F0000F21601701F0F6F90020A061072020619A
:10170000002010BD10B590F83C20012A22D0012203
:1017100080F83C20CA688C6822F4407222434C68EE
:1017200022F4806222430C6822F4006222430C6996
:1017300022F4805222434C6922F400522243C969A8
:10174000002322F480420A4301684A6480F83C3056
:10175000002010BD022010BD70B590F83C20012A79
:1017600032D0012480F83C40022280F83D200368FA
:101770005A689D6822F070060A6832435A60134B1B
:1017800002689A4214D0B2F1804F11D0104B9A42A5
:101790000ED0104B9A420BD00F4B9A4208D00F4BF1
:1017A0009A4205D00E4B9A4202D00E4B9A4204D177
:1017B000496825F080031943916080F83D4000217D
:1017C00080F83C10084670BD022070BD000001404A
:1017D0000004004000080040000C004000040140EC
:1017E000004001400018004010B586B004461421A6
:1017F0006846FEF74FFD0E492068884215D10D4816
:10180000016841F0010101600068012100F0010060
:1018100005904FF4807000900220CDE90101CDE9E0
:10182000030169460448FFF739FA06B010BD00000D
:1018300000000140303802400000024070B504460C
:1018400090F83C000D4601280DD0012684F83C603C
:10185000022084F83D0042B1042A18D0082A2AD078
:101860000C2A4DD139E0022070BD206801F062F8E9
:101870002068816941F0080181612068816921F057
:1018800004018161206881692A69114311E020689F
:1018900001F080F82068816941F40061816120686D
:1018A000816921F480618161206881692A6941EA46
:1018B0000221816124E0206801F0A2F82068C1695A
:1018C00041F00801C1612068C16921F00401C161D2
:1018D0002068C1692A69114311E0206801F0C4F849
:1018E0002068C16941F40061C1612068C16921F4C7
:1018F0008061C1612068C1692A6941EA0221C16130
:1019000084F83D60002084F83C0070BD10B50400F0
:1019100003D094F83D0010B107E0012010BD002075
:1019200084F83C00204600F00DF8022084F83D00C9
:10193000211D206800F08CFF012084F83D0000206C
:1019400010BD000008B500680649884208D1064865
:10195000016841F001010160006800F001000090A1
:1019600008BD0000000001404438024010B50446A4
:101970000068012200F0D0FF0B492068884202D0A5
:101980000A49884203D1416C41F400414164206816
:10199000816801F00701062903D0016841F00101C7
:1019A0000160002010BD0000000001400004014063
:1019B000FEE72DE9F0410746002140F21713EF2220
:1019C000084600F08DF900254FF48C760024384647
:1019D00000F0A6F9641CA4B2B442F8D36D1CADB2F9
:1019E000F02DF3D3BDE8F08110B514460B46024646
:1019F00000F076F92046BDE8104000F091B90000F3
:101A000010B50E4C012210212046FFF71BFA64206E
:101A1000FFF732F9002210212046FFF713FA642065
:101A2000FFF72AF9012210212046FFF70BFA642064
:101A3000FFF722F9BDE8104000F002B800040240B0
:101A400010B5362000F096F9002000F081F93A2018
:101A500000F090F9052000F07BF9B22000F08AF93F
:101A60000C2000F075F90C2000F072F9002000F055
:101A70006FF9332000F06CF9332000F069F9B720DA
:101A800000F066F9752000F063F9B72000F072F9F4
:101A9000352000F05DF9BB2000F06CF93B2000F030
:101AA00057F9C02000F066F92C2000F051F9C2204F
:101AB00000F060F9012000F04BF9C32000F05AF962
:101AC000162000F045F9C42000F054F9202000F061
:101AD0003FF9C62000F04EF90F2000F039F9D02070
:101AE00000F048F9A42000F033F9A12000F030F90B
:101AF000E02000F03FF9D02000F02AF9042000F0A7
:101B000027F90D2000F024F9112000F021F913200D
:101B100000F01EF92B2000F01BF93F2000F018F90F
:101B2000542000F015F94C2000F012F9182000F0B4
:101B30000FF90D2000F00CF90B2000F009F91F201F
:101B400000F006F9232000F003F9E12000F012F97B
:101B5000D02000F0FDF8042000F0FAF80C2000F08E
:101B6000F7F8112000F0F4F8132000F0F1F82C2021
:101B700000F0EEF83F2000F0EBF8442000F0E8F829
:101B8000512000F0E5F82F2000F0E2F81F2000F0CF
:101B9000DFF81F2000F0DCF8202000F0D9F8232027
:101BA00000F0D6F82A2000F0E5F8002000F0D0F888
:101BB000002000F0CDF8002000F0CAF8EF2000F07F
:101BC000C7F82B2000F0D6F8002000F0C1F8002064
:101BD00000F0BEF8002000F0BBF8EF2000F0B8F8ED
:101BE000212000F0C7F8112000F0C4F81E20FFF7F4
:101BF00043F8BDE81040292000F0BCB80149486313
:101C000070470000000001407CB500212648FFF726
:101C1000ADFE4FF46170FFF7F1FF0020FFF7F0FE1B
:101C20004FF6FF74234600224FF4AA71F02000F013
:101C3000D3FC1E4800F0E6FC1D4800F0E9FC2046FD
:101C4000FFF7B7FE4FF478414FF6E070CDE90001A1
:101C5000184B19A200211E2000F086FC60101F25E1
:101C6000CDE90050134B15A222211E2000F07CFC70
:101C70000020CDE90040124B03229FED120B3A21C8
:101C80001E2000F0E3F9114B11A21E216420CDE9C2
:101C9000004500F09DFBB0200090B4236422142185
:101CA0000E4800F017FA7CBD0C010020B3190008A3
:101CB000E919000828000020313233004142430076
:101CC00020000020B000A60C3CDD8E40300000203B
:101CD000B4EFC3EEBFC6BCBC000000003435000842
:101CE0002DE9F04106461C4617460D462A2000F015
:101CF00041F8304600F014F8384600F011F82B2077
:101D000000F038F81435A8B200F00AF81434A0B284
:101D100000F006F8BDE8F0412C2000F02BB80000E0
:101D200038B50446012202210748FFF78BF8200A44
:101D30008DF800008DF801406423022269460348B3
:101D4000FFF71EFC38BD000000080240B400002070
:101D500001B5012202210548FFF774F8642301222E
:101D600069460348FFF70CFC08BD0000000802406C
:101D7000B400002001B5002202210548FFF762F8F7
:101D80006423012269460348FFF7FAFB08BD0000FF
:101D900000080240B40000207FB5002415480094DC
:101DA000019402941249039401604FF48031C0E918
:101DB00001140461047680F820400F49C0E90A1438
:101DC0000125C561C46080F830404561FEF731FEF1
:101DD00008B1FEF777FD0095CDE901546946054845
:101DE000FEF772FD002801D0FEF76CFD7FBD0000FC
:101DF000002101406C0000200100000FF0B587B009
:101E000014216846FEF746FA25480025016841F08E
:101E100080010160016801F080010591016841F0D5
:101E200004010160016801F004010591016841F0BD
:101E300001010160016801F001010591016841F0B3
:101E4000020101600068174E00F0020005900022B8
:101E500003213046FEF7F6FF134F002210213846CB
:101E6000FEF7F0FF01240094CDE9014569463046B4
:101E70000395FEF713FF0225CDE90054694630466D
:101E8000CDE90245FEF70AFF1020CDE900046946BE
:101E90003846CDE90245FEF701FF07B0F0BD00006E
:101EA0003038024000080240000402400F4810B5DC
:101EB0000D4901604FF4827141600021022281606E
:101EC000C0E903125204C0E90512C1610162416216
:101ED00081620A21C162FFF7D5FA002803D0BDE86C
:101EE0001040FEF7EFBC10BD00300140B4000020F0
:101EF00010B592B000240F941C2108A81094FEF78E
:101F0000C9F920216846FEF7C5F920481E49C0E9F5
:101F1000001440F2E731C0E9024180210461C0E9C8
:101F20000541FFF7F3FC08B1FEF7CCFC0F940FA9B5
:101F300016481094FFF710FC08B1FEF7C3FC6020B0
:101F4000CDE908040A940B940C940D94002208A97E
:101F50000E480E94FFF772FC08B1FEF7B3FC009434
:101F60004FF40050CDE90440029401940394694673
:101F700006480794FFF7C6FB08B1FEF7A3FC034829
:101F8000FFF732FC12B010BD000001400C01002030
:101F9000FEE770472DE9F05F81462B481E46DDF8CD
:101FA00028B0838888464B454CD3C188414549D3E6
:101FB000B088410700D0012101EBD000203A10FB8E
:101FC00002F0F1884FF0800A484331680F1800256D
:101FD00035E000242AE000BFABF57F41FF3907D090
:101FE000387804F007022AFA02F1084207D10EE01D
:101FF000397804F007022AFA02F0014210D008EB07
:10200000050081B209EB040080B20B9A06E008EBF0
:10201000050081B209EB040080B25A4600F0FEFAD6
:10202000E043400700D17F1C641CA4B2B088A042EA
:10203000D2D83079400700D07F1C6D1CADB2F0883B
:10204000A842C6D8BDE8F09F440000202DE9F04723
:10205000C2B08946DDE94A65824698468DED000B9F
:102060001AA102A8921C00F029FD02A8FEF71DF992
:1020700001F02AFA044602A8FEF717F9821E02A907
:102080002046FEF7EEF802A8FEF70FF920440027DD
:1020900000F8017C02A8FEF708F9204410F8030CB0
:1020A0002E2805D102A8FEF700F9204400F8037C91
:1020B000CDE90056434622464946504600F054FAC0
:1020C000204601F079F942B0BDE8F087252E2A6C50
:1020D000660000002DE9FF5F1E468A460024DFF8F7
:1020E0005090DDF838801EE002980025071900990D
:1020F00004FB06F001EB400B12E000BFB9F808103A
:102100000AEB050348468B4209DA4089874206DA22
:102110000BEB4500B9B2028898B200F07FFA6D1C53
:10212000B542EBDB641C4445DEDBBDE8FF9F0000ED
:10213000440000202DE9FE4F16462F4A1D46938885
:10214000834257D3D3888B4254D39388B34251D31D
:10215000D288AA424ED383468A46321A00D5821BC1
:1021600091466A1A002A00DD4A1B90464FF0FF3262
:10217000B34501D2012000E010460290AA4500D2EA
:10218000012209EB0804002701927F1C0E98FFB280
:10219000012805D10320B7FBF0F100FB1170F0B16D
:1021A0000120DDE90C2300905146584600F06CF800
:1021B000B8EB440F07DCB3451CD0029944440BEB49
:1021C00001001FFA80FBB9EB440FDEDBAA4511D0FA
:1021D00001994C440AEB01001FFA80FAD5E701206F
:1021E00000904FF6FF72514658460D9B00F04CF898
:1021F0000027DDE7BDE8FE8F440000202DE9FF4FFA
:10220000ADF5037D8846DDE990BA814600244FF4A0
:10221000807715462646394642A8FEF73BF83946F0
:1022200002A8FEF737F8174842AA83884B4524D303
:10223000C188414521D30A210DF1080095FBF1F336
:1022400001FB135395FBF1F530330355641C24B2A5
:10225000002DF3D11146002C08DD031913F8013CC1
:102260008B55761C641E36B224B2F4E7CDE900BA71
:1022700041464846869B00F077F90DF5077DBDE89D
:10228000F08F0000440000202DE9F05F81462448D3
:102290001C46884683880A9993464B4527D3C288B3
:1022A000424524D3012901D0002635E00025681ECF
:1022B00000EB440719E009EB05000026A0EB040A37
:1022C0000FE000BFBAF1000F0DD408EB0600001BB1
:1022D00009D481B21FFA8AF05A4600F09FF9761CA1
:1022E00036B2B742EEDC6D1C2DB2AF42E3DCBDE886
:1022F000F09F002509EB06077F1E09E008EB0500AB
:10230000401E81B2B8B25A4600F088F96D1C2DB259
:10231000A542F3DB761C36B2A642EADBE7E7000013
:10232000440000202DE9FE4F824628480C461F46F7
:10233000DDE90D5183880C9E914653451BD3C2881D
:10234000A24218D383884A464B4514D3C088B8426A
:1023500011D30020804661B90FE0CDE90065234626
:102360004A4619465046CDF80880FFF7E3FE641C44
:10237000A4B2BC42F1D3BDE8FE8FCDE9006523468F
:1023800019465046CDF80880FFF7D4FECDE9006528
:1023900052463B4621461046CDF80880FFF7CAFE5C
:1023A000CDE900654A46234639461046CDF80880F7
:1023B000FFF7C0FECDE900653B4652461946484648
:1023C000CDF80880FFF7B6FED5E7000044000020F6
:1023D0002DE9F05F1D46904606468A46DDF828B096
:1023E000B9E07F294FF0000056D8AA884EE0532369
:1023F0002C68434314F813308B4246D15321484391
:10240000022101EB400004EB0009002739E0002421
:102410002EE000BFABF57F40FF384FEAE47004EBDD
:10242000507020F00700A4EB000299F800104FF064
:10243000800020FA02F001EA000101D009B907E0AA
:1024400071B10AEB070081B2301980B20B9A05E036
:102450000AEB070081B2301980B25A4600F0DEF86C
:10246000404804EA0001072901D109F10109641C6F
:102470002889A042CEDC287A400701D009F1010961
:102480007F1C6889B842C2DC02E0401C8242AEDC9C
:1024900008F10108E8885DE00127AA8855E0532388
:1024A0002C68434314F813C08C454DD107EB43030C
:1024B000E45C98F801309C4246D153214843022104
:1024C0002A6801EB400002EB0009002738E00024F5
:1024D0002DE000BFABF57F40FF384FEAE47004EB1E
:1024E000507020F00700A4EB000299F800104FF0A4
:1024F000800020FA02F001EA000101D009B907E0EA
:1025000071B10AEB070081B2301980B20B9A05E075
:102510000AEB070081B2301980B25A4600F07EF80B
:1025200010482040072801D109F10109641C2889BD
:10253000A042CFDC287A400701D009F101097F1CB5
:102540006889B842C3DC02E0401C8242A7DC2889CB
:1025500008F10208064498F8001000297FF441AF02
:10256000BDE8F09F070000802DE9FC5F8046194818
:1025700089460D468188DDF834B01E46174644462C
:10258000A14225D3C1888246A94221D31DE0B0884B
:10259000BAF8043001195046994203D9F1884446EB
:1025A00029448DB2F188C0882944814201D944462A
:1025B0004D460C99CDE9001B334629462046FFF7CE
:1025C000E9FCB0887F1C204484B23A78002ADED12E
:1025D000BDE8FC9F4400002010B5094C20816181BA
:1025E000A3816082A182E2810023238222B1B42AE6
:1025F00002D0A180E08010BDA080E18010BD00006D
:10260000440000200149486070470000000000209D
:1026100001490860704700000000002030B4044603
:1026200022488388A3423FD3C3888B423CD3C389CB
:10263000E3B15A2B1CD0B42B20D0B3F5877F33D114
:102640000B464189091B491E89B2048A0CB3012C2F
:102650001BD0022C05D0032C26D10489E31A5B1E63
:102660009BB24489611A491E89B212E02346ECE705
:102670000389591A491E8BB22146E6E703891B1BC1
:102680005B1E44899BB2611ADDE70489E31A5B1E75
:102690009BB204899C4207D34089884204D31846E0
:1026A000034B1B6830BC184730BC70474400002007
:1026B000000000207047000038B504461248134B54
:1026C0000068B0FBF3F04FF47A73584300906068F1
:1026D000B0F5827F0DD10B4600920022802120466A
:1026E00000F016F870B1606D40F0200060650320C6
:1026F00038BD009830B1401E009020688068C0430B
:102700000006F6D5002038BD1C00002000366E0102
:102710002DE9F0411D4617460E460446DDF81880A7
:1027200008E0681C06D0FEF793FBA0EB0800A84267
:102730000BD255B12068806836EA000030D0002006
:10274000B842EED10020BDE8F0812068416821F058
:10275000E00141606068B0F5827F0BD1A068B0F500
:10276000004F02D0B0F5806F04D12068016821F0DD
:1027700040010160A06AB0F5005F09D120680168DE
:1027800021F4005101602068016841F400510160AA
:10279000012084F85100002084F850000320D2E783
:1027A0000120CDE77047FEF759BB000030B593B06C
:1027B00034216846FDF76EFD14210DA8FDF76AFD72
:1027C0001A480025016841F080510160006800F05E
:1027D000805012901648016841F440410160006841
:1027E000022400F440401290012000900004019067
:1027F0008001CDE9064006200890A820CDE9090413
:102800000720CDE90B046846FEF79AFC0DA90F20BE
:1028100081E831004FF4A0501090E00211900521A2
:102820000DA8FEF7A7FB13B030BD000040380240F2
:10283000007000400548016841F4700101600349DF
:102840004FF00060803908607047000088ED00E0BC
:10285000F0B50268254C264D264E274F274B4FF0EA
:10286000804CA04209D0604507D0A84205D0B042B4
:1028700003D0B84201D0984204D122F0700E4A68C9
:1028800042EA0E02A0421BD0604519D0A84217D0E0
:10289000B04215D0B84213D0984211D0184DA8427A
:1028A0000ED0184DA8420BD0174DA84208D0174D96
:1028B000A84205D0164DA84202D0164DA84203D119
:1028C00022F44075CA682A434D6922F080022A43E7
:1028D00002608A68C2620A688262A04201D098429D
:1028E00001D10969016301214161F0BD000001408E
:1028F0000004004000080040000C004000040140BB
:1029000000400140004401400048014000180040E0
:10291000001C00400020004010B501F01F03012101
:10292000046A99408C430462016A9A40114301622F
:1029300010BD0000F0B5026A22F001020262036AD3
:1029400042688469124E24F073050C682C4323F00E
:1029500002058B682B430D4DA84201D0B04205D132
:1029600023F00807CB683B4323F00403A84201D0BF
:10297000B04205D14D6922F4407215438A692A4359
:1029800042608461496841630362F0BD0000014018
:1029900000040140F0B5026A22F010020262026AED
:1029A000436884690D6824F4E64444EA05248D688C
:1029B00022F0200242EA05120F4D104EA84201D02B
:1029C000B04206D1CF6822F0800242EA071222F01C
:1029D0004002A84201D0B04207D14D6923F44063C0
:1029E00043EA85038D6943EA85034360846149684E
:1029F00081630262F0BD000000000140000401405C
:102A0000F0B5026A22F480720262026A4368C46905
:102A100022F4007224F073050C68124E2C438D686A
:102A200042EA05220E4DA84201D0B04206D1CF683D
:102A300022F4006242EA072222F48062A84201D016
:102A4000B04207D14D6923F4405343EA05138D6921
:102A500043EA05134360C4614968C1630262F0BD83
:102A6000000001400004014030B5026A22F48052A7
:102A70000262046A4268C3690D6823F4E64343EACC
:102A800005238D6824F4005444EA0534084DA84217
:102A900002D0084DA84204D14D6922F4804242EA96
:102AA00085124260C36149680164046230BD000060
:102AB0000000014000040140FEE700000FB4084B95
:102AC00010B504A902AA039800F0EEF8044602A982
:102AD000002000F06CFC204610BC5DF814FB0000E8
:102AE000AF3300080907090E002804DB00F1E020DD
:102AF00080F80014704700F00F0000F1E02080F82B
:102B0000141D704702E008C8121F08C1002AFAD13C
:102B100070477047002001E001C1121F002AFBD15D
:102B2000704700002DE9FF5F82B00021DDE904302D
:102B3000020DDDF840B0034318D044F61050A2F265
:102B4000FF3242431514119801281FD0A5EB0B004A
:102B5000401C5FEA000A4FF000064E4FDFF8389144
:102B6000B046504615D5CAF1000413E0119801246F
:102B70004AA3012801D16FEA0B010298119AC0E91A
:102B80000031C0E9024206B0BDE8F09FCBF1000081
:102B9000DFE704460021404A491842EB0450CDE9E2
:102BA000001012E0E00707D032463B464046494657
:102BB000FDF75EFC8046894632463B461046194684
:102BC000FDF756FC06460F466410002CEAD1DDE9FD
:102BD0000401DDE90023BAF1000F06DAFDF748FC35
:102BE00042464B46FDF744FC05E0FDF7B3FC424688
:102BF0004B46FDF7AFFC04460E460022284BFDF77E
:102C000031FD03D84FF0FF30014607E00022254B8D
:102C100020463146FDF785FBFDF70BFD102409E04A
:102C2000002C0ADB0A220023FDF7EAFA039B30326C
:102C30001A55641E50EA0102F2D1641C039AC4F1D1
:102C400011031444119A012A03D0012208430DD123
:102C50000AE0084304D000204FF0110B119072E7F6
:102C6000A3EB0B056D1E0DE05B4504DD4FF000028C
:102C700005F1010504E003DA4FF00002A5F10105BA
:102C8000002AECD002981199C0E90231C0E9004550
:102C900079E70000000014400000F03F3000000021
:102CA0000000F0430000E03F2DE9FF4F95B09A4649
:102CB000884606460025EEE1252877D100242746E0
:102CC000F94A0121039400E0044316F8013F203B38
:102CD00001FA03F01042F7D130782A2811D06FF0B2
:102CE0002F033078A0F13002092A16D8039A44F055
:102CF000020402EB820203EB42021044761C0390B2
:102D0000EFE758F8042B0392002A03DA504244F408
:102D10000054039044F00204761C30782E2816D11B
:102D200016F8010F44F004042A280DD06FF02F028A
:102D30003078A0F13003092B09D807EB870302EBA9
:102D40004303C718761CF3E758F8047B761C3078E9
:102D50006C280FD006DC4C2817D068280DD06A28C4
:102D600014D104E0742810D07A280FD10DE044F477
:102D700000140AE044F4801401E044F44014727832
:102D8000824202D104F58014761C761C30786628C5
:102D90000BD013DC582877D009DC002875D04528E3
:102DA000F6D04628F4D047281AD193E118E06328DA
:102DB00035D0642879D0652812D18BE1702873D082
:102DC00008DC6728F1D069286FD06E280DD06F28F5
:102DD00006D1ACE073282CD0752874D0782853D055
:102DE0005246179990476D1C54E1C4F302500228D3
:102DF00009D003280DD0D8F8001004280DD00D609C
:102E000008F1040846E1D8F80010EA17C1E90052B9
:102E1000F6E7D8F800100D80F2E70D70F0E718F82B
:102E2000041B8DF8001000208DF80100EB460120F6
:102E300003E058F804BB4FF0FF3061074FF000018A
:102E400002D40DE009F101018946B9420FDA81454A
:102E5000F8DB1BF809100029F4D108E009F10101A1
:102E600089468142FADB1BF809100029F6D1039844
:102E70005346A0EB090721463846179A00F080FA1E
:102E8000284400EB090507E044E008E10DE01BF8E9
:102E9000010B524617999047B9F10109F7D25346F1
:102EA00021463846179AF2E039E00A21C4F302526B
:102EB0004FF0000B0091022A06D058F8040BC117FE
:102EC000032A09D00AE023E008F1070020F00702F6
:102ED000F2E80201904605E000B2C117042A01D1D0
:102EE00040B2C117002906DA0A460021404261EBD0
:102EF00002012D2202E0220504D52B228DF80420A8
:102F0000012203E0E20701D02022F7E7914657E0D3
:102F10000A2100E010214FF0000B00910BE010217E
:102F20004FF0000B44F004040827009103E0082050
:102F30004FF0000B0090C4F30252022A05D058F85B
:102F4000040B0021032A08D008E008F1070020F054
:102F50000702F2E80201904603E080B2042A00D1A1
:102F6000C0B24FF0000922072AD53278702A07D064
:102F7000DDF800C08CF0100C5CEA0B0C05D00EE004
:102F800040228DF80420012208E050EA010306D017
:102F900030238DF804308DF8052002229146009BE5
:102FA00083F0080353EA0B030AD150EA010201D16E
:102FB000620705D530228DF804204FF001097F1EED
:102FC0003278582A04D039A20C920CAA02920BE053
:102FD0003BA2F9E75B46009AFDF712F90C9B9B5C5C
:102FE000029A521E0292137050EA0102F2D1029824
:102FF00004A9081A00F1200B600702D524F48034DC
:1030000000E001275F4502DDA7EB0B0000E0002098
:1030100000EB0B01009003984944401A0390E00331
:1030200006D453462146179A039800F0A9F905449F
:10303000002706E001A85246C05D179990476D1C15
:103040007F1C4F45F6DBE0030CD553462146179A0B
:10305000039800F095F9054404E030205246179992
:1030600090476D1C0099481E00900029F5DC08E08F
:103070000298029952460078491C0291179990478C
:103080006D1CBBF10001ABF1010BF1DC5BE100F069
:1030900065F90544761C307800287FF40DAE19B030
:1030A0002846BDE8F08F0000092801003031323396
:1030B0003435363738396162636465660000000074
:1030C000303132333435363738394142434445465E
:1030D00000000000600700D4062708F1070020F078
:1030E0000700F0E80223804603F0004C5FEA0C0082
:1030F00001D097A009E0200501D596A005E0E007E2
:1031000001D095A001E0AFF24C001390307823F08D
:10311000004365280CD006DC452809D046281DD080
:1031200047287FD13BE0662818D067287AD136E05F
:103130000021112F01DB112000E0781CCDE90001F6
:1031400004A90CA8FFF7EEFCDDE90D010C9A4FF085
:10315000000B07F10109109200914EE04FF0004082
:103160000097CDE9011004A90CA8FFF7DBFCDDE90D
:103170000D020C9B0F994FF0000B9146109300929B
:1031800011B9791C00EB0109B7EB090003D4C0F1B8
:10319000FF3B07F10109A9EB0700019042E0012F75
:1031A00000DA01270021112F01DD112000E038464F
:1031B000CDE9000104A90CA8FFF7B4FCDDE90D017D
:1031C0000C9A00914FF0000BB946109221070FD4D2
:1031D000009A4A4503DA914601E0A9F10109B9F1E3
:1031E000010F05DD109AA9F10101515C3029F4D0DD
:1031F000B84202DA10F1040F03DA0121CDE901101F
:1032000010E0002803DC8344A9EB000102E0411C2C
:10321000494500DD8946A0EB0B00401C01904FF0B2
:1032200000400290200705D40198484502DB4FF08A
:10323000FF30019000208DF84B0002980DF14B07F4
:10324000B0F1004F25D002200C902B200D90029859
:1032500000280CDA404202902D200D9007E00A2150
:103260000298FDF729F83031029007F8011D0C99FA
:10327000481E0C900029F2DC02980028EFD1791E3C
:103280000D980870307800F0200040F0450007F8F5
:10329000020D11A8C01BC01D02901398007800B148
:1032A000012000EB0901019801EBE0710298014453
:1032B0000398401A401E0390E00306D4534621466B
:1032C000179A039800F05CF805441398007818B139
:1032D0005246179990476D1CE00323D5534621466B
:1032E000179A039800F04CF805441BE0BBF1000F5F
:1032F00007DB0098584504DD1098179910F80B006B
:1033000001E0179930205246904701980BF1010BCC
:10331000401E05F10105019004D12E205246179957
:1033200090476D1CB9F10001A9F10109DEDC05E04F
:1033300017F8010B5246179990476D1C0299481EC9
:1033400002900029F4DC53462146179A03989EE622
:103350002D0000002B000000200000002DE9F041AE
:10336000044600251E461746880404D405E0394665
:103370002020B0476D1C641EF9D52846BDE8F081B9
:103380002DE9F041044600251E469046C80301D5AC
:10339000302700E02027880404D505E04146384660
:1033A000B0476D1C641EF9D52846BDE8F0810A6857
:1033B000531C0B601070704710B5002821D0114BC2
:1033C0000022001F196803E0814203D80A464968B9
:1033D0000029F9D152B11368841A9C4204D10068C3
:1033E00018441060104602E0506000E0186039B1E7
:1033F00002680B1A934203D10B681A4402604968B1
:10340000416010BD3C00002010B513490120114C53
:1034100008604860042088602046FDF755FA204681
:10342000FDF7B4FB0A212046FDF75EFB2046FDF7C1
:10343000FDFA80B2094900EE100A0880B8EE400A91
:10344000D1ED010A20EE200AF2EE060A20EE200A53
:1034500010BD00006C0000205C000020080000206F
:103460000EB5FDF703FDFFF7A1F9FEF7C7FCFEF768
:1034700093FCFEF73DFDFEF719FDFEF7C5FB0027A7
:103480000F4C01264FF6FF75FFF7BEFF6420FDF7D6
:10349000F3FB618820888142F6D06080CDE9005638
:1034A00064233A2258211E200296FEF73BFFCDE905
:1034B0000057044B228858211E20FEF79FFEE3E7A9
:1034C0000800002020000020F0B50B30154D20F042
:1034D00007010024144A0FE003688B420BD38B4290
:1034E00005D95E1A43184768C3E9006700E04368DE
:1034F000136002C004E0021D10680028ECD12046D1
:10350000002802D1286808B10020F0BD064A07480B
:103510001060074A121A22F00702C0E900240120B5
:103520002860D7E7400000203C0000205401002024
:1035300050050020FFFFFFFFFFFFFFFFFFFFFFFF22
:10354000FFFFFFFFFFFFFFFFFFFFFFFFFFFFFFFF8B
:10355000FFFFFFFFFFFFFFFFFFFFFFFFFFFFFFFF7B
:10356000FFFFFFFFFFFFFFFFFFFFFFFFFFFFFFFF6B
:10357000FFFFFFFFFFFFFFFFFFFFFFFFFFFFFFFF5B
:104C9000FFFFFFFFFFFFFFFFDFFFBEFFDFFFDFFFC5
:104CA000BFFFFFFFFFFFFFFFFEFFFFFFFFFFFFFF55
:104CB000FFF7FFFFFFFFFFFFFFFFFFFFFFFFFFFF0C
:104CC000FFFFFFFFFFFFFFFFFFFFFFFFFFFFFFFFF4
:104CD000FFFFFFFFFFFFFFFFFFFFFFFFFFFFFFFFE4
:104CE000FFFFFFFFFFFFFFFFFFFFFFFFFFFFFFFFD4
:104CF000FFFFFFFFFFFFFFFFFFFFFFFFFFFFFFFFC4
:104D0000FFFFFFFFFFFFFFFFFFFFFFFFFFFFFFFFB3
:104D1000FFFFFFFFFFFFFFFFFFFFFFFFFFFFFFFFA3
:104D2000FFFFFFFFFFFFFFFFFFFFFFFFFFFFFFFF93
:104D3000FFFFFFFFFFFFFFFFFFFFFFFFFFFFFFFF83
:104D4000FFFFFFFFFFFFFFFFFFFFFFFFFFFFFFFF73
:104D5000FFFFFFFFFFFFFFFFFFFFFFFFFFFFFFFF63
:104D6000FFFFFFFFFFFFFFFFFFFFFFFFFFFFFFFF53
:104D7000FFFFFFFFFFFFFFFFFFFFFFFFFFFFFFFF43
:104D8000FFFFFFFFFFFFFFFFFFFFFFFFFFFFFFFF33
:104D9000FFFFFFFFFFFFFFFFFFFFFFFFFFFFFFFF23
:104DA000FFFFFFFFFFFFFFFFFFFFFFFFFFFFFFFF13
:104DB000FFFFFFFFFFFFFFFFFFFFFFFFFFFFFFFF03
:104DC000FFFFFFFFFFFFFFFFFFFFFFFFFFFFFFFFF3
:104DD000FFFFFFFFFFFFFFFFFFFFFFFFFFFFFFFFE3
:104DE000FFFFFFFFFFFFFFFFFFFFFFFFFFFFFFFFD3
:104DF000FFFFFFFFFFFFFFFFFFFFFFFFFFFFFFFFC3
:104E00009EFFFBF6D7D51CF7DFFFFFFFFFFFFFFF7D
:104E1000FFFFDEFFFFFFFFFFFFFFFFFFFFFFFFFFC3
:104E2000FFFFFFFFFFFFFFFFFFFFFFFFFFFFFFFF92
:104E3000FFFFFFFFFFFFFFFFFFFFFFFFFFFFFFFF82
:104E4000FFFFFFFFFFFFFFFFFFFFFFFFFFFFFFFF72
:104E5000FFFFFFFFFFFFFFFFFFFFFFFFFFFFFFFF62
:104E6000FFFFFFFFFFFFFFFFFFFFFFFFFFFFFFFF52
:104E7000FFFFFFFFFFFFFFFFFFFFFFFFFFFFFFFF42
:104E8000FFFFFFFFFFFFFFFFFFFFFFFFFFFFFFFF32
:104E9000FFFFFFFFFFFFFFFFFFFFFFFFFFFFFFFF22
:104EA000FFFFFFFFFFFFFFFFFFFFFFFFFFFFFFFF12
:104EB000FFFFFFFFFFFFFFFFFFFFFFFFFFFFFFFF02
:104EC000FFFFFFFFFFFFFFFFFFFFFFFFFFFFFFFFF2
:104ED000FFFFFFFFFFFFFFFFFFFFFFFFFFFFFFFFE2
:104EE000FFFFFFFFFFFFFFFFFFFFFFFFFFFFFFFFD2
:104EF000FFFFFFFFFFFFFFFFFFFFFFFFFFFFFFFFC2
:104F0000FFFFFFFFFFFFFFFFFFFFFFFFFFFFFFFFB1
:104F1000FFFFFFFFFFFFFFFFFFFFFFFFFFFFFFFFA1
:104F2000FFFFFFFFFFFFFFFFFFFFFFFFFFFFFFFF91
:104F3000FFFFFFFFFFFFFFFFFFFFFFFFFFFFFFFF81
:104F4000FFFFFFFFFFFFFFFFFFFFFFFFFFFFFFFF71
:104F5000FFFFFFFFFFFFFFFFFFFFFFFFFFFFFFFF61
:104F6000FFFFFFFFFFFFBEFFFBF695D56D93B6D5A4
:104F70005DFFDFFFFFFFDFF7FFFFDFFFDFFFBFFFAB
:104F8000FFFFFFFFFFFFFFFFFFFFFFFFFFFFFFFF31
:104F9000FFFFFFFFFFFFFFFFFFFFFFFFFFFFFFFF21
:104FA000FFFFFFFFFFFFFFFFFFFFFFFFFFFFFFFF11
:104FB000FFFFFFFFFFFFFFFFFFFFFFFFFFFFFFFF01
:104FC000FFFFFFFFFFFFFFFFFFFFFFFFFFFFFFFFF1
:104FD000FFFFFFFFFFFFFFFFFFFFFFFFFFFFFFFFE1
:104FE000FFFFFFFFFFFFFFFFFFFFFFFFFFFFFFFFD1
:104FF000FFFFFFFFFFFFFFFFFFFFFFFFFFFFFFFFC1
:10500000FFFFFFFFFFFFFFFFFFFFFFFFFFFFFFFFB0
:10501000FFFFFFFFFFFFFFFFFFFFFFFFFFFFFFFFA0
:10502000FFFFFFFFFFFFFFFFFFFFFFFFFFFFFFFF90
:10503000FFFFFFFFFFFFFFFFFFFFFFFFFFFFFFFF80
:10504000FFFFFFFFFFFFFFFFFFFFFFFFFFFFFFFF70
:10505000FFFFFFFFFFFFFFFFFFFFFFFFFFFFFFFF60
:10506000FFFFFFFFFFFFFFFFFFFFFFFFFFFFFFFF50
:10507000FFFFFFFFFFFFFFFFFFFFFFFFFFFFFFFF40
:10508000FFFFFFFFFFFFFFFFFFFFFFFFFFFFFFFF30
:10509000FFFFFFFFFFFFFFFFFFFFFFFFFFFFFFFF20
:1050A000FFFFFFFFFFFFFFFFFFFFFFFFFFFFFFFF10
:1050B000FFFFFFFFFFFFFFFFFFFFFFFFFFFFFFFF00
:1050C000FFFFFFFFFFFFFFFFFFFFFFFFDFFFDFFF30
:1050D00058E6AD9BC2482B93B6D5BEFFFFFFFFFF3E
:1050E000DFFFDFFFBFFFDFFFDFFFFFFFFFFFFFFF90
:1050F000FFFFFFFFFFFFFFFFFFFFFFFFFFFFFFFFC0
:10510000FFFFFFFFFFFFFFFFFFFFFFFFFFFFFFFFAF
:10511000FFFFFFFFFFFFFFFFFFFFFFFFFFFFFFFF9F
:10512000FFFFFFFFFFFFFFFFFFFFFFFFFFFFFFFF8F
:10513000FFFFFFFFFFFFFFFFFFFFFFFFFFFFFFFF7F
:10514000FFFFFFFFFFFFFFFFFFFFFFFFFFFFFFFF6F
:10515000FFFFFFFFFFFFFFFFFFFFFFFFFFFFFFFF5F
:10516000FFFFFFFFFFFFFFFFFFFFFFFFFFFFFFFF4F
:10517000FFFFFFFFFFFFFFFFFFFFFFFFFFFFFFFF3F
:10518000FFFFFFFFFFFFFFFFFFFFFFFFFFFFFFFF2F
:10519000FFFFFFFFFFFFFFFFFFFFFFFFFFFFFFFF1F
:1051A000FFFFFFFFFFFFFFFFFFFFFFFFFFFFFFFF0F
:1051B000FFFFFFFFFFFFFFFFFFFFFFFFFFFFFFFFFF
:1051C000FFFFFFFFFFFFFFFFFFFFFFFFFFFFFFFFEF
:1051D000FFFFFFFFFFFFFFFFFFFFFFFFFFFFFFFFDF
:1051E000FFFFFFFFFFFFFFFFFFFFFFFFFFFFFFFFCF
:1051F000FFFFFFFFFFFFFFFFFFFFFFFFFFFFFFFFBF
:10520000FFFFFFFFFFFFFFFFFFFFFFFFFFFFFFFFAE
:10521000FFFFFFFFFFFFFFFFFFFFFFFFFFFFFFFF9E
:10522000FFFFFFFFFFFFFFFFFFFFFFFFFFFFFFFF8E
:10523000FFFFFFFFFFFFDFFFB6DD2B9381484361D8
:10524000CA8A14CDFBF6BEFFFFFFFFFFDFFFDFFFC3
:10525000BFFFFFFFFFFFFFFFFFFFFFFFFFFFFFFF9E
:10526000FFFFFFFFFFFFFFFFFFFFFFFFFFFFFFFF4E
:10527000FFFFFFFFFFFFFFFFFFFFFFFFFFFFFFFF3E
:10528000FFFFFFFFFFFFFFFFFFFFFFFFFFFFFFFF2E
:10529000FFFFFFFFFFFFFFFFFFFFFFFFFFFFFFFF1E
:1052A000FFFFFFFFFFFFFFFFFFFFFFFFFFFFFFFF0E
:1052B000FFFFFFFFFFFFFFFFFFFFFFFFFFFFFFFFFE
:1052C000FFFFFFFFFFFFFFFFFFFFFFFFFFFFFFFFEE
:1052D000FFFFFFFFFFFFFFFFFFFFFFFFFFFFFFFFDE
:1052E000FFFFFFFFFFFFFFFFFFFFFFFFFFFFFFFFCE
:1052F000FFFFFFFFFFFFFFFFFFFFFFFFFFFFFFFFBE
:10530000FFFFFFFFFFFFFFFFFFFFFFFFFFFFFFFFAD
:10531000FFFFFFFFFFFFFFFFFFFFFFFFFFFFFFFF9D
:10532000FFFFFFFFFFFFFFFFFFFFFFFFFFFFFFFF8D
:10533000FFFFFFFFFFFFFFFFFFFFFFFFFFFFFFFF7D
:10534000FFFFFFFFFFFFFFFFFFFFFFFFFFFFFFFF6D
:10535000FFFFFFFFFFFFFFFFFFFFFFFFFFFFFFFF5D
:10536000FFFFFFFFFFFFFFFFFFFFFFFFFFFFFFFF4D
:10537000FFFFFFFFFFFFFFFFFFFFFFFFFFFFFFFF3D
:10538000FFFFFFFFFFFFFFFFFFFFFFFFFFFFFFFF2D
:10539000FFFFFFFFFFFFFFFFFFFFFFFFFFFFBEFF5E
:1053A00013CD898A23616469E771697A14C5BAEEFD
:1053B000BEFFBFFFFFFFFFFFFFFFFFFFFFFFFFFF7E
:1053C000FFFFFFFFFFFFFFFFFFFFFFFFFFFFFFFFED
:1053D000FFFFFFFFFFFFFFFFFFFFFFFFFFFFFFFFDD
:1053E000FFFFFFFFFFFFFFFFFFFFFFFFFFFFFFFFCD
:1053F000FFFFFFFFFFFFFFFFFFFFFFFFFFFFFFFFBD
:10540000FFFFFFFFFFFFFFFFFFFFFFFFFFFFFFFFAC
:10541000FFFFFFFFFFFFFFFFFFFFFFFFFFFFFFFF9C
:10542000FFFFFFFFFFFFFFFFFFFFFFFFFFFFFFFF8C
:10543000FFFFFFFFFFFFFFFFFFFFFFFFFFFFFFFF7C
:10544000FFFFFFFFFFFFFFFFFFFFFFFFFFFFFFFF6C
:10545000FFFFFFFFFFFFFFFFFFFFFFFFFFFFFFFF5C
:10546000FFFFFFFFFFFFFFFFFFFFFFFFFFFFFFFF4C
:10547000FFFFFFFFFFFFFFFFFFFFFFFFFFFFFFFF3C
:10548000FFFFFFFFFFFFFFFFFFFFFFFFFFFFFFFF2C
:10549000FFFFFFFFFFFFFFFFFFFFFFFFFFFFFFFF1C
:1054A000FFFFFFFFFFFFFFFFFFFFFFFFFFFFFFFF0C
:1054B000FFFFFFFFFFFFFFFFFFFFFFFFFFFFFFFFFC
:1054C000FFFFFFFFFFFFFFFFFFFFFFFFFFFFFFFFEC
:1054D000FFFFFFFFFFFFFFFFFFFFFFFFFFFFFFFFDC
:1054E000FFFFFFFFFFFFFFFFFFFFFFFFFFFFFFFFCC
:1054F000FFFFFFFFFFFFFFFFFFFFFFFFFFFFFFFFBC
:10550000FFFFFFFFFFFFBFFF51B4087AEB9230B4FB
:105510002C93A240E86991B43BFFFFFFFFFFDFFF40
:10552000FFFFFFFFFFFFFFFFFFFFFFFFFFFFFFFF8B
:10553000FFFFFFFFFFFFFFFFFFFFFFFFFFFFFFFF7B
:10554000FFFFFFFFFFFFFFFFFFFFFFFFFFFFFFFF6B
:10555000FFFFFFFFFFFFFFFFFFFFFFFFFFFFFFFF5B
:10556000FFFFFFFFFFFFFFFFFFFFFFFFFFFFFFFF4B
:10557000FFFFFFFFFFFFFFFFFFFFFFFFFFFFFFFF3B
:10558000FFFFFFFFFFFFFFFFFFFFFFFFFFFFFFFF2B
:10559000FFFFFFFFFFFFFFFFFFFFFFFFFFFFFFFF1B
:1055A000FFFFFFFFFFFFFFFFFFFFFFFFFFFFFFFF0B
:1055B000FFFFFFFFFFFFFFFFFFFFFFFFFFFFFFFFFB
:1055C000FFFFFFFFFFFFFFFFFFFFFFFFFFFFFFFFEB
:1055D000FFFFFFFFFFFFFFFFFFFFFFFFFFFFFFFFDB
:1055E000FFFFFFFFFFFFFFFFFFFFFFFFFFFFFFFFCB
:1055F000FFFFFFFFFFFFFFFFFFFFFFFFFFFFFFFFBB
:10560000FFFFFFFFFFFFFFFFFFFFFFFFFFFFFFFFAA
:10561000FFFFFFFFFFFFFFFFFFFFFFFFFFFFFFFF9A
:10562000FFFFFFFFFFFFFFFFFFFFFFFFFFFFFFFF8A
:10563000FFFFFFFFFFFFFFFFDFFFDFFFDFFFFFFFDA
:10564000FFFFFFFFFFFFFFFFFFFFFFFFFFFFFFFF6A
:10565000FFFFFFFFFFFFFFFFFFFFFFFFFFFFFFFF5A
:10566000FFFFFFFFFFFFFFFFFFFFFFFFFFFF5DFFEC
:105670004D93A769CFA3B6DDD7DD10AC29720872B0
:105680008D9338DE9EFFFFFFFFFFFFFFFFFFDFFF71
:10569000FFFFDFFFFFFFFFFFFFFFFFFFFFFFFFFF3A
:1056A000FFFFFFFFFFFFFFFFFFFFFFFFFFFFFFFF0A
:1056B000FFFFFFFFFFFFFFFFFFFFFFFFFFFFFFFFFA
:1056C000FFFFFFFFFFFFFFFFFFFFFFFFFFFFFFFFEA
:1056D000FFFFFFFFFFFFFFFFFFFFFFFFFFFFFFFFDA
:1056E000FFFFFFFFFFFFFFFFFFFFFFFFFFFFFFFFCA
:1056F000FFFFFFFFFFFFFFFFFFFFFFFFFFFFFFFFBA
:10570000FFFFFFFFFFFFFFFFFFFFFFFFFFFFFFFFA9
:10571000FFFFFFFFFFFFFFFFFFFFFFFFFFFFFFFF99
:10572000FFFFFFFFFFFFFFFFFFFFFFFFFFFFFFFF89
:10573000FFFFFFFFFFFFFFFFFFFFFFFFFFFFFFFF79
:10574000FFFFFFFFFFFFFFFFFFFFFFFFFFFFFFFF69
:10575000FFFFFFFFFFFFFFFFFFFFFFFFFFFFFFFF59
:10576000FFFFFFFFFFFFFFFFFFFFFFFFFFFFFFFF49
:10577000FFFFFFFFFFFFFFFFFFFFFFFFFFFFFFFF39
:10578000FFFFFFFFFFFFFFFFFFFFFFFFFFFFFFFF29
:10579000FFFFFFFFFFFFFFFFFFFFFFFFFFFFFFFF19
:1057A000FFFFFFFFDFFFFFFFFFFFFFFFFFFFFFFF29
:1057B000FFFFFFFFFFFFFFFFFFFFDFFFFFFFFFFF19
:1057C000DFFFFFFFFFFFFFFFFFFFFFFFFFFFFFFF09
:1057D000FFFFBFFF9EFFFCF6CC8A6661D3BCBBF621
:1057E0007EFF9AEEF0AB297A8661AFA3D7DD5DFF2D
:1057F000FFFFFFFFFFFFFFFFFFFFFFFFFFFFFFFFB9
:10580000DFFFFFFFFFFFFFFFFFFFFFFFFFFFFFFFC8
:10581000FFFFFFFFFFFFFFFFFFFFFFFFFFFFFFFF98
:10582000FFFFFFFFFFFFFFFFFFFFFFFFFFFFFFFF88
:10583000FFFFFFFFFFFFFFFFFFFFFFFFFFFFFFFF78
:10584000FFFFFFFFFFFFFFFFFFFFFFFFFFFFFFFF68
:10585000FFFFFFFFFFFFFFFFFFFFFFFFFFFFFFFF58
:10586000FFFFFFFFFFFFFFFFFFFFFFFFFFFFFFFF48
:10587000FFFFFFFFFFFFFFFFFFFFFFFFFFFFFFFF38
:10588000FFFFFFFFFFFFFFFFFFFFFFFFFFFFFFFF28
:10589000FFFFFFFFFFFFFFFFFFFFFFFFFFFFFFFF18
:1058A000FFFFFFFFFFFFFFFFFFFFFFFFFFFFFFFF08
:1058B000FFFFFFFFFFFFFFFFFFFFFFFFFFFFFFFFF8
:1058C000FFFFFFFFFFFFFFFFFFFFFFFFFFFFFFFFE8
:1058D000FFFFFFFFFFFFFFFFFFFFFFFFFFFFFFFFD8
:1058E000FFFFFFFFFFFFFFFFFFFFFFFFFFFFFFFFC8
:1058F000FFFFFFFFFFFFFFFFFFFFFFFFFFFFFFFFB8
:10590000FFFFFFFFFFFFFFFFFFFFFFFFFFFFFFFFA7
:10591000DFFFFFFFFFFFFFFFDFFFDFFFFFFFDFFF17
:10592000BFFFBEFF9EFFBEFFDFFFDFFFBEFFDEFF4C
:10593000BFFFDEFFBEFFBEFFBFFFBEFF5DFF38EE55
:10594000AB8AC77176D51CF7DFFFBFFFDBFED3CC78
:105950006669E450EC9219EE5DFFFFFFFFFFDFFF89
:10596000FFFFFFFFFFFFFFFFFFFFDFFFFFFFFFFF67
:10597000FFFFFFFFFFFFFFFFFFFFFFFFFFFFFFFF37
:10598000FFFFFFFFFFFFFFFFFFFFFFFFFFFFFFFF27
:10599000FFFFFFFFFFFFFFFFFFFFFFFFFFFFFFFF17
:1059A000FFFFFFFFFFFFFFFFFFFFFFFFFFFFFFFF07
:1059B000FFFFFFFFFFFFFFFFFFFFFFFFFFFFFFFFF7
:1059C000FFFFFFFFFFFFFFFFFFFFFFFFFFFFFFFFE7
:1059D000FFFFFFFFFFFFFFFFFFFFFFFFFFFFFFFFD7
:1059E000FFFFFFFFFFFFFFFFFFFFFFFFFFFFFFFFC7
:1059F000FFFFFFFFFFFFFFFFFFFFFFFFFFFFFFFFB7
:105A0000FFFFFFFFFFFFFFFFFFFFFFFFFFFFFFFFA6
:105A1000FFFFFFFFFFFFFFFFFFFFFFFFFFFFFFFF96
:105A2000FFFFFFFFFFFFFFFFFFFFFFFFFFFFFFFF86
:105A3000FFFFFFFFFFFFFFFFFFFFFFFFFFFFFFFF76
:105A4000FFFFFFFFFFFFFFFFFFFFFFFFFFFFFFFF66
:105A5000FFFFFFFFFFFFFFFFFFFFFFFFFFFFFFFF56
:105A6000FFFFFFFFFFFFFFFFFFFFFFFFFFFFFFFF46
:105A7000FFFFFFFFFFFFFFFFDFFFDFFFBFFFBEFFF7
:105A8000BEFF9EFF7DFF3CF7FBF6BAF639EED7E589
:105A900096DD35CD14C514C535C596CDB7D517DE01
:105AA00038DE59EE59F692C4E779077238E67DFF81
:105AB000FFFFDEFFBEFFBAF675DD6A828769297ACD
:105AC00035CDFBF6DFFFFFFFFFFFFFFFFFFFFFF717
:105AD000FFFFFFFFFFFFFFFFFFFFFFFFFFFFFFFFD6
:105AE000FFFFFFFFFFFFFFFFFFFFFFFFFFFFFFFFC6
:105AF000FFFFFFFFFFFFFFFFFFFFFFFFFFFFFFFFB6
:105B0000FFFFFFFFFFFFFFFFFFFFFFFFFFFFFFFFA5
:105B1000FFFFFFFFFFFFFFFFFFFFFFFFFFFFFFFF95
:105B2000FFFFFFFFFFFFFFFFFFFFFFFFFFFFFFFF85
:105B3000FFFFFFFFFFFFFFFFFFFFFFFFFFFFFFFF75
:105B4000FFFFFFFFFFFFFFFFFFFFFFFFFFFFFFFF65
:105B5000FFFFFFFFFFFFFFFFFFFFFFFFFFFFFFFF55
:105B6000FFFFFFFFFFFFFFFFFFFFFFFFFFFFFFFF45
:105B7000FFFFFFFFFFFFFFFFFFFFFFFFFFFFFFFF35
:105B8000FFFFFFFFFFFFFFFFFFFFFFFFFFFFFFFF25
:105B9000FFFFFFFFFFFFFFFFFFFFFFFFFFFFFFFF15
:105BA000FFFFFFFFFFFFFFFFFFFFFFFFFFFFFFFF05
:105BB000FFFFFFFFFFFFFFFFFFFFFFFFFFFFFFFFF5
:105BC000FFFFFFFFFFFFFFFFFFFFFFFFFFFFFFFFE5
:105BD000FFFFFFFFFFFFFFFFFFFFDFFF9EFF5CFFF9
:105BE000DBF638E696D535CDF4C4B2BC71B430A43A
:105BF000EFA3AE9B6E9B4D9B2D930C93EC8ACB8AAF
:105C00000C8B2C934D936D936D93AEA36DA3698212
:105C10002461A56991BC54C5D7CDF7D538DE79EE9E
:105C200099FE71C4EC9AC771EB92B2BC99E6BEFFC3
:105C3000FFFFFFFFFFFFFFFFFFF7FFFFFFFFFFFF7C
:105C4000FFFFFFFFFFFFFFFFFFFFFFFFFFFFFFFF64
:105C5000FFFFFFFFFFFFFFFFFFFFFFFFFFFFFFFF54
:105C6000FFFFFFFFFFFFFFFFFFFFFFFFFFFFFFFF44
:105C7000FFFFFFFFFFFFFFFFFFFFFFFFFFFFFFFF34
:105C8000FFFFFFFFFFFFFFFFFFFFFFFFFFFFFFFF24
:105C9000FFFFFFFFFFFFFFFFFFFFFFFFFFFFFFFF14
:105CA000FFFFFFFFFFFFFFFFFFFFFFFFFFFFFFFF04
:105CB000FFFFFFFFFFFFFFFFFFFFFFFFFFFFFFFFF4
:105CC000FFFFFFFFFFFFFFFFFFFFFFFFFFFFFFFFE4
:105CD000FFFFFFFFFFFFFFFFFFFFFFFFFFFFFFFFD4
:105CE000FFFFFFFFFFFFFFFFFFFFFFFFFFFFFFFFC4
:105CF000FFFFFFFFFFFFFFFFFFFFFFFFFFFFFFFFB4
:105D0000FFFFFFFFFFFFFFFFFFFFFFFFFFFFFFFFA3
:105D1000FFFFFFFFFFFFFFFFFFFFFFFFFFFFFFFF93
:105D2000FFFFFFFFFFFFFFFFFFFFFFFFFFFFFFFF83
:105D3000FFFFDFFFDFFFDFFFFFFFBFFFDFFF9EFF94
:105D40007DFFFBFE79EE95D591BC8D9B8982E77135
:105D500085614461E3500451045104514551855912
:105D6000A659E761E769E769E769A66966612559A8
:105D7000045904510351E350E25003590772487A21
:105D8000AB8AEC928EA392C454DDF7F5F3D4AA92B9
:105D9000C250E77171AC99EE7DFFDEFFDEFFFFFFC1
:105DA000FFFFFFFFFFFFFFFFFFFFFFFFFFFFFFFF03
:105DB000FFFFFFFFFFFFFFFFFFFFFFFFFFFFFFFFF3
:105DC000FFFFFFFFFFFFFFFFFFFFFFFFFFFFFFFFE3
:105DD000FFFFFFFFFFFFFFFFFFFFFFFFFFFFFFFFD3
:105DE000FFFFFFFFFFFFFFFFFFFFFFFFFFFFFFFFC3
:105DF000FFFFFFFFFFFFFFFFFFFFFFFFFFFFFFFFB3
:105E0000FFFFFFFFFFFFFFFFFFFFFFFFFFFFFFFFA2
:105E1000FFFFFFFFFFFFFFFFFFFFFFFFFFFFFFFF92
:105E2000FFFFFFFFFFFFFFFFFFFFFFFFFFFFFFFF82
:105E3000FFFFFFFFFFFFFFFFFFFFFFFFFFFFFFFF72
:105E4000FFFFFFFFFFFFFFFFFFFFFFFFFFFFFFFF62
:105E5000FFFFFFFFFFFFFFFFFFFFFFFFFFFFFFFF52
:105E6000FFFFFFFFFFFFFFFFFFFFFFFFFFFFFFFF42
:105E7000FFFFFFFFFFFFFFFFFFFFFFFFFFFFFFFF32
:105E8000FFFFFFFFFFFFFFFFFFFFFFFFFFFFFFFF22
:105E9000FFFFFFFFFFFFFFFFFFFFFFFFDFFFDFFF52
:105EA000DFFF7EFF1CFFF8DD92B44D932872A661E0
:105EB0006561A6610772697AEB8A2C9BAFAB31BC36
:105EC000B2C413CD95CDB6D5F7DD38E638EE38F649
:105ED000F8EDD7EDB7ED96E596DD55D535CDF3C4A4
:105EE000F2C491BC0FB46EA3EC9A8B8A6A820872DA
:105EF000E7690772287A087A0361C3588661AE9B06
:105F0000F7DD9DFFBEFFDFFFFFFFFFFFFFFFFFFF8E
:105F1000FFFFFFFFFFFFFFFFFFFFFFFFFFFFFFFF91
:105F2000FFFFFFFFFFFFFFFFFFFFFFFFFFFFFFFF81
:105F3000FFFFFFFFFFFFFFFFFFFFFFFFFFFFFFFF71
:105F4000FFFFFFFFFFFFFFFFFFFFFFFFFFFFFFFF61
:105F5000FFFFFFFFFFFFFFFFFFFFFFFFFFFFFFFF51
:105F6000FFFFFFFFFFFFFFFFFFFFFFFFFFFFFFFF41
:105F7000FFFFFFFFFFFFFFFFFFFFFFFFFFFFFFFF31
:105F8000FFFFFFFFFFFFFFFFFFFFFFFFFFFFFFFF21
:105F9000FFFFFFFFFFFFFFFFFFFFFFFFFFFFFFFF11
:105FA000FFFFFFFFFFFFFFFFFFFFFFFFFFFFFFFF01
:105FB000FFFFFFFFFFFFFFFFFFFFFFFFFFFFFFFFF1
:105FC000FFFFFFFFFFFFFFFFFFFFFFFFFFFFFFFFE1
:105FD000FFFFFFFFFFFFFFFFFFFFFFFFFFFFFFFFD1
:105FE000FFFFFFFFDFFFDFFFFFFFFFFFFFFFFFFF01
:105FF000FFFFFFFFFFFFFFFFFFFFFFFFFFFFFFFFB1
:10600000DFFFBEFF7DFFDAF6D6D5F2BCEFA32C93FF
:10601000697AE769287A8A822C93EFA392B414BD37
:1060200096CDF7D538E699EEFBF63CF75DFF9DFF80
:106030009DFF9DFF3DFF59EE35D538EEFCFE7DFFFF
:106040007DFF5CF73CF7FCEEFBEEBAEE58E6D7DDE1
:1060500056CDB3C46E9B2C932C936C9B0B938A8A66
:106060006571E360825045610C93F3C418E6DBEE82
:106070009EFFFFFFDFFFDFFFFFFFFFFFFFFFFFFFD1
:10608000FFFFFFFFFFFFFFFFFFFFFFFFFFFFFFFF20
:10609000FFFFFFFFFFFFFFFFFFFFFFFFFFFFFFFF10
:1060A000FFFFFFFFFFFFFFFFFFFFFFFFFFFFFFFF00
:1060B000FFFFFFFFFFFFFFFFFFFFFFFFFFFFFFFFF0
:1060C000FFFFFFFFFFFFFFFFFFFFFFFFFFFFFFFFE0
:1060D000FFFFFFFFFFFFFFFFFFFFFFFFFFFFFFFFD0
:1060E000FFFFFFFFFFFFFFFFFFFFFFFFFFFFFFFFC0
:1060F000FFFFFFFFFFFFFFFFFFFFFFFFFFFFFFFFB0
:10610000FFFFFFFFFFFFFFFFFFFFFFFFFFFFFFFF9F
:10611000FFFFFFFFFFFFFFFFFFFFFFFFFFFFFFFF8F
:10612000FFFFFFFFFFFFFFFFFFFFFFFFFFFFFFFF7F
:10613000FFFFFFFFFFFFFFFFFFFFFFFFFFFFFFFF6F
:10614000FFFFFFFF9EFF3CEFFBEE1CEF7DFF7EFF9E
:10615000BEFFDFFFDFFFFFFFFFFFDFFFFFFFFFFFF0
:10616000FFFFFFFFDFFFBEFF5DF7FBF617DE13C586
:106170004C93076A03492451E769EB8A30AC75D523
:10618000BAF65DFFBEFFDFFFDFFFFFFFDFFFDFFFD0
:10619000FFFFFFFFFFFFFFFFBEFF5CFF59EE51B4A3
:1061A000AB7AD3BCBAEEDEFFFFFFFFFFFFFFFFFFBE
:1061B000FFFFFFFFDFFFDFFFBFFF7EFF34CD92BC9D
:1061C00034D595DD34D530B44CA32882666904619A
:1061D00025610772EFA334C558E6FBF69EFF9EFFCC
:1061E000DFFFFFFFFFFFFFFFFFFFFFFFFFFFFFFFDF
:1061F000FFFFFFFFFFFFFFFFFFFFFFFFFFFFFFFFAF
:10620000FFFFFFFFFFFFFFFFFFFFFFFFFFFFFFFF9E
:10621000FFFFFFFFFFFFFFFFFFFFFFFFFFFFFFFF8E
:10622000FFFFFFFFFFFFFFFFFFFFFFFFFFFFFFFF7E
:10623000FFFFFFFFFFFFFFFFFFFFFFFFFFFFFFFF6E
:10624000FFFFFFFFFFFFFFFFFFFFFFFFFFFFFFFF5E
:10625000FFFFFFFFFFFFFFFFFFFFFFFFFFFFFFFF4E
:10626000FFFFFFFFFFFFFFFFFFFFFFFFFFFFFFFF3E
:10627000FFFFFFFFFFFFFFFFFFFFFFFFFFFFFFFF2E
:10628000FFFFFFFFFFFFFFFFFFFFFFFFFFFFFFFF1E
:10629000FFFFFFFFFFFFFFFFFFFFFFFFFFFFFFFF0E
:1062A000FFFFFFFFFFFFDFFFDFFFDFFF9AE6D3B453
:1062B000AA7A8D93F3C4F8E5BBF63DFF9FFF9FFFDD
:1062C000DFFFDFFFDFFFDFFFDFFFDFFF7DFFBAEE76
:1062D00075CD6D93C6614459856148724C93D2BCAB
:1062E00038E61BF73CFF5DFFBEFFBFFFBFFFFFFFB0
:1062F000DFFFFFFFFFFFFFFFDFFFBEF7FFFFDEFF58
:106300001BF717DE0C8BE7618A72B6D53CF7FFFFEF
:10631000DEFFFFFFFFFFFFFFFFFFFFFFFFFFFFFFAE
:10632000BEFF7EFF31AC6A7AC769EFB3B6E5DAFE2D
:10633000FAFE79F697E552C4EB92C771645964513D
:10634000476ACE9BD6DDDBF69EFFBFFFFFFFFFFF58
:10635000FFFFFFFFFFFFFFFFDFFFFFFFDFFFFFFF8D
:10636000FFFFDFFFFFFFFFFFFFFFFFFFFFFFFFFF5D
:10637000FFFFFFFFFFFFFFFFFFFFFFFFFFFFFFFF2D
:10638000FFFFFFFFFFFFFFFFFFFFFFFFFFFFFFFF1D
:10639000FFFFFFFFFFFFFFFFFFFFFFFFFFFFFFFF0D
:1063A000FFFFFFFFFFFFFFFFFFFFFFFFFFFFFFFFFD
:1063B000FFFFFFFFFFFFFFFFFFFFFFFFFFFFFFFFED
:1063C000FFFFFFFFFFFFFFFFFFFFFFFFFFFFFFFFDD
:1063D000FFFFFFFFFFFFFFFFFFFFFFFFFFFFFFFFCD
:1063E000FFFFFFFFFFFFFFFFFFFFFFFFFFFFFFFFBD
:1063F000FFFFFFFFFFFFFFFFFFFFFFFFFFFFFFFFAD
:10640000FFFFFFFFFFFFFFFFFFFFFFFFDFFFFFFFBC
:10641000DFFFDFFF96D52C8B65590872AB82EC8AC3
:106420004D93CFA352B415C5F8DDDCF65EFF7DFFBA
:106430001CF755C550A46D93AA7A697AAA826D9B00
:1064400051B434CDF7DDFBEE9DFFDEFFFFFFFFFF14
:10645000FFFFFFFFFFFFDFFFDFFFFFFFDFFFFFFFAC
:10646000FFFFDFFF3CFFD6D550ACEB82CB82CE9B4B
:1064700034C51BF7BEFFFFFFFFFFFFFFFFFFFFFF5E
:10648000FFFFFFFFFFFFFFFFFFFFBEFFF7D572B467
:106490006E9BEC924D9B0FAC54CD38E6DBFE39F68B
:1064A00056DDD3CC50BC6C9BCA7A6872CB82AE9B53
:1064B00072ACB7D5FCF6DFFFDFFFFFFFFFFFFFFF8A
:1064C000FFFFDFFFFFFFFFFFDFFFFFFFFFFFFFFF1C
:1064D000FFFFFFFFFFFFFFFFFFFFFFFFFFFFFFFFCC
:1064E000FFFFFFFFFFFFFFFFFFFFFFFFFFFFFFFFBC
:1064F000FFFFFFFFFFFFFFFFFFFFFFFFFFFFFFFFAC
:10650000FFFFFFFFFFFFFFFFFFFFFFFFFFFFFFFF9B
:10651000FFFFFFFFFFFFFFFFFFFFFFFFFFFFFFFF8B
:10652000FFFFFFFFFFFFFFFFFFFFFFFFFFFFFFFF7B
:10653000FFFFFFFFFFFFFFFFFFFFFFFFFFFFFFFF6B
:10654000FFFFFFFFFFFFFFFFFFFFFFFFFFFFFFFF5B
:10655000FFFFFFFFFFFFFFFFFFFFFFFFFFFFFFFF4B
:10656000FFFFFFFFFFFFFFFFFFFFFFFFFFFFFFFF3B
:10657000FFFFFFFFFFFFFFFFDFFFDFFFD3BC497A15
:106580004561697A697AC76185596561A669AA8298
:10659000AEA3D2C4B5DD95DD13CDEA8AA661445918
:1065A000E7694D93F3C479EE7DFFBEFFFFFFDEFF89
:1065B000FFFFFFFFFFFFFFFFFFFFDFFFFFFFFFFF0B
:1065C000FFFFFFFFFFFFBEFF1BF758E655D56D939A
:1065D0002872C76151AC38DEBEFFDFFFDFFFDFFF8F
:1065E000FFFFFFFFFFFFFFFFFFFFFFFFFFFFFFFFBB
:1065F000FFFFFFFFFFFF3CFFF7DD8E9B2872A761C7
:10660000AB8A30B496DD59F6BBFE1CFFFCFE39EEBA
:10661000B3BC0C83076A6559A6614D9B14CD9AEEF5
:106620005DFFDFFFFFFFFFFFFFFFFFFFFFFFFFFF3C
:10663000FFFFFFFFFFFFFFFFFFFFFFFFFFFFFFFF6A
:10664000FFFFFFFFFFFFFFFFFFFFFFFFFFFFFFFF5A
:10665000FFFFFFFFFFFFFFFFFFFFFFFFFFFFFFFF4A
:10666000FFFFFFFFFFFFFFFFFFFFFFFFFFFFFFFF3A
:10667000FFFFFFFFFFFFFFFFFFFFFFFFFFFFFFFF2A
:10668000FFFFFFFFFFFFFFFFFFFFFFFFFFFFFFFF1A
:10669000FFFFFFFFFFFFFFFFFFFFFFFFFFFFFFFF0A
:1066A000FFFFFFFFFFFFFFFFFFFFFFFFFFFFFFFFFA
:1066B000FFFFFFFFFFFFFFFFFFFFFFFFFFFFFFFFEA
:1066C000FFFFFFFFFFFFFFFFFFFFFFFFFFFFFFFFDA
:1066D000FFFFFFFFFFFFFFFFFFFFFFFFFFFFFFFFCA
:1066E000DFFFBFFF51B4297A0C9355DDBAFE17E6E0
:1066F000F3C48D9B287AA6692459035164594459DF
:1067000003512451487230ACF7E5FBFE5DFFDFFF1B
:10671000DFFFDFFFFFFFFFFFFFFFFFFFFFFFFFFFC9
:10672000FFFFFFFFFFFFFFFFFFFFDEFFBDFF5CFF7F
:1067300054CD4D932551A6612D8BF7DDFBF6BEFFA1
:10674000FFFFBFFFFFFFFFFFFFFFDFFFFFFFFFFFB9
:10675000FFFFFFFFFFFFFFFFFFFFFFFFFFFFFFFF49
:10676000BEFF1CFFF7E531B4497A6659655168727E
:10677000AE9BF4C419EEDCFE1DFFFCFEB6DDCEA31D
:106780000772045186612C8BB7D53CF7FEFFFFFFE3
:10679000FFFFFFFFFFFFFFFFFFFFFFFFFFFFFFFF09
:1067A000FFFFFFFFFFFFFFFFFFFFFFFFFFFFFFFFF9
:1067B000FFFFFFFFFFFFFFFFFFFFFFFFFFFFFFFFE9
:1067C000FFFFFFFFFFFFFFFFFFFFFFFFFFFFFFFFD9
:1067D000FFFFFFFFFFFFFFFFFFFFFFFFFFFFFFFFC9
:1067E000FFFFFFFFFFFFFFFFFFFFFFFFFFFFFFFFB9
:1067F000FFFFFFFFFFFFFFFFFFFFFFFFFFFFFFFFA9
:10680000FFFFFFFFFFFFFFFFFFFFFFFFFFFFFFFF98
:10681000FFFFFFFFFFFFFFFFFFFFFFFFFFFFFFFF88
:10682000FFFFFFFFFFFFFFFFFFFFFFFFFFFFFFFF78
:10683000FFFFFFFFFFFFFFFFFFFFFFFFFFFFFFFF68
:10684000FFFFFFFFDFFFFFFFFFFFDFFF10ACC769A8
:106850004D9B38EE9EFF3CFFBAEE58E6B6DD50B4D5
:106860006982A248A2508561AA8271B475CD79E689
:106870007DFFBFFFFFFFDFFFDFFFFFFFFFFFFFFF2A
:10688000DFFFDFFFFFFFFFFFFFFFFFFFFFFFBEFF99
:106890007DFF59E6F3C46D9BAA828A7A2C8BB3B430
:1068A00018D63CF7DFFFFFFFFFFFFFFFFFFFFFFFF3
:1068B000FFFFFFFFFFFFFFFFFFFFFFFFDFFFFFFF08
:1068C000FFFFFFFFFFFFFFFFDEFFDFFF5DFF7AEE51
:1068D00055CD92B4AD93EA82897AAA82EB8A4D9320
:1068E00092BCBBFEDBF679EE55CDEFA3AB82C76160
:1068F0008A7A0FA4B6CD5CFFBEFFDFFFFFFFFFFF6C
:10690000FFFFFFFFFFFFFFFFFFFFFFFFFFFFFFFF97
:10691000FFFFFFFFFFFFFFFFFFFFFFFFFFFFFFFF87
:10692000FFFFFFFFFFFFFFFFFFFFFFFFFFFFFFFF77
:10693000FFFFFFFFFFFFFFFFFFFFFFFFFFFFFFFF67
:10694000FFFFFFFFFFFFFFFFFFFFFFFFFFFFFFFF57
:10695000FFFFFFFFFFFFFFFFFFFFFFFFFFFFFFFF47
:10696000FFFFFFFFFFFFFFFFFFFFFFFFFFFFFFFF37
:10697000FFFFFFFFFFFFFFFFFFFFFFFFFFFFFFFF27
:10698000FFFFFFFFFFFFFFFFFFFFFFFFFFFFFFFF17
:10699000FFFFFFFFFFFFFFFFFFFFFFFFFFFFFFFF07
:1069A000FFFFFFFFFFFFFFFFFFFFFFFFFFFFFFFFF7
:1069B000BEFF7EFFF0A3C769CFA379F69EFFDFFF7E
:1069C0009EFF1CFF38EEB2C40C9B6669E7716D9B9D
:1069D00034CD1CFFBFFFFFFFDFFFFFFFFFFFDFFF27
:1069E000FFFFFFFFDFFFDFFFDFFFFFFFFFFFFFFF17
:1069F000DEFF5CF7DAEE18DE35C5EFA3CB8AE8716F
:106A0000AB82AF9BD7DD3CF7FFFFFFFFFFFFDFFF50
:106A1000DFFFFFFFFFFFFFFFFFFFFEFFFFFFFFFFA7
:106A2000FFFFFFFFFFFFFFFFFFFFFFFFFFFFFFF77E
:106A3000FFF7FFFFFFFFDFFFDFFF3CFF37DED2B4D2
:106A4000AE9BCA82497249728E9339E67DFFDFFFA1
:106A50009EFFBAEEB3BCCB82076A486A4C9334C53A
:106A600079E67DFFFFFFFFFFFFFFFFFFFFFFFFFF57
:106A7000FFFFFFFFFFFFFFFFFFFFFFFFFFFFFFFF26
:106A8000FFFFFFFFFFFFFFFFFFFFFFFFFFFFFFFF16
:106A9000FFFFFFFFFFFFFFFFFFFFFFFFFFFFFFFF06
:106AA000FFFFFFFFFFFFFFFFFFFFFFFFFFFFFFFFF6
:106AB000FFFFFFFFFFFFFFFFFFFFFFFFFFFFFFFFE6
:106AC000FFFFFFFFFFFFFFFFFFFFFFFFFFFFFFFFD6
:106AD000FFFFFFFFFFFFFFFFFFFFFFFFFFFFFFFFC6
:106AE000FFFFFFFFFFFFFFFFFFFFFFFFFFFFFFFFB6
:106AF000FFFFFFFFFFFFFFFFFFFFFFFFFFFFFFFFA6
:106B0000FFFFFFFFFFFFFFFFFFFFFFFFFFFFFFFF95
:106B1000FFFFDFFFDFFFFFFFDFFF7DFF8E9B866153
:106B200050AC99EEBEFFDFFF3CFF96DD8B8AE55847
:106B3000A7718FABD7E53CFFBEFFDEFFDFFFFFFF96
:106B4000DFFFDFFFFFFFFFFFFFFFFFFFDFFFFFFFB5
:106B5000FFFFDFFFFFFFDEFF9DFFF7D5EFA3C7615C
:106B600025596661CB8AF4C49AEE7EFF9EFFFFFF33
:106B7000DFFFDFFFFFFFFFFFFFFFFFFFDEFFFFFF86
:106B8000FEFFFFFFFFFFFFFFFFFFFFFFFFFFFFFF16
:106B9000FFFFFFFFFFFFFFF7FFFFFFFFDFFFDFFF4D
:106BA000DFFFBEFFFFFFBEFF9DFF3CFFDBF659E6A8
:106BB0007AE67EFFDFFFFFFFFFFFFFFF9EFFFBFE8A
:106BC00013C5AA7AC34804494D8B38E6BEFFDEFFE1
:106BD000FFFFFFFFFFFFFFFFFFFFFFFFFFFFFFFFC5
:106BE000FFFFFFFFFFFFFFFFFFFFFFFFFFFFFFFFB5
:106BF000FFFFFFFFFFFFFFFFFFFFFFFFFFFFFFFFA5
:106C0000FFFFFFFFFFFFFFFFFFFFFFFFFFFFFFFF94
:106C1000FFFFFFFFFFFFFFFFFFFFFFFFFFFFFFFF84
:106C2000FFFFFFFFFFFFFFFFFFFFFFFFFFFFFFFF74
:106C3000FFFFFFFFFFFFFFFFFFFFFFFFFFFFFFFF64
:106C4000FFFFFFFFFFFFFFFFFFFFFFFFFFFFFFFF54
:106C5000FFFFFFFFFFFFFFFFFFFFFFFFFFFFFFFF44
:106C6000FFFFFFFFFFFFFFFFFFFFFFFFFFFFFFFF34
:106C7000FFFFFFFFFFFFFFFFFFFFFFFFFFFFFFFF24
:106C8000BEFF3CFF4D93866113C5DAF67CFF79E6C3
:106C900031ACAB82E8718FABD4CC39EE3DFFBEFF97
:106CA000DFFFFFFFFFFFFFFFFFFFFFFFFFFFFFFF14
:106CB000FFFFFFFFFFFFFFFFFFFFFFFFFFFFFBE601
:106CC00034B5EB7A6A72CB8ACFABD3CCF7DDDBF687
:106CD0007DFFDFFFFFFFBEFFFFFFFFFFFFFFFFFFA7
:106CE000DFFFFFFFFFFFFFFFFEFFFFFFFFFFFFFFD5
:106CF000FFFFFFFFFFFFFFFFFFFFFFFFFFFFFFFFA4
:106D0000FFFFFFFFFFFFFFFFDFFFFFFFFFFFDFFFD3
:106D1000DFFFDFFF9EFF7DFF7EFFBFFFDFFFFFFF87
:106D2000FFFFDFFFDFFF9EFFFBF6D6DD31B42972E8
:106D3000086ACA82F3C4BAEEBFFFBFFFDFFFFFFFDE
:106D4000FFFFFFFFFFFFFFFFFFFFFFFFFFFFFFFF53
:106D5000FFFFFFFFFFFFFFFFFFFFFFFFFFFFFFFF43
:106D6000FFFFFFFFFFFFFFFFFFFFFFFFFFFFFFFF33
:106D7000FFFFFFFFFFFFFFFFFFFFFFFFFFFFFFFF23
:106D8000FFFFFFFFFFFFFFFFFFFFFFFFFFFFFFFF13
:106D9000FFFFFFFFFFFFFFFFFFFFFFFFFFFFFFFF03
:106DA000FFFFFFFFFFFFFFFFFFFFFFFFFFFFFFFFF3
:106DB000FFFFFFFFFFFFFFFFFFFFFFFFFFFFFFFFE3
:106DC000FFFFFFFFFFFFFFFFFFFFFFFFFFFFFFFFD3
:106DD000FFFFFFFFFFFFFFFFFFFFFFFFFFFFFFFFC3
:106DE000FFFFFFFFFFFFFFFFBEFFFBF60D93866176
:106DF00055D538EE96DD10AC8A7A6972CF9BF7D5FF
:106E00005DFFDFFFFFFFFFFFFFFFFFFFFFFFFFFF54
:106E1000FFFFFFFFFFFFFFFFFFFFFFFFFFFFFFFF82
:106E2000FFFFFFFFFFFFBAE614B52C7B8E8B13BD6F
:106E300079E67DFFDEFFFFFFFFFFFFFFFFFFFFFFA4
:106E4000FFFFFFFFFFFFFFFFFFFFFFFFFFFFFFFF52
:106E5000DFFFFFFFFFFFFFFFDFFFDFFFFFFFDFFFC2
:106E6000DFFFFFFFFFFFFFFFDFFFFFFFFFFFFFFF72
:106E7000FEFFFFFFFFFFFFFFFFFFDFFFDFFFBFFFA3
:106E8000BFFF9EFF7EFF5DFF3CF71BF75DFFBEFF70
:106E9000BEFF9EFFBBF692B4EB8AC769898231B40C
:106EA00018E67EFFBFFFFFFFFFFFFFFFFFFFFFFFB3
:106EB000FFFFFFFFFFFFFFFFFFFFFFFFFFFFFFFFE2
:106EC000FFFFFFFFFFFFFFFFFFFFFFFFFFFFFFFFD2
:106ED000FFFFFFFFFFFFFFFFFFFFFFFFFFFFFFFFC2
:106EE000FFFFFFFFFFFFFFFFFFFFFFFFFFFFFFFFB2
:106EF000FFFFFFFFFFFFFFFFFFFFFFFFFFFFFFFFA2
:106F0000FFFFFFFFFFFFFFFFFFFFFFFFFFFFFFFF91
:106F1000FFFFFFFFFFFFFFFFFFFFFFFFFFFFFFFF81
:106F2000FFFFFFFFFFFFFFFFFFFFFFFFFFFFFFFF71
:106F3000FFFFFFFFFFFFFFFFFFFFFFFFFFFFFFFF61
:106F4000FFFFFFFFFFFFFFFFFFFFFFFFFFFFFFFF51
:106F50009DFF79EEEC92A77175DDD3C4CB8A6238C0
:106F6000AA7A54C5BEFFDEFFFFFFFFFFFFFFFFFF52
:106F7000FFFFFFFFFFFFFFFFFFFFFFFFFFFFFFFF21
:106F8000FFFFFFFFFFFFFFFFFFFFFFFFDFFF9EFF92
:106F90005DFFFCEE7DFFDEFFFEFFFFFFFFFFFFFF5B
:106FA000FEFFFFFFFFFFFFFFFFFFFFFFFFFFFFFFF2
:106FB000FFFFFFFFFFFFFFFFFFFFDFFFDFFFDEFF42
:106FC000FFFFFFFFDEFFFFFFDFFFDFFFDFFFDFFF72
:106FD000FFFFFFFFBEFFFFFFFEFFBEFFDEFFBEFFA6
:106FE000BEFFBEFFBFFF7EFF1CF7BAF659E6F7DD16
:106FF00075CD55CD38E67EFFDFFFDFFFBFFFBFFF5A
:10700000D7DD6D9BA24865594D939AF69EFFBFFF51
:10701000FFFFDFFFFFFFFFFFDEFFFFFFFFFFFFFFC1
:10702000FFFFFFFFFFFFFFFFFFFFFFFFFFFFFFFF70
:10703000FFFFFFFFFFFFFFFFFFFFFFFFFFFFFFFF60
:10704000FFFFFFFFFFFFFFFFFFFFFFFFFFFFFFFF50
:10705000FFFFFFFFFFFFFFFFFFFFFFFFFFFFFFFF40
:10706000FFFFFFFFFFFFFFFFFFFFFFFFFFFFFFFF30
:10707000FFFFFFFFFFFFFFFFFFFFFFFFFFFFFFFF20
:10708000FFFFFFFFFFFFFFFFFFFFFFFFFFFFFFFF10
:10709000FFFFFFFFFFFFFFFFFFFFFFFFFFFFFFFF00
:1070A000FFFFFFFFFFFFFFFFFFFFFFFFFFFFFFFFF0
:1070B000FFFFFFFFDEF7FFFF9DFF59EECC8AC450B4
:1070C000AB92497A8B82F0A3F7DDFBF6DEFFFFFF80
:1070D000FFFFFFFFFFFFFFFFFFFFFFFFFFFFFFFFC0
:1070E000FFFFFFFFFFFFFFFFFFFFFFFFFFF7FFF7C0
:1070F000FFFFFFFFFFFFBFFFBEFFBEFFFFFFFFFF62
:10710000FFFFFFFFFFFFFFFFFFFFFFFFFFFFDFFFAF
:10711000DFFFDEFFFFFFDFFFDFFFDFFFDFFFDFFF60
:10712000BFFF9EFF9EFFBEFFDEFFFEFFFFFFBEFF15
:107130005DFF7DFFDEFFBEFF1BF7F7D555CD34CDDC
:1071400014CDF3C4D2C450B40FA4AD936D8B4C8B4B
:10715000EB82EB82CA7ACA828A82297A4D9B76D5E3
:107160005DFFFFFFDFFFBFFF1CF738E651B4487A31
:10717000A661CA8275CD3CFFDFFFFFFFFFFFFFFF67
:10718000FFFFFFFFFFFFFFFFFFFFFFFFFFFFFFFF0F
:10719000FFFFFFFFFFFFFFFFFFFFFFFFFFFFFFFFFF
:1071A000FFFFFFFFFFFFFFFFFFFFFFFFFFFFFFFFEF
:1071B000FFFFFFFFFFFFFFFFFFFFFFFFFFFFFFFFDF
:1071C000FFFFFFFFFFFFFFFFFFFFFFFFFFFFFFFFCF
:1071D000FFFFFFFFFFFFFFFFFFFFFFFFFFFFFFFFBF
:1071E000FFFFFFFFFFFFFFFFFFFFFFFFFFFFFFFFAF
