:020000040800F2
:10000000D02B0020DD0100089B3700087331000869
:10001000993700088D0400085D58000800000000B2
:100020000000000000000000000000007939000816
:10003000CD0500080000000017390008093B000842
:10004000F7010008F7010008F7010008F7010008B0
:10005000F7010008F7010008F7010008F7010008A0
:10006000F7010008F7010008F7010008F701000890
:10007000F7010008F7010008F7010008F701000880
:10008000F7010008F7010008F7010008F701000870
:1000900091040008F7010008F7010008F7010008C3
:1000A000F7010008F7010008F7010008F701000850
:1000B000F7010008F7010008F7010008F701000840
:1000C000F7010008F7010008F7010008F701000830
:1000D000F7010008F93F00081940000839400008FE
:1000E000F7010008F7010008F7010008F701000810
:1000F000F7010008F7010008F7010008F701000800
:10010000F7010008F7010008F7010008F7010008EF
:100110002D3E00084D3E0008F7010008F7010008D9
:10012000F7010008F7010008F7010008F7010008CF
:10013000F70100080000000000000000F7010008BF
:10014000F7010008F7010008F70100089D370008D3
:10015000F7010008F7010008F7010008F70100089F
:10016000F7010008F7010008F7010008F70100088F
:10017000F7010008F7010008F7010008000000007F
:1001800000000000F701000800000000000000006F
:10019000F70100080000000000000000F70100085F
:1001A000000000000000000000000000F70100084F
:1001B000F7010008F7010008F7010008F70100083F
:1001C000F7010008DFF810D000F08EF80048004773
:1001D000355A0008AFF30080D02B00200648804736
:1001E00006480047FEE7FEE7FEE7FEE7FEE7FEE71C
:1001F000FEE7FEE7FEE7FEE7A93B0008C5010008B1
:100200002DE9F05F0546002092469B46884606464B
:10021000814640241BE0284641464746224600F0DE
:1002200053F853465A46C01A914110D31146184606
:10023000224600F03AF82D1A67EB01084F46224695
:100240000120002100F031F817EB00094E41201E7B
:10025000A4F10104DFDC484631462A464346BDE8A6
:10026000F09F40EA01039B0703D009E008C9121F71
:1002700008C0042AFAD203E011F8013B00F8013B60
:10028000521EF9D27047D2B201E000F8012B491E8C
:10029000FBD270470022F6E710B513460A46044623
:1002A0001946FFF7F0FF204610BD202A04DB203A54
:1002B00000FA02F1002070479140C2F1200320FAB9
:1002C00003F3194390407047202A04DB203A21FAB7
:1002D00002F00021704721FA02F3D040C2F120025F
:1002E0009140084319467047064C074D06E0E06808
:1002F00040F0010394E8070098471034AC42F6D36D
:10030000FFF764FF745D0008945D000870B58C18F9
:1003100010F8015B15F0070301D110F8013B2A1119
:1003200006D110F8012B03E010F8016B01F8016B06
:100330005B1EF9D12B0705D40023521E0DD401F802
:10034000013BFAE710F8013BCB1A921C03E013F8CB
:10035000015B01F8015B521EF9D5A142D8D3002000
:1003600070BD0000464910B54A6822F440324A6028
:100370004A6843681A434A6001684A6822F48072F6
:100380004A6001684A68036942EA03224A600168D8
:100390004A6822F040724A6001684A6883681A43DA
:1003A0004A6001688A6822F400628A6001688A688B
:1003B000C3681A438A60816A6FF07062D142016833
:1003C0008A6822F070628A6001688A680CD0836A49
:1003D0001A438A6001688A6822F040528A60016884
:1003E0008A68C36A1A4301E022F040528A600168B9
:1003F0008A6822F002028A6001688A68037E42EA03
:1004000043028A6090F82010002901684A680FD0E2
:1004100042F400624A6001684A6822F460424A601D
:1004200001684A68174C436A04EB43331A4301E0FE
:1004300022F400624A600168CA6A22F47002CA6249
:100440000168CA6A838B104C04EB03531A43CA62D7
:1004500001688A6822F400728A6001688A6890F8EC
:10046000303042EA43228A6001688A6822F480625E
:100470008A6001688A68406942EA8020886010BD0D
:100480000023014000E0FFFF0000F0FFFEE7000056
:10049000014800F024BB00002C02002070B50E4C77
:1004A00015460646216000216160A160C4E903137E
:1004B0000123214600F0AAF960B102232A46214611
:1004C000304600F0A3F928B104232A4621463046DD
:1004D00000F09CF9002070BDB8010020002070479A
:1004E0000020704710B500220449054803F006FFBC
:1004F0000449034803F0FCFE002010BD84120020D4
:10050000B4050020840A002010B50146034803F01A
:10051000EFFE024803F0D1FE002010BDB40500201C
:1005200000207047094A10B5D2F8BC22D2F8142234
:100530000AB1012010BD0A460146044803F0DEFE60
:10054000BDE81040014803F039BF0000B4050020A9
:1005500001681823CAB2103AB2FBF3F2054B6FF3ED
:100560000901032A9B5CC36500D9091D8165084602
:1005700070470000545D000810B5014600208B69EB
:100580008A6A4FF0C07453B1B3F5005F15D072B1F1
:10059000012A0CD0022A0AD0032A09D104E01AB198
:1005A000012A06D0022A03D1C96AC90100D5012057
:1005B00010BDC96AA142FAD010BD002AF7D0012AA5
:1005C000F2D0022AF3D0032AF3D010BD704770474F
:1005D00078B50024009490F83C20012A19D001221B
:1005E00080F83C200A6807230568092A13D9EE68B9
:1005F0000A3A02EB420293409E43EE600B788A680F
:100600000A3B03EB43039A400368DD682A43DA6040
:1006100010E0022078BD2E6902EB420293409E4317
:100620002E610B788A6803EB43039A4003681D69C7
:100630002A431A614A681F23072A13D205686E6B82
:10064000521E02EB820293409E436E630A8893B26D
:100650000A79521E02EB820293400268556B2B43CB
:10066000536327E005680D2A12D22E6BD21F02EBCE
:10067000820293409E432E630B790A88DB1F92B25D
:1006800003EB83039A4003681D6B2A431A6311E04E
:10069000EE6A0D3A02EB820293409E43EE620B79C2
:1006A0000A880D3B92B203EB83039A400368DD6A2C
:1006B0002A43DA621B4B0568194A9D420AD10D682C
:1006C000122D07D1556825F400055560556845F48D
:1006D0008005556005689D421DD1134D0B68AB42E6
:1006E00001D0112B17D1536823F480035360536852
:1006F00043F4000353600968A9420CD10B490C4A2A
:100700000968B1FBF2F101EB8101490000E0491EEB
:1007100000910029FBD180F83C40002078BD00000A
:1007200000230140002001401200001018000020AA
:1007300040420F0070B504004FF0000503D0206C5C
:10074000002610B107E0012070BD204600F01CF823
:10075000666484F83C60206CC00610D4206C20F4E1
:10076000885040F0020020642046FFF7FBFD6664DD
:10077000206C20F0020040F00100206400E0012520
:1007800084F83C60284670BD10B586B0044614213C
:100790006846FFF77FFD1149206888421BD1104849
:1007A0000021026842F480720260006800F48070E8
:1007B00005900B481438026842F00102026000689C
:1007C00000F00100059003200090CDE90101694689
:1007D000044800F097FC06B010BD00000020014066
:1007E000443802400000024090F82020012A07D03F
:1007F000022A05D0416A41F48021416201207047FC
:10080000006842690A43426100207047F0B590F8E1
:1008100020500468A468012D05D0022D03D0416A40
:1008200041F480215DE014F0406F01D1E50055D521
:10083000C4F30164022C03D9416A41F4000150E081
:100840000125A5401D608D684FF4C0739DB1CE6831
:1008500035434E6845EAC605066803EB0417F551B3
:100860004FF4C275076805EB04150E697E51097DCA
:10087000012905D009E00E88CD6845EA4655EBE729
:1008800001684E5946F480764E511179D5795679E2
:1008900041EA056195792D0445EA062529434FF47F
:1008A000C676056806EB0416A9511178D57841EA99
:1008B0000561957852782D0445EA022211434FF4E0
:1008C000C475026805EB04155151006803EB04116F
:1008D000425842F0010242500020F0BD416A41F40A
:1008E000001141620120F0BD10B590F82020012ACE
:1008F00007D0022A05D0416A41F4802141620120DB
:1009000010BD3B48D0F8002242F00102C0F800229E
:10091000D0F8002222F47C52C0F80022D0F8002245
:100920004B6A42EA0322C0F800220A7D02F01F034C
:1009300001229A40D0F81C329343C0F81C32CB6994
:10094000B3B9D0F80C329343C0F80C328C894B68A1
:1009500064F31F434C6900EBC404C4F840320C89B3
:100960000B6864F31F434C6900EBC404C4F84432C1
:10097000CB69012B16D1D0F80C321343C0F80C32DE
:100980000C884B6864F31F434C6900EBC404C4F843
:1009900040320C89CB6864F31F434C6900EBC404FC
:1009A000C4F844328B69002BD0F804320ED01343C4
:1009B000C0F804320B69002BD0F8143208D013436E
:1009C000C0F81432096A012904D008E09343EFE724
:1009D0009343F5E7D0F81C121143C0F81C12D0F86D
:1009E000001221F00101C0F80012002010BD00002B
:1009F00000640040704730B590F82040012C05D0CD
:100A0000022C03D0416A41F480215DE00468002992
:100A100055D02469A40754D04FF4D874056804EB6A
:100A200001142D5915F00405956005682D594ED017
:100A3000ED08556005682C5904F00204D4604FF4A9
:100A4000DA74056804EB01142D5905F00F051561E2
:100A500005682D59C5F30725956105682C59240CA7
:100A600054614FF4DC72046802EB0112A4581C704C
:100A70000468A458240A5C700468A458240C9C7070
:100A80000468A258120EDA704FF4DE72046802EBAA
:100A90000112A4581C710468A458240A5C710468EB
:100AA000A458240C9C710468A258120EDA710068D4
:100AB00081B1016941F020010161002030BDE4688D
:100AC000A8E7416A41F400114162012030BD6D0D7B
:100AD0001560AFE7C16841F02001C160EDE72DE985
:100AE000F05F0546006800244669D0F804908768E6
:100AF000D0F80CB0D0F810A0D0F81880F10748D08A
:100B0000F90714D001218160B80703D5284600F009
:100B100076FA0CE0780702D54FF4006407E0380756
:100B200002D54FF4805402E0284600F067FAF80539
:100B300016D529684FF480708860B80503D528461B
:100B400000F05FFA0CE0780502D544F4005407E0A9
:100B5000380502D544F4804402E0284600F050FAFB
:100B6000F80316D529684FF480308860B80303D5A0
:100B7000284600F048FA0CE0780302D544F400441B
:100B800007E0380302D544F4803402E0284600F040
:100B900039FA300707D55FEACB6004D52968102001
:100BA00044F40074C86070074FF0080707D55FEA87
:100BB0000B7004D52868C760284600F097F9B00785
:100BC00006D52868C068800702D0284600F090F952
:100BD000700607D55FEACA6004D52968102044F47E
:100BE00080640861B00607D55FEA0A7004D52868FA
:100BF0000761284600F0D2F9F00606D5286800699A
:100C0000800702D0284600F0CAF9B00308D55FEA91
:100C1000C96005D5296810204860284600F0C0F951
:100C2000F00307D55FEA097004D5286847602846B5
:100C300000F0EAF9300446D55FEA497040D5F00586
:100C400004D55FEAC87001D044F00104B00504D5B2
:100C50005FEA887001D544F00204700504D55FEAAC
:100C6000487001D544F00404300529D518F0700F00
:100C700026D008F07000402815D006DC102809D0D6
:100C800020280AD0302816D10AE050280ED060283B
:100C900011D10EE044F008040DE044F010040AE025
:100CA00044F0200407E044F0400404E044F08004F1
:100CB00001E044F480742868816921F07001816149
:100CC000296804204860002C05D0686A20436862C7
:100CD0002846FFF78FFEBDE8F09F70B5040003D0F3
:100CE00094F8200010B104E0012070BD204600F00F
:100CF00081F82068016821F00201016000F0E0FA4B
:100D00000546052604E000F0DBFA401B0A2811D84E
:100D1000206840688007F6D42068016841F001012E
:100D2000016000F0CDFA05460BE000F0C9FA401B67
:100D30000A2806D9606A40F40030606284F82060B6
:100D4000D2E720684068C007EFD0207E01282068E5
:100D500001683DD021F080010160607E012820689B
:100D6000016838D021F040010160A07E0128206890
:100D7000016833D021F020010160E07E0128206865
:100D800001682ED041F010010160207F0128206809
:100D9000016829D021F008010160607F01282068E6
:100DA000016824D021F004010160D4E90201084364
:100DB000D4E90412114308436168491E08432168BD
:100DC000C86100206062012084F82000002070BD0E
:100DD00041F08001C0E741F04001C5E741F020014A
:100DE000CAE721F01001CFE741F00801D4E741F054
:100DF0000401D9E72DE9F04387B004461421684681
:100E0000FFF748FA354B3648DFF8CC801968D4F83C
:100E100000C0334A022503260927DFF8C8901030A6
:100E20000024491CC44528D11960012907D1016853
:100E300041F000710160006800F0007005901068DA
:100E400040F002001060106802AB00F00200059054
:100E50004FF44070CDE9000583E8D000694648466C
:100E600000F050F900221146142000F0C5FB1420B8
:100E700000F0B4FB07B0BDE8F083DFF86C80C44538
:100E8000F8D1D0F800C04CF0806CC0F800C0D0F8A9
:100E900000C001290CF0806CCDF814C0196007D196
:100EA000016841F000710160006800F00070059079
:100EB000106840F002001060106802AB00F0020001
:100EC00005904FF44050CDE9000583E8D000694615
:100ED000484600F017F9CDE7006400400800002004
:100EE00030380240000402400068004070470000B3
:100EF00000B58BB06B4602AA0021FFF77CFD02987B
:100F0000002847D19DF80000234A00F00F01000996
:100F1000C2E90010BDF80100F2EE090A40BA906083
:100F20009DF80310BAEE090A0B019DF8041043EA7C
:100F30001113D3609DF8053001F00F0143EA012140
:100F40001161102104F0F2FE82ED070A0C21F3EE8C
:100F50000E0ABBEE0E0AD06804F0E8FE82ED080A25
:100F60000C21F2EE040ABAEE040A106904F0DEFE67
:100F700082ED090A9DF8060000EE100AB8EE400A5C
:100F800082ED0C0A9DF8070000EE100AB8EE400A48
:100F900082ED0D0A0BB000BD7C1F0020704770472A
:100FA0007047000070B5044690F82000012804D076
:100FB000606A40F40020606218E0022084F820009B
:100FC0002068016821F00101016000F079F905460F
:100FD0000EE000BF00F074F9401B0A2808D9606ACF
:100FE00040F400306062052084F82000012070BDCC
:100FF00020684068C007EDD1606270BD70477047DF
:101000007047704770477047704700002DE9F04106
:10101000044600F055F906465CB1002584F83450CA
:10102000022084F835002068016821F00101016088
:101030000DE00120BDE8F08100F042F9801B052899
:1010400005D920206065032084F83500F2E7206888
:101050000068C007F0D12268116820480140D4E937
:1010600001031843D4E90336334318436369184333
:10107000A3691843E3691843236A18430843616A64
:10108000042903D1D4E90B131943084310602068E5
:101090004069666A20F0070130460E4301270428A4
:1010A0000CD1A06A0643E06A40B12046FFF764FA1B
:1010B00020B14020606584F83570BAE72068466149
:1010C0002046FFF745FA94F85C203F21914081606B
:1010D000656584F835700020ACE700003F8010F0B3
:1010E00070B5044600F0ECF80546601C02D00448D8
:1010F0000078044400F0E4F8401BA042FAD370BD2D
:101100000C0000202DE9F84F00224FF001080325C4
:101110004FF00F0E0B6808FA02F42340A3426ED181
:101120004E68012E05D0022E03D0112E01D0122EB2
:1011300012D186684FEA420C05FA0CF7BE43CF681D
:1011400007FA0CF7374387604668A6430C79C4F367
:101150000014944034434460C668570005FA07FC05
:101160008C6826EA0C06BC403443C4604C68022CF0
:1011700001D0122C13D1D40800EB8404A346D4F878
:10118000209054074FEAD46A0EFA0AF629EA0609B3
:101190000E6906FA0AF646EA0906CBF820600668E8
:1011A0000C7926EA0C0604F00304BC4034430460C6
:1011B0004C68E40060D5334C266846F480462660CF
:1011C000246822F0030604F4804400942E4C344436
:1011D000A446D4F808489607370F0EFA07F6B4432A
:1011E0002A4EB04201D100261FE0294EB04201D163
:1011F00001261AE0274EB04202D1022615E03BE05C
:10120000254EB04201D103260FE0244EB04201D159
:1012100004260AE0224EB04201D1052605E0214E07
:10122000B04201D1062600E00726BE402643CCF896
:1012300008681D4E34684F689C43FF0300D51C436B
:101240003460194E361D34684F689C43BF0300D587
:101250001C433460144E083634684F689C43FF02C8
:1012600000D51C433460104E0C3634684F689C43E4
:10127000BF0200D51C433460521C102AFFF44AAF51
:10128000BDE8F88F443802400030014000000240C1
:101290000004024000080240000C0240001002401E
:1012A0000014024000180240003C01400069084060
:1012B00000D0012070470AB1816170470904FBE743
:1012C00001488068704700000C00002070B50400E1
:1012D00025D094F83D00002520B984F83C502046E4
:1012E00000F0B8F8242084F83D002068016821F05F
:1012F000010101602068016841F40041016020683B
:10130000016821F40041016001F05CF94D4A616817
:10131000914201D84C4900E04C49884201D2012059
:1013200070BD4B492368B0FBF1F15E6826F03F06C3
:101330000E435E606368934206D94FF49673594337
:101340004FF47A73B1FBF3F12368491C1E6A26F04F
:101350003F06314319626168914210D84900401E2E
:10136000B0FBF1F2521CC2F30B02042A01D204209A
:1013700022E0B0FBF1F0401CC0F30B001CE0A268BF
:10138000F2B301EBC10303EB0116431EB3FBF6F30B
:101390005B1C43F480431B0549D092B301EBC102AF
:1013A00002EB0111401EB0FBF1F0401CC0F30B003A
:1013B00040F4804040F400402168CA694CF6FF7355
:1013C0009A431043C861D4E90710014320680268BA
:1013D00022F0C00211430160D4E9030101432068F7
:1013E000826848F2FF339A4311438160D4E90501D2
:1013F00008432168CA6822F0FF021043C86001E078
:101400000EE016E02068016841F0010101602564EA
:10141000202084F83D00256384F83E50002070BDF4
:1014200001EB4106431EB3FBF6F35B1CB3E701205F
:10143000C2E701EB4101401EB0FBF1F0401CC0F3DC
:101440000B00B7E7A086010080841E0000093D0064
:1014500040420F002DE9F04387B00446142168464E
:10146000FEF718FF22682C4C2A4B2B48122501212D
:1014700003260427DFF8A49010349A4219D1026899
:1014800042F002020260006802AA00F00200059029
:1014900082E8C200C020CDE9000569464846FFF752
:1014A00031FE206840F400102060206800F4001035
:1014B0002CE01B4B9A422AD1026842F001020260E2
:1014C000026802F001020592026842F00202026024
:1014D0000068884600F00200059098158DE821010B
:1014E00069461048CDE90367FFF70CFE10208DE830
:1014F000210169464846CDE90367FFF703FE2068EE
:1015000040F400002060206800F40000059007B05F
:10151000BDE8F0830054004030380240000402402F
:10152000005C0040000002400248816802781144DB
:10153000816070470C0000200B4810B5016841F431
:1015400000710160016841F480610160016841F44B
:1015500080710160032000F06FF8002000F006F8B1
:1015600000F024F8002010BD003C024070B50D4D85
:1015700004464FF47A712878B1FBF0F00A49096803
:10158000B1FBF0F001F0C4FA48B9102C07D20022E8
:101590002146501E00F030F800206C6070BD012024
:1015A00070BD00000C000020180000200A4808B59B
:1015B000016841F480410160006800F480400090BF
:1015C0000548001F016841F080510160006800F08B
:1015D0008050009008BD000044380240002809DB1C
:1015E00000F01F02012191404009800000F1E0203D
:1015F000C0F8001170470000F0B40E4B1B680C4699
:10160000C3F30223C3F10705042D00D90425191DD6
:10161000072901D2002300E0DB1E012606FA05F1AE
:10162000491E214099409E40761E16403143F0BC31
:1016300004F015B90CED00E0064900F00702086857
:101640004FF6FF03184040EA0220034A10430860A7
:10165000704700000CED00E00000FA05012201686F
:10166000C0F8FC23002280F8F423886940F0006071
:101670008861486D024A10434865002070470000A9
:101680000300001070B5164D0446A1B1012911D117
:101690002068D0F8001E41F00101C0F8001ED4F807
:1016A000040403F0D3F9206A002803D0286840F02E
:1016B0000600286070BD206A28B102F027FA286869
:1016C00020F0060028602068D0F8001E21F00101FB
:1016D000C0F8001ED4F80404BDE8704003F052B90D
:1016E00010ED00E00068416200207047F0B503682B
:1016F000586A39B19C6A4FF4827600EB144400209A
:101700004D1E0AE040EA024098620FE006EB8007B7
:10171000DF59401C04EB1744C0B2A842F6D344EA98
:1017200002404FF4807202EB810158500020F0BD5E
:10173000D0F8040403F091B8C1EBC10200EB8202BF
:10174000D0F80404926C02F0FCBFC1EBC10200EBC4
:101750008202D0F80404D2F8082203F047B8D0F887
:10176000040403F07CB870B504460B0601F00F00CA
:10177000C0EBC00104EB81014FF001024FF0000506
:1017800003D581F83D203C3103E081F8FD5101F59E
:10179000FE71087094F8BC03012808D084F8BC23BB
:1017A000206803F0F5FB84F8BC53002070BD0220D4
:1017B00070BD70B5044601F00F006268904201D917
:1017C000012070BD0B0601F00F01C1EBC10104EB5C
:1017D00081014FF001024FF0000503D581F83D2053
:1017E0003C3103E081F8FD5101F5FE718D70087008
:1017F00094F8BC03012808D084F8BC23206803F0C7
:10180000BFFD84F8BC53002070BD022070BD01F004
:101810000F01C1EBC10100EB8100D0F81402704749
:101820002DE9F04104460F0601F00F00C0EBC001A6
:1018300004EB81014FF001064FF0000503D581F85C
:101840003D603C3103E081F8FD5101F5FE71087007
:101850008A60CB704A7802B1C880022B00D10D712A
:1018600094F8BC03012809D084F8BC63206803F015
:10187000EBFA284684F8BC53BDE8F0810220FBE770
:1018800070B50C4601F00F05C5EBC50100EB8101F9
:10189000C1F81032C1F808220023C1F8143281F8CF
:1018A000FD3181F8FC51036901F5FE71012B00D176
:1018B0000A612207027C006803D003F0B9FD002012
:1018C00070BD03F0A5FCFAE770B504460D4601F0C3
:1018D0000F006168884201D9012070BD29064FF0D0
:1018E00000064FF0010207D5C0EBC00104EB8101F7
:1018F00081F83D203C3107E0C5EBC50104EB8101D7
:1019000081F8FD6101F5FE718A70087094F8BC03DE
:10191000012807D084F8BC23206803F05DFD280768
:1019200002D007E0022070BD217C04F571722068AE
:1019300003F0FAFC84F8BC63002070BD70B50C465F
:1019400001F00F05C5EBC50100EB81010B658A6451
:1019500000234B65012381F83D3001F83C5F0369AA
:10196000012B00D10A612207027C006803D003F03A
:101970005FFD002070BD03F04BFCFAE72DE9FC5F32
:1019800005680446284603F07CFE00287ED12068C6
:1019900003F0A3FE002879D0206803F09EFE8007A4
:1019A00004D52068416901F002014161206803F01B
:1019B00094FEC10604F57170009034D520688169E9
:1019C00021F0100181612F6A07F00F00C0EBC00009
:1019D00004EB8006C7F3434006F5FE76022802D0EA
:1019E000062811D01AE047F6F070074216D0C7F368
:1019F0000A1217462846F16803F073FEF06838446F
:101A0000F060B069384408E008222846009903F0E5
:101A100068FEB169C7F30A100844B06120688169A3
:101A200041F010018161206803F057FE00034FF080
:101A300001094FF0080B5BD50026206803F02CFE4F
:101A40000746DFF8A4A351E0F8074DD0F1B22068B3
:101A500003F03BFE8046C00707D005EB4611C1F8F6
:101A6000089B3146204601F09FFE5FEA087022D5B0
:101A700005EB4611C1F808BB2068026C00EB46106C
:101A80000192D0F8081B524507D900E0A9E10904EA
:101A900003D54FF40041C0F8081B204600F09AFA25
:101AA0000198504507D92069012804D120680121F7
:101AB000009A03F039FC5FEAC86004D505EB4611D3
:101AC0001020C1F8080B5FEA886004D505EB4611C9
:101AD0002020C1F8080B5FEA884005D505EB4611C8
:101AE0004FF40050C1F8080B7F08761C002FABD1D3
:101AF000206803F0F2FD40034FF0000A5CD5206837
:101B000003F0C3FD0746002654E0F80750D0F1B2B9
:101B1000206803F0C8FD8046C00723D006F00F02FE
:101B200009FA02F0D5F834288243C5F8342805EBC9
:101B30004610C0F80899206901280FD1C6EBC600ED
:101B400004EB8000D0E911211144816436B9206D85
:101B500020B920680121009A03F0E6FBF1B220468B
:101B6000FFF7EAFD5FEA087003D505EB4611C1F8FF
:101B700008B95FEAC86004D505EB46111020C1F82A
:101B800008095FEA486004D505EB46114020C1F81A
:101B900008095FEA887004D505EB46110220C1F8F8
:101BA00008095FEA086003D53146204601F062FE6D
:101BB0007F08761C002FA8D1206803F08EFD002836
:101BC00011DAD5F8040820F00100C5F8040894F8EB
:101BD000F403012839D0204600F0E0F9206841697B
:101BE00001F000414161206803F077FD00050BD54D
:101BF000D5F80808C00702D0204600F013FA206884
:101C0000416901F400614161206803F066FD000153
:101C10000AD52068416901F00061416194F8F4033C
:101C2000D0B1204600F0FEF9206803F056FDC00454
:101C300076D5D5F8040820F00100C5F80408102175
:101C4000206803F0FFFC002135E084F8F4A30021B4
:101C50002046FFF717FDC1E784F8F4932068406D34
:101C60000121C0F38300C4F8F8032046FFF70AFD02
:101C7000DAE700BF05EB41104FF67F32C0F80829C4
:101C8000D0F8003923F40013C0F80039D0F8003937
:101C900043F00063C0F80039C0F8082BD0F8002BDF
:101CA00022F40012C0F8002BD0F8002B42F00062A2
:101CB000C0F8002B491C60688842DBD8D5F81C08A6
:101CC00040F00110C5F81C08206B60B1D5F88408FD
:101CD00040F00B00C5F88408D5F8440840F00B002C
:101CE000C5F844080CE0D5F8141842F22B00014363
:101CF000C5F81418D5F8100840F00B00C5F8100806
:101D0000D5F8000820F4FE60C5F80008217C2068A2
:101D1000009A03F009FB2068416901F48051416198
:101D2000206803F0DAFC800415D5206803F0CCF8B5
:101D3000206803F099FCE06000F03EFC0146227B45
:101D4000206803F005FD204600F012F92068416983
:101D500001F400514161206803F0BFFC000707D582
:101D6000204600F01FF92068416901F00801416137
:101D7000206803F0B2FCC00208D50021204600F024
:101D800035F82068416901F480114161206803F051
:101D9000A4FC800208D50021204600F02BF8206822
:101DA000416901F400114161206803F096FC400094
:101DB00007D52046FFF7BCFC2068416901F080414F
:101DC0004161206803F089FC40070AD52068456816
:101DD000680702D52046FFF7C2FC20684168294306
:101DE0004160BDE8FC9F00000A30544FD0F8040465
:101DF00002F086BDD0F8040402F084BD2DE9F04164
:101E00008AB0040005D094F8BD032668002520B1EF
:101E100008E001200AB0BDE8F08184F8BC532046F8
:101E200000F064F8032084F8BD03F06BC00500D413
:101E30002561206803F0E6F904F1100128228846A4
:101E40006846FEF70EFA94E80F0003F04BF80226FE
:101E5000C8BB0021206803F052FC002001270EE0DF
:101E6000C0EBC00104EB810181F83D7001F83C0F2B
:101E7000C880CD708D60CD60401CC0B24D6161687E
:101E80008142EDD8002011E0C0EBC00104EB8101DC
:101E900081F8FD5181F8FC0181F8FF51C1F804522D
:101EA000C1F80852401CC0B2C1F8105261688142AA
:101EB000EAD8282241466846FEF7D3F994E80F0095
:101EC00003F0E8F810B184F8BD63A2E784F8385055
:101ED00084F8BD73606A012802D12046FFF7BEFB7B
:101EE000206803F0C9F8002094E7000010B586B020
:101EF000044614216846FEF7CDF92068B0F1A04FE2
:101F00002FD119480021026842F0010202600068E6
:101F100000F0010005904FF4C05000900220CDE980
:101F20000101032003900A20049069460F48FFF73F
:101F3000E9F80D48001D016841F0800101600A4880
:101F40001430016841F4804101600068002200F40F
:101F50008040059011464320FFF74EFB4320FFF7DA
:101F60003DFB06B010BD00003038024000000240CA
:101F700070B50446C068012570B1022801D0FEF793
:101F800026FB2946D4F8040402F012FDD4F8040418
:101F9000BDE8704002F0CDBC0025F2E7D0F80404A3
:101FA00002F0F0BCD0F8040402F0F6BC10B5044610
:101FB00090F8BC0301280BD0012084F8BC0384F8FE
:101FC0003810206803F0B2FB002084F8BC0310BD79
:101FD000022010BDD0F8042400F57171104602F003
:101FE000F3BC10B50446006894F8BC13012906D070
:101FF000012184F8BC13A16A012902D008E0022063
:1020000010BDA169012903D0816B41F48031816346
:10201000206803F001FB206803F020F8002084F81A
:10202000BC0310BD10B50446D0F8040402F00EFD48
:102030002068D0F8001E41F00101C0F8001E206A9F
:10204000002804D00248016841F00601016010BD7B
:1020500010ED00E02DE9F84F044600260078F84D19
:102060003746C00708D02868A16B20F0C06008433D
:102070002860A06B00B901262078800708D5286861
:10208000E16B20F0C05008432860E06B00B90126E6
:10209000207840070ED52868216B20F440100843B3
:1020A0002860206BB0F5801F01D010B102E001263E
:1020B00000E00127207800070ED52868616B20F426
:1020C000400008432860606BB0F5800F01D010B16C
:1020D00002E0012600E0012720784FF0000A800688
:1020E0004FF0010B63D5D6484C38016841F0805160
:1020F00001600068DFF84C9300F080500090D9F840
:10210000001041F48071C9F80010FFF7D9F880463B
:1021100006E000BFFFF7D4F8A0EB080002286FD854
:10212000D9F80000C005F5D5DFF81483A8F11C0824
:10213000D8F8000010F4407024D0B4F8401001F436
:10214000407181421ED0D8F80010BF4A21F440717E
:10215000C2F800B0C2F800A0C8F80010D8F800001B
:10216000C0070FD0FFF7ACF8814607E0FFF7A8F8EB
:10217000A0EB090141F288308142D0D8D8F80000A4
:102180008007F3D5216CAE48C1F301228438032ABD
:1021900037D0016821F4F811C0F80010D8F8001009
:1021A000B4F84020C2F30B021143C8F800102078A5
:1021B000C00604D5A54894F85810C0F8E01120785E
:1021C0000106A34805D50168E26C21F440011143E2
:1021D00001602178490605D50168A26C21F0806173
:1021E000114301602188C90514D50168626D21F091
:1021F000006111430160616DB1F1006F09D009E028
:102200001DE10268934B22F4F81219400A43026060
:10221000C4E701272188890505D50168626C21F092
:102220008051114301602188DFF82C92490509D5BE
:102230000168226D21F0005111430160206DB0F161
:10224000005F04D01EB92068B0F5006F7ED18349CD
:10225000C1F868A0FFF734F8794E80468C3E05E05F
:10226000FFF72EF8A0EB0800022886D8306800019E
:10227000F6D421687A48CA0701D0A26B1AB189073F
:1022800017D5E16BA9B901680268C1F30141491C86
:10229000D4E9013C43EA8C1321F0004CC2F3036201
:1022A00009EB0C4141EA02610B43217D43EA0171D4
:1022B000016021684A0703D5226BB2F5801F05D063
:1022C000090721D5616BB1F5800F1DD10168026846
:1022D000C1F30141491CD4E9013C43EA8C1321F0CC
:1022E000004C09EB0C4194F810C0C2F3027241EAB1
:1022F0000C610B4343EA027101602968A26A21F074
:102300001F01521E11432960218849051AD5216DEC
:10231000B1F1005F16D101680268C1F30141491CA7
:10232000D4E9013C43EA8C13D4F80CC0C2F3027226
:102330004FEA5C0809EB084C4CEA41610B4343EA65
:10234000027101602188090511D500E01FE0D4E980
:10235000011241EA8211E268530809EB0342237C2F
:1023600042EA03621143227D41EA027101603B4966
:10237000C1F868B0FEF7A4FF804605E0FEF7A0FFB5
:10238000A0EB0800022874D830680001F6D5EFB33E
:10239000DFF8C880C8F870A0FEF792FF304E0746FD
:1023A000843E04E0FEF78CFFC01B022861D8306831
:1023B000C0438000F6D521682A484A0701D5226B20
:1023C0001AB109071DD5616BD9B90168D4E9062393
:1023D000C1F30141491C42EA831221F0004309EB99
:1023E000034194F8243041EA03610A4302602968FA
:1023F000E26A6FF0FF0321F4F85103EB022211436C
:1024000029602188C90514D5616D00E038E0B1F17B
:10241000006F0ED10168D4E9062342EA8312236AD1
:10242000C1F303615C0809EB044343EA01610A4319
:102430000260C8F870B0FEF743FF04461CE018E0E5
:102440008C38024000700040400E47420010474266
:1024500094380240FFFCFF0F0000FFFF00004742DE
:102460008438024088380240FEF72AFF001B022809
:1024700002D90320BDE8F88F3068C0438000F3D450
:102480000020F7E72DE9F0470E46050065D0DFF89C
:102490001481D8F80000F7B200F00F00B04207D264
:1024A00088F80070D8F8000000F00F00B04254D156
:1024B00028683D4C810712D5400703D5206840F4B9
:1024C000E05020602878000703D5206840F4604081
:1024D00020602068A96820F0F00008432060287878
:1024E000C0072DD0304968680839012812D0022869
:1024F00013D0032811D00968890700292DDA216833
:1025000021F0030101432160FEF7DAFE814641F22A
:10251000883A0EE009688903EFE709688901ECE76A
:10252000FEF7CEFEA0EB0901514502D90320BDE81C
:10253000F0872068696800F00C00B0EB810FEFD1E4
:10254000D8F80010404601F00F01B14207D90770DA
:10255000006800F00F00B04201D00120E7E72878C2
:10256000400705D52068E96820F4E0500843206062
:102570002878000706D52068296920F4604040EAE1
:10258000C100206000F03EF82168084AC1F3031141
:10259000515CC8400649086006480068FEF7E6FF3F
:1025A0000020C4E7003C0240083802405C5D00089F
:1025B000180000201000002001480068704700004B
:1025C000180000200448054900680968044AC1F35E
:1025D0008221515CC8407047180000200838024032
:1025E0006C5D00080448054900680968044AC1F3A5
:1025F0004231515CC8407047180000200838024042
:102600006C5D0008224810B5006810F00C022148EB
:1026100015D02149042A11D01D4C241F082A0FD09F
:102620000C2A0CD12268236802F03F025B0221D5FC
:102630002068C0F38810A0FB010120E0084610BD0F
:102640002268236802F03F025B0205D52068C0F3D0
:102650008810A0FB010104E02168C1F38811A1FBEF
:1026600000010023FDF7CCFD2168C1F30141491CA5
:1026700049000AE02168C1F38811A1FB0001002391
:10268000FDF7BEFD2168C1F30271B0FBF1F010BD92
:10269000083802400024F400001BB7002DE9F84F71
:1026A0000546DFF828B30078ABF10407C007A7F1AF
:1026B000040451D0DBF800105846C1F38101012910
:1026C0000FD00168C1F38101022902D139684902A2
:1026D00007D40068C0F38100032809D1386840029C
:1026E00006D52068800337D56868002872D033E0AB
:1026F0006868B0F5803F10D0B0F5A02F206810D0EA
:1027000020F480302060206820F4802020606868F9
:10271000A8B1FEF7D5FD06460DE0206840F48030F4
:10272000F4E740F480202060F7E700BFFEF7C8FD23
:10273000801B642878D820688003F7D50CE0FEF76A
:10274000BFFD064605E000BFFEF7BAFD801B64280A
:10275000F0D820688003F7D42878DFF874928007D7
:102760004FF0000A46D5DBF80010584611F00C0F68
:102770000FD00168C1F38101022902D139684902F1
:1027800007D50068C0F38100032809D138684002EA
:1027900006D42068800715D5E86801281AD111E011
:1027A000E868C0B10120C9F80000FEF789FD0646BF
:1027B00005E000BFFEF784FD801B0228BAD8206820
:1027C0008007F7D52068296920F0F80040EAC100A9
:1027D00020600FE0F7E0C9F800A0FEF771FD0646A3
:1027E00005E000BFFEF76CFD801B02281CD82068A6
:1027F0008007F7D42878000727D5DFF8D0817548FF
:10280000696908F16C0881B101210160FEF758FD8A
:10281000064604E0FEF754FD801B022804D8D8F8D1
:1028200000008007F6D510E089E0C0F800A0FEF7B0
:1028300047FD064605E000BFFEF742FD801B02286B
:102840007DD8D8F800008007F6D42878400769D5ED
:102850005E484FF0000838300068C0000BD45B4879
:102860003830016841F08051016000684FF0010884
:1028700000F080500090584E3068C00511D4306888
:1028800040F480703060FEF71BFD009006E000BF52
:10289000FEF716FD0099401A022850D83068C0058E
:1028A000F6D54A4EA868683601280FD0052830684A
:1028B00010D020F001003060306820F0040030605B
:1028C000A868B8B1FEF7FCFC00900FE0306840F05B
:1028D0000100F4E740F004003060F7E7FEF7F0FC99
:1028E0000099411A41F28830814264D830688007EB
:1028F000F4D50EE0FEF7E4FC009007E0FEF7E0FC04
:102900000099411A41F28830814254D830688007DA
:10291000F4D4B8F1000F05D02C483830016821F00C
:1029200080510160A869A8B3DBF80010C1F38101F0
:10293000022948D00228C9F860A005D000E03AE09A
:10294000FEF7BEFC054639E0FEF7BAFC064604E099
:10295000FEF7B6FC801B02282DD820688001F7D432
:10296000F5E907010843E9681C4A490802EB0141FF
:10297000AA6841EA82110843297C40EA0160297D66
:1029800040EA017038600120C9F86000FEF798FC49
:10299000054606E015E000BFFEF792FC401B02284A
:1029A00009D820688001F7D50BE000BFFEF788FC4E
:1029B000401B022802D90320BDE8F88F206880015F
:1029C000F4D40020F8E70120F6E7000008380240C0
:1029D00000004742800E4742007000400000FFFFA9
:1029E00070B5040005D00025A56294F8510010B11F
:1029F00006E0012070BD84F85050204600F030F809
:102A0000022084F851002068016821F04001016033
:102A1000D4E901010843D4E9031211430843616971
:102A20000843218B01F400710843E1690843216ADE
:102A30000843A16A084321680860A069042101EAEB
:102A40001040616A0843216848602068C16921F428
:102A50000061C1616565012084F85100002070BDEE
:102A600070B586B0044614216846FDF713FC234E6A
:102A7000226800212248022303240525B2421AD1EC
:102A80001F4A1432166846F480561660126802F423
:102A900080520592026842F001020260006802AAB8
:102AA00000F00100059082E83200F020CDE900033B
:102AB000694614481DE0144EB2421CD1104A10322F
:102AC000166846F480461660126802F48042059249
:102AD000026842F002020260006802AA00F00200EE
:102AE000059082E832004FF44440CDE90003694686
:102AF0000648FEF707FB06B070BD0000003001403D
:102B0000303802400000024000380040000402401B
:102B100010B5401EB0F1807F01D3012010BD4FF0F1
:102B2000E02460610F21601702F099FE0020A0618F
:102B300007202061002010BD10B590F83C20012A2C
:102B400022D0012280F83C20CA688C6822F44072AE
:102B500022434C6822F4806222430C6822F4006213
:102B600022430C6922F4805222434C6922F4005221
:102B70002243C969002322F480420A4301684A645F
:102B800080F83C30002010BD022010BD70B590F8D8
:102B90003C20012A32D0012480F83C40022280F8F7
:102BA0003D2003685A689D6822F070060A68324327
:102BB0005A60134B02689A4214D0B2F1804F11D080
:102BC000104B9A420ED0104B9A420BD00F4B9A42A8
:102BD00008D00F4B9A4205D00E4B9A4202D00E4BB2
:102BE0009A4204D1496825F080031943916080F826
:102BF0003D40002180F83C10084670BD022070BDA9
:102C0000000001400004004000080040000C0040AB
:102C100000040140004001400018004010B586B09B
:102C2000044614216846FDF735FB23680021184847
:102C30000222B3F1804F19D0164CA34214D103687D
:102C400043F004030360006800F0040005904FF4B3
:102C500070700090CDE901210320CDE903100E48EA
:102C6000694600BFFEF74EFA06B010BD036843F098
:102C700002030360006800F0020005900420009049
:102C8000CDE901210120CDE9031069460348E9E7B8
:102C900030380240000401400008024000040240B5
:102CA00070B5044690F83C000D4601280DD0012671
:102CB00084F83C60022084F83D0042B1042A18D018
:102CC000082A2AD00C2A4DD139E0022070BD206894
:102CD00000F0EAFF2068816941F008018161206805
:102CE000816921F004018161206881692A691143A9
:102CF00011E0206801F008F82068816941F4006162
:102D000081612068816921F4806181612068816925
:102D10002A6941EA0221816124E0206801F02AF851
:102D20002068C16941F00801C1612068C16921F0D2
:102D30000401C1612068C1692A69114311E020685A
:102D400001F04CF82068C16941F40061C16120685C
:102D5000C16921F48061C1612068C1692A6941EAC1
:102D60000221C16184F83D60002084F83C0070BD00
:102D700010B5040003D094F83D0010B107E0012025
:102D800010BD002084F83C00204600F00DF8022021
:102D900084F83D00211D206800F014FF012084F814
:102DA0003D00002010BD000008B50068B0F1804F64
:102DB0000CD00B49884208D10A48016841F0020151
:102DC0000160006800F00200009008BD0548001F87
:102DD000016841F001010160006800F00100F3E7C3
:102DE000000401404438024010B504460068012246
:102DF00000F04CFF0B492068884202D00A49884203
:102E000003D1416C41F4004141642068816801F0C4
:102E10000701062903D0016841F00101016000208B
:102E200010BD0000000001400004014070B5040026
:102E300004D094F83900002510B106E0012070BDDF
:102E400084F83850204600F023F8242084F8390014
:102E50002068C16821F40051C160204601F006F8E5
:102E60002068016921F4904101612068416921F0E5
:102E70002A0141612068C16841F40051C160E563E5
:102E8000202084F8390084F83A00002070BD00004A
:102E90002DE9F04786B0074614216846FDF7FAF998
:102EA0007B487A4B3A68002479491038022503267A
:102EB000DFF8E0A14FF001084FF008099A421FD156
:102EC0000A6842F400220A60096801F400210591B1
:102ED000016841F0040101600068694600F00400E7
:102EE0000590B0028DE82101CDE903695046FEF757
:102EF00009F9002211463420FEF77EFB342032E02F
:102F0000654B9A4234D10A6842F480120A6009681B
:102F100001F480110591016841F00401016001682C
:102F200001F004010591016841F0080101600068A9
:102F3000694600F00800059098148DE82101CDE95C
:102F400003695046FEF7DEF804208DE82101CDE943
:102F5000036969465148FEF7D5F80022114635202D
:102F6000FEF74AFB3520FEF739FB06B0BDE8F087D7
:102F7000DFF82CC10723DFF82C91624523D14449A7
:102F8000091D0A6842F010020A60096801F0100188
:102F90000591016841F0010101600068029400F0B0
:102FA000010005904FF4C060CDE90005CDE9036351
:102FB00069464846FEF7A6F8002211462520FEF78E
:102FC0001BFB2520CFE7DFF8E0C0624520D10A686F
:102FD00042F400320A60096801F400310591016889
:102FE00041F0010101600068029400F001000590C9
:102FF0000C20CDE90005CDE9036369464846FEF79C
:1030000081F8002211462620FEF7F6FA2620AAE7CC
:10301000DFF898C06245A8D10A6842F480220A60AD
:10302000096801F480210591016841F00401016003
:103030000068694600F00400059020208DE8210119
:10304000CDE903635046FEF75DF81A4D1848286035
:103050004FF00060C5E901044014C5E90340801049
:103060006C61C5E906404FF44030C5E908042846C4
:10307000FDF7CCFF08B1FDF7AAFA7D6300221146E7
:103080002720AF63FEF7B8FA27206CE7004C00401A
:10309000403802400008024000500040000C02404E
:1030A0000010014000000240004400400048004081
:1030B00028600240540500202DE9F843044690F8AA
:1030C00039001F4616460D46202850D1B5B1AEB185
:1030D00094F8380001284AD0012084F838004FF0D5
:1030E0000008C4F83C80212084F83900FEF7E8F895
:1030F000A6848146E68484F8388026E00120BDE875
:10310000F883E08C401EE084A0684B46B0F5805FF9
:103110004FF000024FF080012046009703D000F0EE
:1031200039FFE8B90DE000F035FFC8B928882168FB
:10313000C0F308004860206908B16D1C05E0AD1CB3
:1031400003E0216815F8010B4860E08C0028D8D115
:103150004B46002240212046009700F01BFF08B19B
:103160000320CCE7202084F839000020C7E70220A4
:10317000C5E7FEE7F0B500230A24302537261F46B1
:1031800011E000BFB4EB107F02D905EB107C01E029
:1031900006EB107C01F813C001EB430C00015B1C33
:1031A0008CF80170DBB29342ECD3F0BD7FB5002404
:1031B00015480094019402941249039401604FF45D
:1031C0008031C0E901140461047680F820400F4981
:1031D000C0E90A140125C561C46080F8304045612A
:1031E000FDF7A8FA08B1FDF7F2F9CDE90045694607
:1031F00005480294FDF7ECF9002801D0FDF7E7F946
:103200007FBD000000200140E40100200100000F0C
:103210000F4810B50D4901600221416000214FF4B3
:1032200060228160C0E903124FF48002426101769E
:1032300041768176C17601774177FDF74EFD002812
:1032400003D0BDE81040FDF7C2B910BD00640040D6
:103250002C0200200F4810B50D4901600221416089
:1032600000214FF460228160C0E903124FF4800214
:103270004261017641768176C17601774177FDF72B
:103280002CFD002803D0BDE81040FDF7A0B910BD0B
:103290000068004054020020094808B5016841F464
:1032A000001101600068002200F400100090114637
:1032B0000C20FEF7A1F9BDE808400C20FEF78EB9FE
:1032C000303802402DE9F04786B014216846FCF7FB
:1032D000E1FF3E480024016841F0040101600168FB
:1032E00001F004010591016841F08001016001686D
:1032F00001F080010591016841F001010160016860
:1033000001F001010591016841F0020101600168CD
:1033100001F002010591016841F0080101600068B7
:10332000DFF8AC9000F008004EF213050590002283
:1033300029464846FDF7BFFFDFF898A00022082184
:103340005046FDF7B8FF01260095CDE901646946B6
:1033500048460394FDF7D6FE0C20CDE900046946EB
:1033600048460294FDF7CEFE20274FF003080720C1
:103370000097CDE903800225CDE90154694648460E
:10338000FDF7C0FECDE90084694650460294FDF782
:10339000B9FEA803CDE9000469460F480294FDF781
:1033A000B1FE08200090CDE90164694650460394BF
:1033B000FDF7A8FE0097CDE9015469465046CDE9D6
:1033C0000345FDF79FFE06B0BDE8F08730380240A8
:1033D0000008024000040240000002400D4810B501
:1033E0000B4901600C49416000214FF4804281602B
:1033F000C0E9031241618161C1610162FDF766FFAD
:10340000002803D0BDE81040FDF7E1B810BD000072
:10341000005400407C020020A08601000D4810B539
:103420000B4901600C49416000214FF480428160EA
:10343000C0E9031241618161C1610162FDF746FF8C
:10344000002803D0BDE81040FDF7C1B810BD000052
:10345000005C0040D0020020A08601000F4810B59B
:103460000D4901604FF48271416000218160C160AB
:103470004FF480220161C0E90512C161016241621D
:1034800081620A21C162FFF7ABFA002803D0BDE8D0
:103490001040FDF79CB810BD00300140240300200F
:1034A0000F4810B50D4901604FF482714160002151
:1034B0008160C1604FF400720161C0E90512C16111
:1034C0000162416281620A21C162FFF789FA002824
:1034D00003D0BDE81040FDF77AB810BD00380040B9
:1034E0007C03002010B58AB0002407941C21684694
:1034F0000894FCF7CFFE16484FF08041C0E9001455
:1035000047F68711C0E9024104618461FFF730FC8E
:1035100008B1FDF75CF8079407A90D480894FFF778
:1035200035FB08B1FDF753F86020009043F6C34027
:10353000CDE901040C22694605480494FFF7B0FB6D
:1035400008B1FDF744F80248FFF768FB0AB010BD68
:10355000D403002010B592B000240F941C216846BB
:103560001094FCF797FE202107A8FCF793FE2C4847
:103570002A49C0E9001440F27C61C0E902410461BB
:1035800044618461FFF7F4FB08B1FDF720F80F9464
:103590000FA923481094FFF7F9FA08B1FDF717F8BF
:1035A000602000905320CDE9010403940494059415
:1035B000002269461A480694FFF772FB08B1FDF72E
:1035C00006F8042269461648FFF76AFB08B1FCF7C3
:1035D000FEFF082269461248FFF762FB08B1FCF7BC
:1035E000F6FF0C2269460E48FFF75AFB08B1FCF7BC
:1035F000EEFF0794089409944FF400500A94CDE923
:103600000B4007A906480E94FFF796FA08B1FCF79D
:10361000DEFF0348FFF702FB12B010BD00040140BB
:10362000140400200C4810B50A4901604FF46121D0
:103630004160002181600C22C160C0E904128161F7
:10364000C161FFF7F3FB002803D0BDE81040FCF791
:10365000BEBF10BD004C0040540400200C4810B503
:103660000A4901604FF461214160002181600C2210
:10367000C160C0E904128161C161FFF7D7FB002876
:1036800003D0BDE81040FCF7A2BF10BD00500040C1
:10369000940400200C4810B50A4901604FF46121E0
:1036A0004160002181600C22C160C0E90412816187
:1036B000C161FFF7BBFB002803D0BDE81040FCF759
:1036C00086BF10BD00100140D40400200C4810B586
:1036D0000A4901604FF461214160002181600C22A0
:1036E000C160C0E904128161C161FFF79FFB00283E
:1036F00003D0BDE81040FCF76ABF10BD0044004095
:10370000140500200D4810B50B4901600C494160BB
:1037100000214FF480628160C0E903120422C0E9F5
:103720000521C161FFF782FB002803D0BDE81040EE
:10373000FCF74DBF10BD000000480040B01E002047
:10374000A086010010B500220F49104800F0CDFFFF
:1037500008B1FCF73CFF0E490C4801F09FF908B195
:10376000FCF735FF0B49094800F0BBFD08B1FCF739
:103770002EFF064801F00CFA002803D0BDE81040E7
:10378000FCF725BF10BD00001C000020B405002080
:103790006C0100207C000020FEE770470148FEF726
:1037A000EDB80000841A00202DE9F04103680D46B1
:1037B00004461E6C03EB4511D1F8080BD4F810E059
:1037C0004FF400474FF0200C04F57172BEF1010F69
:1037D00009D0DFF898E0764539D1020432D500BF30
:1037E000C1F8087B3FE0224B5FEA007E04D59E4291
:1037F00039D90004F4D436E05FEA806E02D5C1F80E
:1038000008CB30E010F0280F2DD19E4201D90004E2
:10381000E6D4C5EBC50004EB8000D1F8101BD0F84E
:103820000432C1F31201591AC0F81412D0F8081268
:103830001944C0F8081295B9D4F8100278B90121DA
:1038400020680AE080060AD5C1F808CB07E035B940
:10385000D4F8100218B90021184601F065FDE9B24C
:103860002046FDF772FF0020BDE8F0810A31544F79
:103870000A30544F2DE9F84F0E46C1EBC60100EB5C
:10388000810481460568D4E914103C34884202D989
:103890000120BDE8F88F081AA168814200D20846CD
:1038A000C01C870805EB46181BE000BFA0EB010A0F
:1038B000A068504500D282460AF10300870899F8B3
:1038C000100000901FFA8AF3F2B22846E16801F076
:1038D000B3FFE16801EB0A00E060A16901EB0A00B7
:1038E000A061D8F8180980B2B84205D3D4E905011F
:1038F000814201D20028D9D1D4E90501884208D8F3
:1039000006F00F0101208840D5F834188143C5F82E
:1039100034180020BDE7704730B5144B1C6865694A
:1039200045F0400565611B68DC6844F01004DC600C
:103930000F4B1C68256825F0010525601C6825686B
:10394000ED07F7D11D680B4CAC601C68E06018688F
:103950000161186842601868016841F480210160C3
:103960001868016841F00101016030BDB01E0020FF
:10397000540500200448004070470178407841EA2F
:103980000020704770B50A780F2A70D10A7E002A8D
:103990006DD1B1F801204FF00304C2F30A02A2F581
:1039A000806202808A78CB78D20842EA4312C2F35E
:1039B0000A02A2F580624280CA780B79920942EA33
:1039C00083024B7942EA8322C2F30A02A2F58062A3
:1039D00082804A798B79520842EAC312C2F30A0202
:1039E000A2F58062C2808A79CB79120942EA031279
:1039F000C2F30A02A2F580620281CA790B7AD20967
:103A000042EA43024B7A42EA4322C2F30A02A2F597
:103A1000806242814A7A8B7A920842EA831212F0DB
:103A2000FF0505734FF002034FF0010203D00F2D85
:103A300003D0027302E0037300E004738D7ACE7A40
:103A40006D0945EAC60515F0FF05457303D00F2D36
:103A500003D0427302E0437300E044730D7B15F022
:103A6000FF05857304D00F2D04D0827303E047E077
:103A7000837300E084734D7B8E7BED0845EA461529
:103A800015F0FF05C57303D00F2D03D0C27302E0FC
:103A9000C37300E0C473887BCA7B800940EA82005C
:103AA0000A7C40EA8220C0F30A02164882820A7C1D
:103AB0004B7C520842EAC312C2F30A02C2824A7C19
:103AC0008B7C120942EA0312C2F30A0202838A7C47
:103AD000CB7CD20942EA43020B7D42EA4322C2F385
:103AE0000A0242830A7D4B7D920842EA8312C2F3A6
:103AF0000A0282834A7D897D520942EAC101C1835B
:103B000070BD00008C1E0020FDF70EBD30B5ABB0BF
:103B1000342117A8FCF7BEFB142124A8FCF7BAFB3C
:103B20005C216846FCF7B6FB1D480025016841F0A2
:103B300080510160006800F08050299019480168A8
:103B400041F4404101600068022400F440402990A3
:103B500001201790000418908001CDE91D40062037
:103B60001F90A820CDE920040720CDE9220417A842
:103B7000FEF794FD24A90F2081E831004FF4A050F6
:103B80002790E0022890052124A8FEF77BFCE001A5
:103B9000009015956846FEF75DFA2BB030BD000029
:103BA00040380240007000400548016841F470014F
:103BB000016003494FF000608039086070470000E1
:103BC00088ED00E0F0B50268254C264D264E274FC3
:103BD000274B4FF0804CA04209D0604507D0A84247
:103BE00005D0B04203D0B84201D0984204D122F0AF
:103BF000700E4A6842EA0E02A0421BD0604519D0FE
:103C0000A84217D0B04215D0B84213D0984211D074
:103C1000184DA8420ED0184DA8420BD0174DA842FF
:103C200008D0174DA84205D0164DA84202D0164D17
:103C3000A84203D122F44075CA682A434D6922F094
:103C400080022A4302608A68C2620A688262A042D5
:103C500001D0984201D10969016301214161F0BDA0
:103C6000000001400004004000080040000C00403B
:103C70000004014000400140004401400048014070
:103C800000180040001C00400020004010B501F06A
:103C90001F030121046A99408C430462016A9A401F
:103CA0001143016210BD0000F0B5026A22F001026A
:103CB0000262036A42688469124E24F073050C683C
:103CC0002C4323F002058B682B430D4DA84201D0F5
:103CD000B04205D123F00807CB683B4323F004032F
:103CE000A84201D0B04205D14D6922F4407215437B
:103CF0008A692A4342608461496841630362F0BD76
:103D00000000014000040140F0B5026A22F01002F8
:103D10000262026A436884690D6824F4E64444EA56
:103D200005248D6822F0200242EA05120F4D104E44
:103D3000A84201D0B04206D1CF6822F0800242EA08
:103D4000071222F04002A84201D0B04207D14D69CB
:103D500023F4406343EA85038D6943EA85034360A6
:103D60008461496881630262F0BD00000000014087
:103D700000040140F0B5026A22F480720262026A15
:103D80004368C46922F4007224F073050C68124E73
:103D90002C438D6842EA05220E4DA84201D0B04264
:103DA00006D1CF6822F4006242EA072222F4806240
:103DB000A84201D0B04207D14D6923F4405343EAF1
:103DC00005138D6943EA05134360C4614968C16303
:103DD0000262F0BD000001400004014030B5026AFB
:103DE00022F480520262046A4268C3690D6823F4B7
:103DF000E64343EA05238D6824F4005444EA05347D
:103E0000084DA84202D0084DA84204D14D6922F4C1
:103E1000804242EA85124260C361496801640462DB
:103E200030BD00000000014000040140064808B514
:103E300000680168890602D40168C90602D5406895
:103E40008DF8000008BD000054040020064808B5A5
:103E500000680168890602D40168C90602D5406875
:103E60008DF8000008BD0000940400202DE9F04109
:103E7000044600680169E26821F440511143016180
:103E80002169A068E2690843616911430843216818
:103E9000CA6849F20C639A430243CA6020684169C8
:103EA000A26921F4407111434161E0691927642539
:103EB0003226B0F5004F354A354920684FF00008EA
:103EC00006D0884201D0904236D1FEF78BFB35E018
:103ED000884201D0904202D1FEF784FB01E0FEF758
:103EE00071FB61684A18A0FB070148EB0803FCF767
:103EF00087F90146B0FBF5F00201B1FBF5F06FF078
:103F00001803584301EB800006EBC000B0FBF5F04E
:103F100000F0F80002EB4002B1FBF5F0584301EB72
:103F2000800006EBC000B0FBF5F000F00700216850
:103F300010448860BDE8F081FEF744FB61688B0F98
:103F40008A00A0FB0701FCF75BF90146B0FBF5F026
:103F50006FF01802504301EB800006EB0010B0FB3D
:103F6000F5F000F0F002B1FBF5F002EB0012B1FB4E
:103F7000F5F06FF01803584301EB800006EB0010DA
:103F8000B0FBF5F000F00F00D1E700000014014095
:103F9000001001402DE9F041984617460E460446B0
:103FA000069D1DE0681C1BD02DB1FDF789F9A0EB23
:103FB0000800A84214D92068C16821F4D071C160FA
:103FC0002068416921F001014161202084F8390015
:103FD00084F83A00002084F838000320BDE8F0811E
:103FE0002068006836EA000004D00020B842D9D02A
:103FF0000020F3E70120F9E7064808B500680168EA
:10400000890602D40168C90602D540688DF800000F
:1040100008BD0000D4040020064808B50068016807
:10402000890602D40168C90602D540688DF80000EF
:1040300008BD000014050020274818B40068016876
:10404000890604D501684068009018BC7047234970
:104050000968C906F9D501684068214A00901068CE
:1040600001684FF032030C031E49046824F0010478
:10407000046017D410684468C4F13204A4B20C8000
:1040800043601068016841F4002101601068016814
:1040900041F001010160192CD7D10F496631A1F11E
:1040A000100016E014686068C0F1320080B2088029
:1040B00063600D498B6A23F400238B6211680A68E0
:1040C00042F001020A601928BFD103499831A1F1D9
:1040D000420018BCFFF756BCB01E0020004800404C
:1040E00054050020A4010020006002402DE9F041A9
:1040F0000C46D0F8C432D0F8BC12F9B104EB8402FB
:1041000000EB8202002695694DB1C4EBC40703EBB6
:1041100087035B6CB5FBF3F703FB175383B1C1F85F
:104120001462D0F8C002D1F808522246036928462A
:1041300001F5047198470020BDE8F0810320FBE7FA
:10414000002396611A46214600F089FCF3E770B51A
:10415000D0F8BC4205466CB100F08DFBC4F80C02EF
:10416000D5F8C012D4F80402CA6804F50371904768
:10417000002070BD032070BD70B50446002681216B
:1041800000F0D6FA002525870121204600F0D0FA5C
:10419000A4F878518221204600F0CAFAA4F84C50C5
:1041A000A4F84E50D4F8BC0248B1D4F8C00204F5CB
:1041B0002F7440688047206801F014FC2560304669
:1041C00070BD10B5D0E9AF4159B194F80002FF2895
:1041D00007D08B6894F8012221469847FF2084F885
:1041E0000002002010BD00000A2101800048704735
:1041F000940000204321018000487047E400002023
:104200004321018000487047A00000204321018025
:1042100000487047280100202DE9F04704464FF47C
:10422000077001F025FD05004FF0000735D0C4F8F8
:10423000BC52207C4FF010084FF40079012680B367
:10424000402302228121204600F05EFB2687402386
:1042500002220121204600F057FBA4F87861A4F85F
:104260004E80082303228221204600F04DFBA4F853
:104270004C60D4F8C00200688047C5F81472C5F8D5
:104280001872207CD5F80422A8B1402301212046D1
:1042900000F046FB0020BDE8F0870220C4F8BC72A5
:1042A000F9E7FFE74B4602228121204600F02CFB74
:1042B00026874B46CCE74B46E8E710B5D0F8BC1252
:1042C00051B1027C002AD1F8042207D040230121F9
:1042D00000F026FB002010BD032010BD4FF400733A
:1042E000F5E719B1C0F8C0120020704703207047ED
:1042F000D0F8BC02C0F8041200207047D0F8BC020D
:10430000C0F81022C0F80812002070472DE9FC41C7
:104310000546D0F8BC7200208DF80000ADF804000E
:10432000064608780C4610F0600121D020293DD1C6
:10433000E288AAB10006607807D5D5F8C0128B686C
:1043400039469847E288394628E087F80002A07984
:1043500087F80102E2883946284600F06DF82AE025
:10436000D5F8C012607800228B682146984722E079
:10437000607830B101281ED00A2809D00B2815D149
:1043800010E095F89C02032810D1022201A905E053
:1043900095F89C02032809D101226946284600F0BD
:1043A00065F808E095F89C02032804D021462846C9
:1043B00000F037F803263046BDE8FC8110B5D0F890
:1043C000BC12012219B1D1F8143213B10FE003204D
:1043D00010BD0122C1F81422D1F81022C262D1F816
:1043E0001032D1F80822812100F039FB002210465A
:1043F00010BD10B5D0F8B8220AB15268904700201D
:1044000010BD134610B50A46002100F089FA0020BD
:1044100010BD134610B50A46002100F020FB002015
:1044200010BD10B50446802100F0FEFA2046BDE81C
:104430001040002100F0F8BA10B50323C0F858214D
:10444000C0F89432C0F85C2113460A46002100F0FF
:1044500067FA002010BD10B505210023C0F89412A2
:104460001A46194600F05CFA002010BD10B5022370
:104470008261C0F89432C26113460A46002100F0FE
:10448000EEFA002010BD10B504210023C0F89412EC
:104490001A46194600F0E3FA002010BD10B50A468E
:1044A000024903A000F0F1F8004810BD8408002084
:1044B00043444320436F6E66696700001220088002
:1044C000004870474000002010B50A46024903A08A
:1044D00000F0DBF8004810BD84080020434443206E
:1044E000496E74657266616365000000042008808F
:1044F000004870473C00002010B50A46024903A05E
:1045000000F0C3F8004810BD8408002053544D69E2
:1045100063726F656C656374726F6E6963730000BC
:1045200010B50A46024903A000F0AFF8004810BDDC
:104530008408002053544D333220566972747561DB
:104540006C20436F6D506F727400000010B51A201C
:1045500008800A480168001D0468001D00680818EA
:1045600009D008220649FEF705FE0549042210314C
:104570002046FEF7FFFD0248801E10BD107AFF1F87
:10458000620000200C200880004870475400002082
:10459000F8B504460020ADF8000048880D46010A31
:1045A000062947D006DC01290FD0022912D00329A1
:1045B00062D11DE0072946D00F295DD1D4F8B4029D
:1045C000C26920E0694690473BE0D4F8B412207CF1
:1045D0000A68F7E7207C02260028D4F8B80205D044
:1045E000C16A684688470146467036E0816AF8E746
:1045F000C0B2062840D2DFE800F003090D111519FA
:10460000D4F8B4024268B2B3207CDBE7D4F8B40239
:104610008268F8E7D4F8B402C268F4E7D4F8B402C8
:104620000269F0E7D4F8B4024269ECE7D4F8B402C6
:104630008269E8E7207CF0B9D4F8B802416B68469B
:104640008847014609E0207CA8B9D4F8B802016B7C
:1046500068468847014607204870EA888AB1BDF855
:10466000000040B1824200D90246ADF80020204649
:10467000FFF7FCFEF8BDFFE729462046FFF7D1FE15
:10468000F8E72046FFF7FFFEF4E770B500230028A7
:104690001ED00025044602E06D1CEDB2641C267895
:1046A000002EF9D1022404EB450414801278CA5478
:1046B0005B1C0322CA5400245B1C06E0CA545B1C2A
:1046C000DAB28C54521CD3B2401C0278002AF5D1C5
:1046D00070BD01004FF0000004D0012901D0022973
:1046E00001D0032070470120704730B4A0B1D0F84A
:1046F000B84200230CB1C0F8B832D0F8CC420CB1AB
:10470000C0F8CC3209B1C0F8B412012180F89C1273
:10471000027030BC00F0B4B830BC0320704710B554
:10472000D0F8C402FDF745F8BDE81040FFF7D1BF4F
:1047300010B5D0F8C402FDF716F8BDE81040FFF739
:10474000C8BF70B51646044649B1D4F8B8024269EC
:104750001AB194F89C02032842D0032070BDD4F80B
:104760009412002504F11400022932D1D0E902315B
:104770008B4206D95A1A826031462046FFF749FE1D
:104780000FE0994214D14068884211D3D4F89812AE
:1047900088420DD2002211462046FFF73AFEC4F8A7
:1047A000985200231A461946204600F0B9F810E046
:1047B000D4F8B802C16829B194F89C02032801D149
:1047C000204688478021204600F02EF92046FFF73A
:1047D00042FE94F8A002012806D184F8A05203E01A
:1047E000204690470028B9D1002070BD10B513466F
:1047F000044649B1D4F8B80282691AB194F89C020F
:10480000032824D0032010BDD4F8941204F5AA7014
:10481000032920D1D0E9021291420AD98A1A826072
:10482000C068824200D3024619462046FFF7E9FDE0
:1048300011E0D4F8B802016929B194F89C02032868
:1048400001D1204688472046FFF71DFE03E02046A1
:1048500090470028D7D1002010BD0020704710B528
:10486000012180F89C12D0F8B82212B15268017967
:104870009047002010BDD0F8C402FCF7C8BF00006C
:1048800010B5017839BB15490222C1F80404C0F8FB
:10489000C4124FF0A0400860062048600020C1E923
:1048A0000320C1E9062008624862C862086308461E
:1048B000FDF7A4FA08B1FBF78AFE80210748FCF750
:1048C00011FF402200210548FCF710FF8022012142
:1048D0000248FCF70BFF002010BD0000841A0020E6
:1048E0000A0601F07F01D0F8C402C1EBC10100EB60
:1048F000810002D590F83E00704790F8FE017047A5
:10490000002070470020704710B51C461346D0F8B1
:10491000C4022246FCF784FFBDE81040FFF7D9BE71
:1049200010B5D0F8C402FCF7ABFFBDE81040FFF7AC
:10493000D0BE70B50125044680F89C520020C4F812
:1049400094026060C4F8A402D4F8BC0228B1D4F880
:10495000B8020021426820469047002240231146B9
:104960002046FFF7D1FF4026A4F8645133460022C9
:1049700080212046C4F86061FFF7C6FFA5840020AF
:10498000266270BD90F89C12042903D190F89D1204
:1049900080F89C120020704710B590F89C120329F3
:1049A00004D1D0F8B812C96901B18847002010BD00
:1049B00001740020704710B5D0F8C402FDF7F6FA74
:1049C000BDE81040FFF785BE70B5044600F2AA208E
:1049D000054600F04DF80120C4F89402B4F8B00286
:1049E000C4F8980294F8AA0210F01F010AD0012915
:1049F0000ED0022912D000F080012046BDE87040A0
:104A000000F012B829462046BDE8704000F0C2B858
:104A100029462046BDE8704000F0ECB92946204602
:104A2000BDE8704000F040B910B5D0F8C402FCF702
:104A30004BFFBDE81040FFF74CBE10B5D0F8C402E4
:104A4000FDF7CFFABDE81040FFF743BE90F89C1287
:104A500080F89D12042180F89C120020704710B548
:104A6000D0F8C402FCF76AFFBDE81040FFF731BE82
:104A700070B5054611F8010B2870087868704C1C59
:104A80002046FEF77AFF6880A41C2046FEF775FFDB
:104A9000A880A01CFEF771FFE88070BD38B5044601
:104AA0000020ADF8000041B1C4F8B812896A684628
:104AB0008847C4F8CC02002038BD032038BD024628
:104AC0000320D2F8B832002B02D01B6810461847DA
:104AD000704700002DE9F0410F462C4E89780025E3
:104AE00004463170012906D939462046FFF799FC62
:104AF0000320BDE8F08194F89C0202280CD0032822
:104B00001DD039462046FFF78CFC31782046FFF750
:104B100070FC03252846ECE799B320466160FFF757
:104B2000CEFF050004D039462046FFF77AFCF1E7B6
:104B30002046FFF7A8FC032084F89C02EAE74FF028
:104B40000208C1B1606888421BD0C1B22046FFF79D
:104B500050FC317820466160FFF7B1FF050010D0AE
:104B600039462046FFF75DFC21792046FFF741FCDE
:104B700084F89C82CEE784F89C8220466160FFF72F
:104B800038FC2046FFF77FFCC4E7000090000020BF
:104B9000FFF753BF2DE9F0410A78002512F06002BB
:104BA00008D0202A01D0402A71D1D0F8B8229268CA
:104BB000904731E04B78002201260A2B67D2DFE8CC
:104BC00003F0415E6658660805662D29FFF7E0FC94
:104BD0005FE004468888D8B9C888C8B94888802862
:104BE00016D200F07F0794F89C02032810D084F8B6
:104BF0009E7239462046FFF7DEFE2046FFF743FC53
:104C00001FB1022084F89C0243E084F89C6240E0DB
:104C100020463CE0FFF75EFF05463AE0CB88012BDB
:104C200035D190F89C32012B04D0022B02D0032BFB
:104C30002DD104E08260012200F1080116E001227A
:104C4000011D13E090F89C22012A03D0022A01D012
:104C5000032A1CD1CA88022A19D1C660D0F8A4122E
:104C600009B10321C160022200F10C01FFF7FEFB34
:104C70000FE0498801290CD1C0F8A46211E090F836
:104C80009C32012B08D0022B06D0032B04D0FFF757
:104C9000C8FB2846BDE8F08149880129F9D1C0F850
:104CA000A422FFF7F0FBF4E72DE9F0410D4604469E
:104CB00028780027097910F060000BD0202801D057
:104CC000402873D1D4F8B80229468268204690471C
:104CD00007468CE06878D8B3012822D0032865D134
:104CE00094F89C02022802D003287CD10BE0002912
:104CF00079D0802977D02046FFF796FE8021204684
:104D0000FFF792FE73E0688838B931B1802904D08A
:104D1000E88810B92046FFF787FE2046FFF7B3FB6F
:104D200065E094F89C020228E1D003285BD16888F2
:104D3000D8BB480602D02046FFF7F1FC2046FFF71B
:104D4000A2FBD4F8B80229468268204690474EE07C
:104D5000FFE794F89C020026022802D0032842D1E3
:104D600011E009B180293ED1080601F07F0000EB77
:104D7000800004EB800101D5143101E001F5AA7136
:104D800002220E602BE0080601F00F0000EB80000D
:104D900004EB80000BD5808C40B101F07F0000EB6C
:104DA000800004EB800514350CE020E01BE0B0F837
:104DB0006401C0B101F07F0000EB800004EB8005CE
:104DC00005F5AA7541B1802906D02046FFF788FD78
:104DD00010B10120286000E02E6002222946204602
:104DE000FFF744FB03E029462046FFF71AFB38464D
:104DF000BDE8F08170B50646087800240D4610F035
:104E0000600003D0202801D0402817D196F89C02DA
:104E1000012803D0022801D003280FD128790128C6
:104E20000CD8D6F8B8028268304690470446E88825
:104E3000204306D13046FFF726FB02E03046FFF75D
:104E4000F0FA204670BD000070B50A78012302F028
:104E50000F054E78AB401B4CD0F81C58012E17D0D4
:104E600045EA0343C0F81C3800EB4210D0F8002B91
:104E700012040BD4D0F8002B0B89C978C3F30A03B2
:104E80001A4344EA81410A43C0F8002B002070BD58
:104E90009BB21D43C0F81C5800EB4210D0F80039FB
:104EA0001B04F3D4D0F800390D89C978C5F30A057D
:104EB00089042B4341EA82510B432343C0F8003954
:104EC000E4E7000000800010D0F800196FF30A0139
:104ED000C0F80019D0F8041841F48071C0F8041823
:104EE0000020704770B5044606990A9E049D0D98EF
:104EF000012916D0E06840F04000E060204600F054
:104F00002BF8A16B1EB321F48031A163012D07D1D1
:104F1000A16841F00601A160A16841F02001A160F3
:104F200070BDA16B21F48031A163E168094A114091
:104F3000E160E16821F44011E160012803D1E068FB
:104F400040F48010E060204600F006F8DEE741F40F
:104F50008031DAE7BFFFBDFF01220C4902E0521C9D
:104F60008A420BD80369002BF9DA026942F0010288
:104F70000261012204E0521C8A4201D903207047D9
:104F80000369DB07F7D1002070470000400D0300E4
:104F900030B54C780A78012300EB4212012C2CD05A
:104FA000D2F8004B002C0BDAD2F8004B44F000642E
:104FB000C2F8004BD2F8004B44F08044C2F8004BDA
:104FC000D0F83C580C7804F00F0403FA04F425EAF6
:104FD0000444C0F83C48D0F81C48097801F00F019F
:104FE0008B4024EA0341C0F81C18D2F8000B194981
:104FF0000840C2F8000B002030BDD2F80049002C58
:105000000BDAD2F8004944F00064C2F80049D2F843
:10501000004944F08044C2F80049D0F83C480D787B
:1050200005F00F0503FA05F5ADB2AC43C0F83C48F6
:10503000D0F81C48097801F00F018B4099B28C43DD
:10504000C0F81C48D2F8000903490840C2F800091A
:10505000D1E700000078F3EF007833ECD0F8001EC1
:1050600021F00301C0F8001ED0F8041821F002015D
:10507000C0F8041800207047D0F8001E21F003018A
:10508000C0F8001ED0F8041841F00201C0F804185E
:10509000002070472DE9F04F00250E460446DDF84C
:1050A0002CC0DDF824B0109F2846294604EB80026E
:1050B000C2F80411401C0F28F8D32046A7B1806B1A
:1050C00040F40012A26308468846C4F8000ED4F8E3
:1050D00000182046C4F80018BCF1010F17D0D0F812
:1050E000001841F0030117E0D0F8040840F0020274
:1050F000C4F80428A06B20F40012A263206840F0DA
:1051000040022260206840F080022260DBE7D0F895
:1051100000180BB141F00101C0F80018102100F097
:1051200091FA00B10125204600F07CFA00B101257A
:105130004046C4F81088C4F81488C4F81C880021BC
:105140004FF000694FF0904A4FF67F3315E000BFF3
:1051500004EB4112D2F800C9BCF1000F06DA11B11C
:10516000C2F800A904E0C4F8009901E0C2F80009FF
:10517000C2F81009C2F80839491C8E42E8D800214B
:1051800015E000BF04EB4112D2F800CBBCF1000FD8
:1051900006DA11B1C2F800AB04E0C4F8009B01E0EC
:1051A000C2F8000BC2F8100BC2F8083B491C8E4233
:1051B000E8D8D4F8101821F48072C4F81028A0613F
:1051C0006FF080406061BBF1000F03D1A06940F037
:1051D0001000A061A06909490843A0610C9818B1AA
:1051E000A06940F00800A061012F03D1A069044923
:1051F0000843A0612846BDE8F08F000000383C80DD
:1052000004000040816821F00101816000207047A6
:1052100070B50D784E78434CEBB200EB4313012E82
:105220001FD0D3F8100B6FF31200C3F8100BD3F894
:10523000100B2040C3F8100B486908B1886848611A
:10524000D3F8100B40F40020C3F8100BD3F8100B68
:105250008C68C4F312042043C3F8100B012A55D004
:1052600058E04E69002ED3F8106932D06FF3120661
:10527000C3F81069D3F810692640C3F810694E6965
:105280008C68A64200D94C61D3F8104944F400243C
:10529000C3F81049D3F810494E69C6F312063443D7
:1052A000C3F81049012A22D000EB4512D2F8003988
:1052B00043F00443C2F800394A6932B3D0F83428C5
:1052C000097801F00F03012199400A43C0F83428FE
:1052D00026E02640C3F81069D3F8104944F40024AE
:1052E000C3F81049D3F810496FF31204D8E70969DD
:1052F00019B100EB4512C2F8141900EB4510D0F8B3
:10530000001941F00441C0F8001909E0C86808B16B
:10531000C3F8140BD3F8000B40F00440C3F8000BA3
:10532000002070BDFFFF07E010B5036C134CA342D3
:1053300003D9D0F8003B002B1EDB0023C0F8103B44
:10534000D0F8103B43F40023C0F8103BD0F8103BDA
:1053500043F01803C0F8103BD0F8103B43F0C043B3
:10536000C0F8103B012907D1C0F8142BD0F8001B5E
:1053700041F08021C0F8001B002010BD0A30544FBE
:105380004A780B78012A00EB43100BD0D0F8002BA1
:1053900022F40012C0F8002BC978032914D0022986
:1053A00012D017E0D0F8002922F40012C0F800292A
:1053B000C978032901D002290CD1D0F8001941F095
:1053C0008051C0F8001905E0D0F8001B41F0805171
:1053D000C0F8001B002070470A784B78D1B200EB70
:1053E0004110012B12D0D0F8001B002906DB2AB196
:1053F000D0F8001B21F08041C0F8001BD0F8001B42
:1054000041F40011C0F8001B00207047D0F80019CB
:10541000002906DB2AB1D0F8001921F08041C0F83C
:105420000019D0F8001941F40011C0F80019EBE799
:10543000F8B50C784F78774DE3B26FF0604600EB2B
:105440004313012F26D0D3F8104B6FF31204C3F887
:10545000104BD3F8104B2C40C3F8104B4C69002C68
:1054600074D08D682C44641EB4FBF5F4D3F8105B43
:10547000A4B206EAC4463543C3F8105BD3F8105B08
:105480008E686643C6F312042543C3F8105B012AF5
:1054900071D0A6E04F691FB3D3F810796FF31207EC
:1054A000C3F81079D3F810792F40C3F810794F69F9
:1054B0008D682F447F1EB7FBF5F506EAC545D3F886
:1054C00010693543C3F81059D3F810594E69C6F323
:1054D00012063543C3F81059CD78012D10D01BE0CA
:1054E000D3F810692E40C3F81069D3F8105945F469
:1054F0000025C3F81059D3F810596FF3120509E0CD
:10550000D3F8105925F0C045C3F81059D3F81059F5
:1055100045F00055C3F81059012A18D000EB441388
:10552000D3F8004944F00444C3F80049CC78012C76
:105530002FD04A6962B3D0F83428097801F00F03FC
:10554000012199400A43C0F8342860E036E00A6936
:105550001AB100EB4413C3F81429C97801290FD1FB
:10556000D0F80818C90500EB4411D1F8002903D47C
:1055700042F0005202E030E042F08052C1F80029CF
:1055800000EB4410D0F8001941F00441C0F80019B4
:105590003DE0D0F80848E405D3F8004902D444F0CF
:1055A000005401E044F08054C3F8004900928A8A14
:1055B00093B20A78C96800F03FF928E0D3F8104B9D
:1055C0008D68C5F312052C43C3F8104BD3F8104B6C
:1055D00044F40024C3F8104B59E7CA680AB1C3F871
:1055E000142BC97801290CD1D0F80808C005D3F8CC
:1055F000000B02D440F0005001E040F08050C3F8AE
:10560000000BD3F8000B40F00440C3F8000B00205F
:10561000F8BD0000FFFF07E0816841F001018160F3
:1056200000207047002110220261054A491C914266
:1056300001D9032070470369DB06F7D400207047C7
:10564000400D03000022202343EA81110161054936
:10565000521C8A4201D90320704703699B06F7D484
:1056600000207047400D0300D0F8080810F0060035
:1056700004D0022803D0062801D00F207047022052
:105680007047406900F001007047D0F81818D0F852
:105690001C08084080B27047D0F81818D0F81C08D1
:1056A0000840000C704710B5D0F81038D0F83428F6
:1056B00001F00F0400EB4110E24002F00102D0F8CB
:1056C000080943EAC212104010BD00EB4111D1F8A5
:1056D000081BD0F8140808407047416980690840E9
:1056E0007047D21C10B59308002200F5805002E0EC
:1056F0000468521C10C19A42FAD3084610BD10B576
:10570000C26822F0C042C260012902D029B1012042
:1057100010BDC16841F0005102E0C16841F0804114
:10572000C1603220FBF7DCFC002010BDD0F800285F
:1057300022F4FE62C0F80028D0F800284FF4FE637F
:1057400003EA01110A43C0F8002800207047000056
:10575000022A3ED1264A274B0A449A4201D20F21FF
:1057600038E0254A254B0A449A4201D20E2131E005
:10577000234A244B0A449A4201D20D212AE0224AAC
:10578000224B0A449A4201D20C2123E0204A214BA9
:105790000A449A4201D20B211CE01F4A1F4B0A44C3
:1057A0009A4201D20A2115E01D4A1E4B0A449A4230
:1057B0000FD31D4A1D4B0A449A4201D2082109E029
:1057C0001B4A11441B4A914201D2072102E00621E3
:1057D00000E00921C26822F47052C260C2684FF42E
:1057E000705303EA81210A43C26000207047000021
:1057F000405327FF00350C00401E1BFF40420F00A6
:1058000000DC0BFF804F1200808CF9FE20D61300C5
:1058100060B6E5FE60E3160000D3CEFE40771B00C5
:10582000C05BB3FEC091210000CA91FE2075380014
:10583000E05459FEE09C410010B5029C64B9DB1CA9
:105840009C0800EB0230002300F5805002E004C900
:1058500002605B1CA342FAD3002010BDFEE70907DB
:10586000090E002804DB00F1E02080F800147047E6
:1058700000F00F0000F1E02080F8141D704702E0F6
:1058800008C8121F08C1002AFAD1704770470020CB
:1058900001E001C1121F002AFBD1704700B58BB097
:1058A00000200121CDE906010891009001900290AD
:1058B00003900590049069460C48FBF715F80B48D7
:1058C000FBF770FB02210948FAF78EFF0E200990C2
:1058D000059069460648FBF707F80548FBF762FBA9
:1058E00002210348FAF780FF0BB000BD2C02002014
:1058F00054020020F8B510680F4600EE100A102080
:10590000B2EE091AFAEE090A00F058F80646506895
:10591000B3EE0E1A00EE100A0C20FBEE0E0A00F099
:105920004DF805469068DFED211A00EE100A0C20B4
:105930009FED1D1AF0EE610A00F040F80446D068B1
:10594000B1EE041A00EE100A0C20F0EE610A00F02D
:1059500035F803461069B2EE041A00EE100A0C2066
:10596000FAEE040A00F02AF8114900228A600F605A
:10597000CA6008220A610F49320A0A704E702A0969
:105980008A702A0142EA1422CA700C711A094A71FB
:105990001A0142EA10228A71C8710A466B4604490C
:1059A0000548FAF733FFF8BD0000FA430000000095
:1059B000B41F0020A60100202C020020012131EE9E
:1059C000601A814070EE600A491E00EE101AB8EEAF
:1059D000C00A20EE800AC0EE010ABDEEE00A10EE19
:1059E000100A704710B5002821D0114B0022001F6B
:1059F000196803E0814203D80A4649680029F9D1B1
:105A000052B11368841A9C4204D100681844106093
:105A1000104602E0506000E0186039B102680B1ACD
:105A2000934203D10B681A4402604968416010BD7B
:105A3000B0010020FBF780FDFEF768F8FDF742FC9F
:105A4000FDF7E6FBFDF706FCFDF708FDFDF7EAFDB7
:105A5000FDF704FEFDF71EFEFDF7A8FBFDF7BEFCFB
:105A6000FDF778FDFDF7DAFCFDF71AFDFDF72EFED8
:105A7000FDF768FEFDF736FDFDF70EFCFDF742FE73
:105A800000F02CF95B4C012246F210012046FBF796
:105A900012FCFFF703FF58490868C26842F0200271
:105AA000C2600868C16841F01001C16053490868CC
:105AB000C26842F02002C2600868C16841F010016B
:105AC000C1604F490868C26842F02002C26008689D
:105AD000C16841F01001C1604A490868C26842F0DB
